{"abi":[{"type":"constructor","inputs":[{"name":"_votingEscrow","type":"address"},{"name":"_rewardDistributor","type":"address"},{"name":"_rewardFaucet","type":"address"},{"name":"_balToken","type":"address"},{"name":"_auraToken","type":"address"},{"name":"_balMinter","type":"address"}],"stateMutability":"nonpayable"},{"type":"function","name":"auraToken","inputs":[],"outputs":[{"name":"","type":"address"}],"stateMutability":"view"},{"type":"function","name":"balMinter","inputs":[],"outputs":[{"name":"","type":"address"}],"stateMutability":"view"},{"type":"function","name":"balToken","inputs":[],"outputs":[{"name":"","type":"address"}],"stateMutability":"view"},{"type":"function","name":"deploy","inputs":[{"name":"tokenBptAddr","type":"address"},{"name":"name","type":"string"},{"name":"symbol","type":"string"},{"name":"maxLockTime","type":"uint256"},{"name":"rewardDistributorStartTime","type":"uint256"},{"name":"admin_unlock_all","type":"address"},{"name":"admin_early_unlock","type":"address"},{"name":"rewardReceiver","type":"address"}],"outputs":[{"name":"","type":"address"},{"name":"","type":"address"},{"name":"","type":"address"}],"stateMutability":"nonpayable"},{"type":"function","name":"rewardDistributor","inputs":[],"outputs":[{"name":"","type":"address"}],"stateMutability":"view"},{"type":"function","name":"rewardFaucet","inputs":[],"outputs":[{"name":"","type":"address"}],"stateMutability":"view"},{"type":"function","name":"votingEscrow","inputs":[],"outputs":[{"name":"","type":"address"}],"stateMutability":"view"},{"type":"event","name":"VESystemCreated","inputs":[{"name":"token","type":"address","indexed":true},{"name":"votingEscrow","type":"address","indexed":false},{"name":"rewardDistributor","type":"address","indexed":false},{"name":"rewardFaucet","type":"address","indexed":false},{"name":"admin","type":"address","indexed":false}],"anonymous":false}],"bytecode":{"object":"0x60206107a66000396000518060a01c6107a15760405260206107c66000396000518060a01c6107a15760605260206107e66000396000518060a01c6107a15760805260206108066000396000518060a01c6107a15760a05260206108266000396000518060a01c6107a15760c05260206108466000396000518060a01c6107a15760e052346107a157604051156100d657606051156100cf57608051156100c85760a051156100c15760c051156100ba5760e05115156100d9565b60006100d9565b60006100d9565b60006100d9565b60006100d9565b60005b61014057600c610100527f7a65726f206164647265737300000000000000000000000000000000000000006101205261010050610100518061012001601f826000031636823750506308c379a060c052602060e052601f19601f61010051011660440160dcfd5b60405161062452606051610644526080516106645260a0516106845260c0516106a45260e0516106c45261062461017c610000396106e4610000f36003361161000c5761060c565b60003560e01c346106125763915c40938118610520576101443610610612576004358060a01c6106125760405260243560040160408135116106125780358060605260208201818160803750505060443560040160208135116106125780358060c05260208201803560e05250505060a4358060a01c610612576101005260c4358060a01c610612576101205260e4358060a01c6106125761014052604051602061068460003960005118610121576004610160527f2162616c000000000000000000000000000000000000000000000000000000006101805261016050610160518061018001601f826000031636823750506308c379a061012052602061014052601f19601f61016051011660440161013cfd5b60405160206106a46000396000511861019a576005610160527f21617572610000000000000000000000000000000000000000000000000000006101805261016050610160518061018001601f826000031636823750506308c379a061012052602061014052601f19601f61016051011660440161013cfd5b7f602d3d8160093d39f3363d3d373d3d3d363d730000000000000000000000000061018052602061062460003960005160601b610193527f5af43d82803e903d91602b57fd5bf300000000000000000000000000000000006101a75260366101806000f0801561061257610160527f602d3d8160093d39f3363d3d373d3d3d363d73000000000000000000000000006101a052602061064460003960005160601b6101b3527f5af43d82803e903d91602b57fd5bf300000000000000000000000000000000006101c75260366101a06000f08015610612576101805260016101a052610140516101c0526101405161029b57610180516101c05260006101a0525b6101605163fd5ee0986101e0526101a0604051610200528061022052806102000160605180825260208201818183608060045afa5050508051806020830101601f82600003163682375050601f19601f825160200101169050810190508061024052806102000160c0518082526020820160e051815250508051806020830101601f82600003163682375050601f19601f8251602001011690508101905033610260526101005161028052610120516102a0526064356102c05260206106846000396000516102e05260206106a46000396000516103005260206106c4600039600051610320526101c051610340526101a05161036052610180516103805250803b156106125760006101e06102446101fc6000855af16103c1573d600060003e3d6000fd5b507f602d3d8160093d39f3363d3d373d3d3d363d730000000000000000000000000061020052602061066460003960005160601b610213527f5af43d82803e903d91602b57fd5bf300000000000000000000000000000000006102275260366102006000f08015610612576101e0526101805163be2030946102005261016051610220526101e05161024052608435610260523361028052803b15610612576000610200608461021c6000855af161047e573d600060003e3d6000fd5b506101e05163c4d66de8610200526101805161022052803b15610612576000610200602461021c6000855af16104b9573d600060003e3d6000fd5b506040517fa1de2bb5131ee0bd88e8ab94ac9f5ecf9e9d0bcea61a294eb7df4bf7c222b641610160516102005261018051610220526101e0516102405233610260526080610200a2610160516102005261018051610220526101e051610240526060610200f35b634f2bfe5b8118610547576004361061061257602061062460003960005160405260206040f35b63acc2166a811861056e576004361061061257602061064460003960005160405260206040f35b63397bcd418118610595576004361061061257602061066460003960005160405260206040f35b6338d5464581186105bc576004361061061257602061068460003960005160405260206040f35b639cc9ccb681186105e357600436106106125760206106a460003960005160405260206040f35b6373f43d6d811861060a57600436106106125760206106c460003960005160405260206040f35b505b60006000fd5b600080fda165767970657283000307000b005b600080fd","linkReferences":{}},"methodIdentifiers":{},"id":0}