{"address":"0xAD14D0240C90A2A8E140496EE7A02499387C57C2","bytecode":"0x60e060405234801561001057600080fd5b5060408051808201825260118152702932bbb0b9322234b9ba3934b13aba37b960791b602080830191825283518085019094526001808552603160f81b9185019182529251909120608052915190912060a0527f8b73c3c69bb8fe3d512ecc4cf759cc79239f7b179b0ffacaa9a75d522b39400f60c05260025560805160a05160c051612b476100b660003980611d9e525080611de0525080611dbf5250612b476000f3fe608060405234801561001057600080fd5b50600436106101e55760003560e01c806390193b7c1161010f578063de681faf116100a2578063ed3a088711610071578063ed3a0887146103ea578063f213bd8c146103fd578063f851a44014610410578063fcaa54ee14610418576101e5565b8063de681faf146103a7578063e811f44b146103ba578063ece7514d146103cd578063ed24911d146103e2576101e5565b8063be203094116100de578063be20309414610366578063c2c4c5c114610379578063ca31879d14610381578063d3dc4ca114610394576101e5565b806390193b7c1461031a578063905d10ac1461032d578063a1648aa514610340578063acbc142814610353576101e5565b80634c9a47d8116101875780638050a7ee116101565780638050a7ee146102cc57806382aa5ad4146102df578063876e69a1146102e757806388720467146102fa576101e5565b80634c9a47d8146102805780634f3c50901461029357806375829def146102a65780637b8d6221146102b9576101e5565b8063338b5dea116101c3578063338b5dea1461023d5780633902b9bc14610250578063392e53cd14610263578063397bcd4114610278576101e5565b806308b0308a146101ea57806314866e08146102085780632308805b1461021d575b600080fd5b6101f261042b565b6040516101ff91906127b8565b60405180910390f35b61021b61021636600461248e565b61043f565b005b61023061022b36600461248e565b61045b565b6040516101ff9190612892565b61021b61024b3660046125e0565b61048a565b61021b61025e36600461248e565b610543565b61026b61058e565b6040516101ff9190612887565b6101f2610597565b61021b61028e3660046125e0565b6105a6565b6102306102a1366004612788565b610633565b61021b6102b436600461248e565b610645565b61021b6102c736600461264a565b6106df565b6102306102da3660046125a8565b61087e565b610230610893565b6102306102f536600461248e565b610899565b61030d6103083660046124aa565b6108c4565b6040516101ff919061284f565b61023061032836600461248e565b610a87565b61021b61033b36600461260b565b610aa2565b61026b61034e36600461248e565b610b35565b61023061036136600461248e565b610b53565b61021b6103743660046126cc565b610b7e565b61021b610d45565b61023061038f3660046125a8565b610d5f565b6102306103a23660046125e0565b610e41565b6102306103b53660046125e0565b610e69565b61021b6103c83660046126b2565b610e91565b6103d5610e9b565b6040516101ff919061280e565b610230610efd565b61026b6103f836600461248e565b610f0c565b61021b61040b36600461260b565b610f21565b6101f26110bc565b61021b6104263660046124fc565b6110cb565b60035461010090046001600160a01b031690565b610447611159565b61045081611170565b610458611566565b50565b6001600160a01b0381166000908152600b6020526040902054600160801b90046001600160801b03165b919050565b610492611159565b6001600160a01b0382166000908152600a602052604090205460ff166104d35760405162461bcd60e51b81526004016104ca906128e3565b60405180910390fd5b6104de82600061156d565b6104f36001600160a01b0383163330846118e8565b6104fe82600161156d565b7f95bf5847357310d24f8d03d8bad76c8ee329dfd3a3cb200df21c7bd1619e93bd828260405161052f9291906127f5565b60405180910390a161053f611566565b5050565b61054b611159565b6001600160a01b0381166000908152600a602052604090205460ff166105835760405162461bcd60e51b81526004016104ca906128e3565b61045081600161156d565b60035460ff1681565b6004546001600160a01b031681565b6001600160a01b0382166000908152600a602052604090205460ff166105de5760405162461bcd60e51b81526004016104ca906128e3565b6004546001600160a01b031633146106085760405162461bcd60e51b81526004016104ca9061297b565b61061382600061156d565b6106286001600160a01b0383163330846118e8565b61053f82600161156d565b60009081526007602052604090205490565b6008546001600160a01b0316331461066f5760405162461bcd60e51b81526004016104ca90612ab6565b6001600160a01b0381166106955760405162461bcd60e51b81526004016104ca90612a1c565b600880546001600160a01b0319166001600160a01b0383169081179091556040517f71614071b88dee5e0b2ae578a9dd7b2ebbe9ae832ba419dc0242cd065a290b6c90600090a250565b6106e7611159565b6106f18382611942565b8260005b8181101561086e57600a600087878481811061070d57fe5b9050602002016020810190610722919061248e565b6001600160a01b0316815260208101919091526040016000205460ff1661075b5760405162461bcd60e51b81526004016104ca906128e3565b61078686868381811061076a57fe5b905060200201602081019061077f919061248e565b600061156d565b6107d0333086868581811061079757fe5b905060200201358989868181106107aa57fe5b90506020020160208101906107bf919061248e565b6001600160a01b03169291906118e8565b6107fb8686838181106107df57fe5b90506020020160208101906107f4919061248e565b600161156d565b7f95bf5847357310d24f8d03d8bad76c8ee329dfd3a3cb200df21c7bd1619e93bd86868381811061082857fe5b905060200201602081019061083d919061248e565b85858481811061084957fe5b9050602002013560405161085e9291906127f5565b60405180910390a16001016106f5565b5050610878611566565b50505050565b600061088a838361194f565b90505b92915050565b60065490565b6001600160a01b03166000908152600d6020526040902054600160401b90046001600160401b031690565b60606108ce611159565b836108d8816119cc565b6108e0611a04565b6108e985611170565b826000816001600160401b038111801561090257600080fd5b5060405190808252806020026020018201604052801561092c578160200160208202803683370190505b50905060005b82811015610a7357600a600088888481811061094a57fe5b905060200201602081019061095f919061248e565b6001600160a01b0316815260208101919091526040016000205460ff166109985760405162461bcd60e51b81526004016104ca906128e3565b6109a787878381811061076a57fe5b6109d1888888848181106109b757fe5b90506020020160208101906109cc919061248e565b611b58565b8282815181106109dd57fe5b60209081029190910101526004546001600160a01b031663c7b56abe888884818110610a0557fe5b9050602002016020810190610a1a919061248e565b6040518263ffffffff1660e01b8152600401610a3691906127b8565b600060405180830381600087803b158015610a5057600080fd5b505af1158015610a64573d6000803e3d6000fd5b50505050806001019050610932565b5092505050610a80611566565b9392505050565b6001600160a01b031660009081526020819052604090205490565b610aaa611159565b8060005b81811015610b2b57600a6000858584818110610ac657fe5b9050602002016020810190610adb919061248e565b6001600160a01b0316815260208101919091526040016000205460ff16610b145760405162461bcd60e51b81526004016104ca906128e3565b610b238484838181106107df57fe5b600101610aae565b505061053f611566565b6001600160a01b031660009081526001602052604090205460ff1690565b6001600160a01b03166000908152600b6020526040902054600160401b90046001600160401b031690565b60035460ff1615610ba15760405162461bcd60e51b81526004016104ca9061293c565b6003805460ff191660011790556001600160a01b03811615801590610bce57506001600160a01b03831615155b610bea5760405162461bcd60e51b81526004016104ca9061295c565b600880546001600160a01b038084166001600160a01b0319928316179092556004805486841692169190911790556003805491861661010002610100600160a81b0319909216919091179055610c3f82611d2a565b91506000610c4c42611d2a565b905080831015610c6e5760405162461bcd60e51b81526004016104ca906129e7565b80625c490001831115610c935760405162461bcd60e51b81526004016104ca90612a42565b80831415610d375760405163bd85b03960e01b81526000906001600160a01b0387169063bd85b03990610cca908590600401612892565b60206040518083038186803b158015610ce257600080fd5b505afa158015610cf6573d6000803e3d6000fd5b505050506040513d601f19601f82011682018060405250810190610d1a91906127a0565b11610d375760405162461bcd60e51b81526004016104ca90612a6e565b505060058190556006555050565b610d4d611159565b610d55611a04565b610d5d611566565b565b6000610d69611159565b82610d73816119cc565b6001600160a01b0383166000908152600a602052604090205460ff16610dab5760405162461bcd60e51b81526004016104ca906128e3565b610db3611a04565b610dbc84611170565b610dc783600061156d565b6000610dd38585611b58565b600480546040516363dab55f60e11b81529293506001600160a01b03169163c7b56abe91610e03918891016127b8565b600060405180830381600087803b158015610e1d57600080fd5b505af1158015610e31573d6000803e3d6000fd5b509294505050505061088d611566565b6001600160a01b03919091166000908152600c60209081526040808320938352929052205490565b6001600160a01b03919091166000908152600e60209081526040808320938352929052205490565b6104583382611d36565b60606009805480602002602001604051908101604052809291908181526020018280548015610ef357602002820191906000526020600020905b81546001600160a01b03168152600190910190602001808311610ed5575b5050505050905090565b6000610f07611d9a565b905090565b600a6020526000908152604090205460ff1681565b6008546001600160a01b03163314610f4b5760405162461bcd60e51b81526004016104ca90612ab6565b60005b818110156110b757600a6000848484818110610f6657fe5b9050602002016020810190610f7b919061248e565b6001600160a01b0316815260208101919091526040016000205460ff1615610fb55760405162461bcd60e51b81526004016104ca906128bc565b6001600a6000858585818110610fc757fe5b9050602002016020810190610fdc919061248e565b6001600160a01b031681526020810191909152604001600020805460ff1916911515919091179055600983838381811061101257fe5b9050602002016020810190611027919061248e565b81546001810183556000928352602090922090910180546001600160a01b0319166001600160a01b0390921691909117905582828281811061106557fe5b905060200201602081019061107a919061248e565b6001600160a01b03167f784c8f4dbf0ffedd6e72c76501c545a70f8b203b30a26ce542bf92ba87c248a460405160405180910390a2600101610f4e565b505050565b6008546001600160a01b031681565b60007fbd291ffccec065968fe20c5f8debdad73ab50837733f357eeae8814178015a9084846110f987610a87565b60405160200180858152602001846001600160a01b03168152602001831515815260200182815260200194505050505060405160208183030381529060405280519060200120905061114f8482846101f8611e58565b6108788484611d36565b61116a600280541415610190611e67565b60028055565b60035460405163010ae75760e01b815260009161010090046001600160a01b03169063010ae757906111a69085906004016127b8565b60206040518083038186803b1580156111be57600080fd5b505afa1580156111d2573d6000803e3d6000fd5b505050506040513d601f19601f820116820180604052508101906111f691906127a0565b9050806112035750610458565b6001600160a01b0382166000908152600d6020526040812080549091600160401b9091046001600160401b0316908161124c5761124585600554600087611e75565b9050611289565b42821061125c5750505050610458565b508154600160801b90046001600160801b0316601481850311156112895761128685838387611e75565b90505b80611292575060015b6003546040516328d09d4760e01b815260009161010090046001600160a01b0316906328d09d47906112ca90899086906004016127f5565b60806040518083038186803b1580156112e257600080fd5b505afa1580156112f6573d6000803e3d6000fd5b505050506040513d601f19601f8201168201806040525081019061131a919061271e565b9050826113775760055442116113425760405162461bcd60e51b81526004016104ca906129a0565b61135a6005546113558360400151611f54565b611f64565b845467ffffffffffffffff19166001600160401b03821617855592505b61137f6123f6565b60005b6032811015611519578260400151851015801561139f5750868411155b1561147557600184019350829150868411156113e75760405180608001604052806000600f0b81526020016000600f0b81526020016000815260200160008152509250611470565b6003546040516328d09d4760e01b81526101009091046001600160a01b0316906328d09d479061141d908b9088906004016127f5565b60806040518083038186803b15801561143557600080fd5b505afa158015611449573d6000803e3d6000fd5b505050506040513d601f19601f8201168201806040525081019061146d919061271e565b92505b611511565b42851061148157611519565b6000826040015186039050600081846020015102600f0b8460000151600f0b136114ac5760006114bd565b81846020015102846000015103600f0b5b9050801580156114cc57508886115b156114e3576114da42611f54565b96505050611519565b6001600160a01b038a166000908152600e602090815260408083208a84529091529020555062093a80909401935b600101611382565b505083546001600160801b0316600019929092016001600160401b03908116600160801b029290921767ffffffffffffffff60401b1916600160401b939092169290920217909155505050565b6001600255565b6001600160a01b0382166000908152600b6020526040812080549091600160401b9091046001600160401b031690816115ee574291506115ac42611d2a565b835467ffffffffffffffff19166001600160401b039190911617835560055442116115e95760405162461bcd60e51b81526004016104ca906129a0565b611640565b81420390508361164057600061160383611d2a565b61160c42611d2a565b1490506000620151804261161f42611f54565b0310905081801561162e575080155b1561163d57505050505061053f565b50505b825467ffffffffffffffff60401b1916600160401b426001600160401b0316021783556040516370a0823160e01b81526000906001600160a01b038716906370a08231906116929030906004016127b8565b60206040518083038186803b1580156116aa57600080fd5b505afa1580156116be573d6000803e3d6000fd5b505050506040513d601f19601f820116820180604052508101906116e291906127a0565b8454909150600090611705908390600160801b90046001600160801b0316611f70565b90508061171657505050505061053f565b6001600160801b0382111561173d5760405162461bcd60e51b81526004016104ca90612905565b600061174885611d2a565b6001600160a01b0389166000908152600c602052604081209192509081805b601481101561189f578462093a800193508342101561180a578715801561178d57508842145b1561179a578591506117ab565b878942038702816117a757fe5b0491505b6000858152602084905260409020546001600160801b03906117cd9084611f7e565b1161180557600085815260208490526040902080548301905589546001600160801b03600160801b808304821685018216029116178a555b61189f565b8715801561181757508884145b1561182457859150611835565b8789850387028161183157fe5b0491505b6000858152602084905260409020546001600160801b03906118579084611f7e565b1161188f57600085815260208490526040902080548301905589546001600160801b03600160801b808304821685018216029116178a555b9297508793508392600101611767565b507f9b7f1a85a4c9b4e59e1b6527d9969c50cdfb3a1a467d0c4a51fb0ed8bf07f1308b868a6040516118d39392919061289b565b60405180910390a15050505050505050505050565b604080516001600160a01b0380861660248301528416604482015260648082018490528251808303909101815260849091019091526020810180516001600160e01b03166323b872dd60e01b179052610878908590611f90565b61053f8183146067611e67565b6001600160a01b038083166000908152600f60209081526040808320938516835292905290812054801561198457905061088d565b6001600160a01b038085166000908152600d60209081526040808320549387168352600b9091529020546119c4916001600160401b039081169116611f64565b949350505050565b6001600160a01b03811660009081526001602052604090205460ff161561045857610458336001600160a01b03831614610191611e67565b6006546000611a1242611d2a565b905080821180611a2157504281145b15611a2d575050610d5d565b600360019054906101000a90046001600160a01b03166001600160a01b031663c2c4c5c16040518163ffffffff1660e01b8152600401600060405180830381600087803b158015611a7d57600080fd5b505af1158015611a91573d6000803e3d6000fd5b5050505060005b6014811015611b515781831115611aae57611b51565b60035460405163bd85b03960e01b81526101009091046001600160a01b03169063bd85b03990611ae2908690600401612892565b60206040518083038186803b158015611afa57600080fd5b505afa158015611b0e573d6000803e3d6000fd5b505050506040513d601f19601f82011682018060405250810190611b3291906127a0565b60008481526007602052604090205562093a8090920191600101611a98565b5050600655565b6001600160a01b0381166000908152600b6020526040812081611b7b858561194f565b6006546001600160a01b0387166000908152600d602052604081205492935091611be291611bc291611bbd9190600160401b90046001600160401b031661207a565b611f54565b8454611bdd90600160401b90046001600160401b0316611d2a565b61207a565b6001600160a01b038087166000908152600c60209081526040808320938b168352600e9091528120929350909190805b6014811015611c7e57848610611c2757611c7e565b600086815260076020526040902054611c3f57611c7e565b60008681526007602090815260408083205486835281842054928890529220540281611c6757fe5b62093a809790970196049190910190600101611c12565b506001600160a01b03808a166000908152600f60209081526040808320938c168352929052208590558015611d1e5785546001600160801b03600160801b80830482168490038216029116178655611ce06001600160a01b0389168a83612086565b7fff097c7d8b1957a4ff09ef1361b5fb54dcede3941ba836d0beb9d10bec725de689898388604051611d1594939291906127cc565b60405180910390a15b98975050505050505050565b62093a80908190040290565b6001600160a01b038216600081815260016020908152604091829020805460ff191685151590811790915582519384529083015280517fac9874a7a931a3f5c9f202c6d9cf40de5d21506993c9f9c38ca8265add89584c9281900390910190a15050565b60007f00000000000000000000000000000000000000000000000000000000000000007f00000000000000000000000000000000000000000000000000000000000000007f0000000000000000000000000000000000000000000000000000000000000000611e076120d8565b3060405160200180868152602001858152602001848152602001838152602001826001600160a01b031681526020019550505050505060405160208183030381529060405280519060200120905090565b610878848484600019856120dc565b8161053f5761053f81612133565b60008282825b6080811015611f4857818310611e9057611f48565b6003546040516328d09d4760e01b81526002858501810104916000916101009091046001600160a01b0316906328d09d4790611ed2908d9086906004016127f5565b60806040518083038186803b158015611eea57600080fd5b505afa158015611efe573d6000803e3d6000fd5b505050506040513d601f19601f82011682018060405250810190611f22919061271e565b905088816040015111611f3757819450611f3e565b6001820393505b5050600101611e7b565b50909695505050505050565b600061088d62093a7f8301611d2a565b80820390821002900390565b600061088a83836001612143565b600082820161088a8482101583611e67565b600080836001600160a01b0316836040518082805190602001908083835b60208310611fcd5780518252601f199092019160209182019101611fae565b6001836020036101000a0380198251168184511680821785525050505050509050019150506000604051808303816000865af19150503d806000811461202f576040519150601f19603f3d011682016040523d82523d6000602084013e612034565b606091505b5091509150600082141561204c573d6000803e3d6000fd5b610878815160001480612072575081806020019051602081101561206f57600080fd5b50515b6101a2611e67565b80820390821102900390565b604080516001600160a01b038416602482015260448082018490528251808303909101815260649091019091526020810180516001600160e01b031663a9059cbb60e01b1790526110b7908490611f90565b4690565b60006120e785612159565b90506120fd6120f78783876121a5565b83611e67565b61210c428410156101b8611e67565b5050506001600160a01b039092166000908152602081905260409020805460010190555050565b610458816210905360ea1b6122c3565b60006121528484111583611e67565b5050900390565b6000612163611d9a565b82604051602001808061190160f01b81525060020183815260200182815260200192505050604051602081830303815290604052805190602001209050919050565b60006121b9846001600160a01b0316612324565b156122b15760408051630b135d3f60e11b808252600482018681526024830193845285516044840152855191936001600160a01b03891693631626ba7e938993899390929091606490910190602085019080838360005b83811015612228578181015183820152602001612210565b50505050905090810190601f1680156122555780820380516001836020036101000a031916815260200191505b50935050505060206040518083038186803b15801561227357600080fd5b505afa158015612287573d6000803e3d6000fd5b505050506040513d602081101561229d57600080fd5b50516001600160e01b031916149050610a80565b6122bc84848461232a565b9050610a80565b62461bcd60e51b600090815260206004526007602452600a808404818106603090810160081b958390069590950190829004918206850160101b01602363ffffff0060e086901c160160181b0190930160c81b60445260e882901c90606490fd5b3b151590565b600061233c82516041146101b9611e67565b60008060006020850151925060408501519150606085015160001a9050600060018783868660405160008152602001604052604051808581526020018460ff1681526020018381526020018281526020019450505050506020604051602081039080840390855afa1580156123b5573d6000803e3d6000fd5b5050604051601f1901519150506001600160a01b03811615801590611d1e5750876001600160a01b0316816001600160a01b03161498975050505050505050565b60405180608001604052806000600f0b81526020016000600f0b815260200160008152602001600081525090565b60008083601f840112612435578081fd5b5081356001600160401b0381111561244b578182fd5b602083019150836020808302850101111561246557600080fd5b9250929050565b8035801515811461048557600080fd5b8051600f81900b811461048557600080fd5b60006020828403121561249f578081fd5b813561088a81612afc565b6000806000604084860312156124be578182fd5b83356124c981612afc565b925060208401356001600160401b038111156124e3578283fd5b6124ef86828701612424565b9497909650939450505050565b600080600060608486031215612510578283fd5b833561251b81612afc565b9250602061252a85820161246c565b925060408501356001600160401b0380821115612545578384fd5b818701915087601f830112612558578384fd5b81358181111561256457fe5b612576601f8201601f19168501612ad9565b9150808252888482850101111561258b578485fd5b808484018584013784848284010152508093505050509250925092565b600080604083850312156125ba578182fd5b82356125c581612afc565b915060208301356125d581612afc565b809150509250929050565b600080604083850312156125f2578182fd5b82356125fd81612afc565b946020939093013593505050565b6000806020838503121561261d578182fd5b82356001600160401b03811115612632578283fd5b61263e85828601612424565b90969095509350505050565b6000806000806040858703121561265f578081fd5b84356001600160401b0380821115612675578283fd5b61268188838901612424565b90965094506020870135915080821115612699578283fd5b506126a687828801612424565b95989497509550505050565b6000602082840312156126c3578081fd5b61088a8261246c565b600080600080608085870312156126e1578182fd5b84356126ec81612afc565b935060208501356126fc81612afc565b925060408501359150606085013561271381612afc565b939692955090935050565b60006080828403121561272f578081fd5b604051608081018181106001600160401b038211171561274b57fe5b6040526127578361247c565b81526127656020840161247c565b602082015260408301516040820152606083015160608201528091505092915050565b600060208284031215612799578081fd5b5035919050565b6000602082840312156127b1578081fd5b5051919050565b6001600160a01b0391909116815260200190565b6001600160a01b0394851681529290931660208301526040820152606081019190915260800190565b6001600160a01b03929092168252602082015260400190565b6020808252825182820181905260009190848201906040850190845b81811015611f485783516001600160a01b03168352928401929184019160010161282a565b6020808252825182820181905260009190848201906040850190845b81811015611f485783518352928401929184019160010161286b565b901515815260200190565b90815260200190565b6001600160a01b039390931683526020830191909152604082015260600190565b6020808252600d908201526c185b1c9958591e48195e1a5cdd609a1b604082015260600190565b60208082526008908201526708585b1b1bddd95960c21b604082015260600190565b6020808252601e908201527f4d6178696d756d20746f6b656e2062616c616e63652065786365656465640000604082015260600190565b60208082526006908201526521747769636560d01b604082015260600190565b602080825260059082015264217a65726f60d81b604082015260600190565b6020808252600b908201526a1bdb9b1e4819985d58d95d60aa1b604082015260600190565b60208082526027908201527f52657761726420646973747269627574696f6e20686173206e6f7420737461726040820152661d1959081e595d60ca1b606082015260800190565b6020808252818101527f43616e6e6f74207374617274206265666f72652063757272656e74207765656b604082015260600190565b6020808252600c908201526b7a65726f206164647265737360a01b604082015260600190565b6020808252601290820152710626040eecacad6e640c8cad8c2f240dac2f60731b604082015260600190565b60208082526028908201527f5a65726f20746f74616c20737570706c7920726573756c747320696e206c6f736040820152677420746f6b656e7360c01b606082015260800190565b6020808252600990820152683737ba1030b236b4b760b91b604082015260600190565b6040518181016001600160401b0381118282101715612af457fe5b604052919050565b6001600160a01b038116811461045857600080fdfea2646970667358221220972c2bb8ecdbe63efa080ae50f636a301051bc328845b00b90454df26829a68764736f6c63430007060033","abi":[{"inputs":[],"stateMutability":"nonpayable","type":"constructor"},{"anonymous":false,"inputs":[{"indexed":true,"internalType":"address","name":"newAdmin","type":"address"}],"name":"NewAdmin","type":"event"},{"anonymous":false,"inputs":[{"indexed":false,"internalType":"address","name":"user","type":"address"},{"indexed":false,"internalType":"bool","name":"enabled","type":"bool"}],"name":"OnlyCallerOptIn","type":"event"},{"anonymous":false,"inputs":[{"indexed":false,"internalType":"contract IERC20","name":"token","type":"address"},{"indexed":false,"internalType":"uint256","name":"amount","type":"uint256"}],"name":"RewardDeposit","type":"event"},{"anonymous":false,"inputs":[{"indexed":true,"internalType":"address","name":"token","type":"address"}],"name":"TokenAdded","type":"event"},{"anonymous":false,"inputs":[{"indexed":false,"internalType":"contract IERC20","name":"token","type":"address"},{"indexed":false,"internalType":"uint256","name":"amount","type":"uint256"},{"indexed":false,"internalType":"uint256","name":"lastCheckpointTimestamp","type":"uint256"}],"name":"TokenCheckpointed","type":"event"},{"anonymous":false,"inputs":[{"indexed":false,"internalType":"address","name":"user","type":"address"},{"indexed":false,"internalType":"contract IERC20","name":"token","type":"address"},{"indexed":false,"internalType":"uint256","name":"amount","type":"uint256"},{"indexed":false,"internalType":"uint256","name":"userTokenTimeCursor","type":"uint256"}],"name":"TokensClaimed","type":"event"},{"inputs":[{"internalType":"address[]","name":"tokens","type":"address[]"}],"name":"addAllowedRewardTokens","outputs":[],"stateMutability":"nonpayable","type":"function"},{"inputs":[],"name":"admin","outputs":[{"internalType":"address","name":"","type":"address"}],"stateMutability":"view","type":"function"},{"inputs":[{"internalType":"address","name":"","type":"address"}],"name":"allowedRewardTokens","outputs":[{"internalType":"bool","name":"","type":"bool"}],"stateMutability":"view","type":"function"},{"inputs":[],"name":"checkpoint","outputs":[],"stateMutability":"nonpayable","type":"function"},{"inputs":[{"internalType":"contract IERC20","name":"token","type":"address"}],"name":"checkpointToken","outputs":[],"stateMutability":"nonpayable","type":"function"},{"inputs":[{"internalType":"contract IERC20[]","name":"tokens","type":"address[]"}],"name":"checkpointTokens","outputs":[],"stateMutability":"nonpayable","type":"function"},{"inputs":[{"internalType":"address","name":"user","type":"address"}],"name":"checkpointUser","outputs":[],"stateMutability":"nonpayable","type":"function"},{"inputs":[{"internalType":"address","name":"user","type":"address"},{"internalType":"contract IERC20","name":"token","type":"address"}],"name":"claimToken","outputs":[{"internalType":"uint256","name":"","type":"uint256"}],"stateMutability":"nonpayable","type":"function"},{"inputs":[{"internalType":"address","name":"user","type":"address"},{"internalType":"contract IERC20[]","name":"tokens","type":"address[]"}],"name":"claimTokens","outputs":[{"internalType":"uint256[]","name":"","type":"uint256[]"}],"stateMutability":"nonpayable","type":"function"},{"inputs":[{"internalType":"contract IERC20","name":"token","type":"address"},{"internalType":"uint256","name":"amount","type":"uint256"}],"name":"depositToken","outputs":[],"stateMutability":"nonpayable","type":"function"},{"inputs":[{"internalType":"contract IERC20[]","name":"tokens","type":"address[]"},{"internalType":"uint256[]","name":"amounts","type":"uint256[]"}],"name":"depositTokens","outputs":[],"stateMutability":"nonpayable","type":"function"},{"inputs":[{"internalType":"contract IERC20","name":"token","type":"address"},{"internalType":"uint256","name":"amount","type":"uint256"}],"name":"faucetDepositToken","outputs":[],"stateMutability":"nonpayable","type":"function"},{"inputs":[],"name":"getAllowedRewardTokens","outputs":[{"internalType":"address[]","name":"","type":"address[]"}],"stateMutability":"view","type":"function"},{"inputs":[],"name":"getDomainSeparator","outputs":[{"internalType":"bytes32","name":"","type":"bytes32"}],"stateMutability":"view","type":"function"},{"inputs":[{"internalType":"address","name":"account","type":"address"}],"name":"getNextNonce","outputs":[{"internalType":"uint256","name":"","type":"uint256"}],"stateMutability":"view","type":"function"},{"inputs":[],"name":"getTimeCursor","outputs":[{"internalType":"uint256","name":"","type":"uint256"}],"stateMutability":"view","type":"function"},{"inputs":[{"internalType":"contract IERC20","name":"token","type":"address"}],"name":"getTokenLastBalance","outputs":[{"internalType":"uint256","name":"","type":"uint256"}],"stateMutability":"view","type":"function"},{"inputs":[{"internalType":"contract IERC20","name":"token","type":"address"}],"name":"getTokenTimeCursor","outputs":[{"internalType":"uint256","name":"","type":"uint256"}],"stateMutability":"view","type":"function"},{"inputs":[{"internalType":"contract IERC20","name":"token","type":"address"},{"internalType":"uint256","name":"timestamp","type":"uint256"}],"name":"getTokensDistributedInWeek","outputs":[{"internalType":"uint256","name":"","type":"uint256"}],"stateMutability":"view","type":"function"},{"inputs":[{"internalType":"uint256","name":"timestamp","type":"uint256"}],"name":"getTotalSupplyAtTimestamp","outputs":[{"internalType":"uint256","name":"","type":"uint256"}],"stateMutability":"view","type":"function"},{"inputs":[{"internalType":"address","name":"user","type":"address"},{"internalType":"uint256","name":"timestamp","type":"uint256"}],"name":"getUserBalanceAtTimestamp","outputs":[{"internalType":"uint256","name":"","type":"uint256"}],"stateMutability":"view","type":"function"},{"inputs":[{"internalType":"address","name":"user","type":"address"}],"name":"getUserTimeCursor","outputs":[{"internalType":"uint256","name":"","type":"uint256"}],"stateMutability":"view","type":"function"},{"inputs":[{"internalType":"address","name":"user","type":"address"},{"internalType":"contract IERC20","name":"token","type":"address"}],"name":"getUserTokenTimeCursor","outputs":[{"internalType":"uint256","name":"","type":"uint256"}],"stateMutability":"view","type":"function"},{"inputs":[],"name":"getVotingEscrow","outputs":[{"internalType":"contract IVotingEscrow","name":"","type":"address"}],"stateMutability":"view","type":"function"},{"inputs":[{"internalType":"contract IVotingEscrow","name":"votingEscrow","type":"address"},{"internalType":"contract IRewardFaucet","name":"rewardFaucet_","type":"address"},{"internalType":"uint256","name":"startTime","type":"uint256"},{"internalType":"address","name":"admin_","type":"address"}],"name":"initialize","outputs":[],"stateMutability":"nonpayable","type":"function"},{"inputs":[],"name":"isInitialized","outputs":[{"internalType":"bool","name":"","type":"bool"}],"stateMutability":"view","type":"function"},{"inputs":[{"internalType":"address","name":"user","type":"address"}],"name":"isOnlyCallerEnabled","outputs":[{"internalType":"bool","name":"","type":"bool"}],"stateMutability":"view","type":"function"},{"inputs":[],"name":"rewardFaucet","outputs":[{"internalType":"contract IRewardFaucet","name":"","type":"address"}],"stateMutability":"view","type":"function"},{"inputs":[{"internalType":"bool","name":"enabled","type":"bool"}],"name":"setOnlyCallerCheck","outputs":[],"stateMutability":"nonpayable","type":"function"},{"inputs":[{"internalType":"address","name":"user","type":"address"},{"internalType":"bool","name":"enabled","type":"bool"},{"internalType":"bytes","name":"signature","type":"bytes"}],"name":"setOnlyCallerCheckWithSignature","outputs":[],"stateMutability":"nonpayable","type":"function"},{"inputs":[{"internalType":"address","name":"newAdmin","type":"address"}],"name":"transferAdmin","outputs":[],"stateMutability":"nonpayable","type":"function"}]}