{"abi":[{"type":"constructor","inputs":[{"name":"_token","type":"address","internalType":"address"},{"name":"_votingEscrow","type":"address","internalType":"address"},{"name":"_odosRouter","type":"address","internalType":"address payable"},{"name":"_rewardDistributor","type":"address","internalType":"address"},{"name":"_balToken","type":"address","internalType":"address"},{"name":"_auraToken","type":"address","internalType":"address"}],"stateMutability":"nonpayable"},{"type":"function","name":"AURA","inputs":[],"outputs":[{"name":"","type":"address","internalType":"contract IERC20"}],"stateMutability":"view"},{"type":"function","name":"AutoCompoundRewards","inputs":[{"name":"swapData","type":"bytes","internalType":"bytes"},{"name":"_unlock_time","type":"uint256","internalType":"uint256"},{"name":"_RewardsTokens","type":"address[]","internalType":"address[]"}],"outputs":[],"stateMutability":"nonpayable"},{"type":"function","name":"BAL","inputs":[],"outputs":[{"name":"","type":"address","internalType":"contract IERC20"}],"stateMutability":"view"},{"type":"function","name":"IMOETHBPT","inputs":[],"outputs":[{"name":"","type":"address","internalType":"address"}],"stateMutability":"view"},{"type":"function","name":"acceptOwnership","inputs":[],"outputs":[],"stateMutability":"nonpayable"},{"type":"function","name":"auraBooster","inputs":[],"outputs":[{"name":"","type":"address","internalType":"address"}],"stateMutability":"view"},{"type":"function","name":"getUserImoBalanceFromPool","inputs":[{"name":"BPTbalanceofUser","type":"uint256","internalType":"uint256"}],"outputs":[{"name":"","type":"uint256","internalType":"uint256"}],"stateMutability":"view"},{"type":"function","name":"joinImoPool","inputs":[{"name":"EthAmount","type":"uint256","internalType":"uint256"},{"name":"ImoAmount","type":"uint256","internalType":"uint256"},{"name":"sender","type":"address","internalType":"address"},{"name":"receiver","type":"address","internalType":"address"}],"outputs":[],"stateMutability":"nonpayable"},{"type":"function","name":"joinImoPoolOnlyWeth","inputs":[{"name":"wethAmount","type":"uint256","internalType":"uint256"},{"name":"sender","type":"address","internalType":"address"},{"name":"receiver","type":"address","internalType":"address"}],"outputs":[],"stateMutability":"nonpayable"},{"type":"function","name":"odosRouter","inputs":[],"outputs":[{"name":"","type":"address","internalType":"contract IOdosRouterV2"}],"stateMutability":"view"},{"type":"function","name":"owner","inputs":[],"outputs":[{"name":"","type":"address","internalType":"address"}],"stateMutability":"view"},{"type":"function","name":"pendingOwner","inputs":[],"outputs":[{"name":"","type":"address","internalType":"address"}],"stateMutability":"view"},{"type":"function","name":"removeBalancerAllowance","inputs":[],"outputs":[],"stateMutability":"nonpayable"},{"type":"function","name":"renounceOwnership","inputs":[],"outputs":[],"stateMutability":"nonpayable"},{"type":"function","name":"resetBalancerAllowance","inputs":[],"outputs":[],"stateMutability":"nonpayable"},{"type":"function","name":"rewardDistributor","inputs":[],"outputs":[{"name":"","type":"address","internalType":"contract RewardDistributor"}],"stateMutability":"view"},{"type":"function","name":"setBalancerPoolId","inputs":[{"name":"_poolId","type":"bytes32","internalType":"bytes32"}],"outputs":[],"stateMutability":"nonpayable"},{"type":"function","name":"setBalancerVault","inputs":[{"name":"_vault","type":"address","internalType":"address"}],"outputs":[],"stateMutability":"nonpayable"},{"type":"function","name":"setImoAddress","inputs":[{"name":"_newAddress","type":"address","internalType":"address"}],"outputs":[],"stateMutability":"nonpayable"},{"type":"function","name":"token","inputs":[],"outputs":[{"name":"","type":"address","internalType":"contract IERC20"}],"stateMutability":"view"},{"type":"function","name":"transferOwnership","inputs":[{"name":"newOwner","type":"address","internalType":"address"}],"outputs":[],"stateMutability":"nonpayable"},{"type":"function","name":"votingEscrow","inputs":[],"outputs":[{"name":"","type":"address","internalType":"contract IVotingEscrow"}],"stateMutability":"view"},{"type":"function","name":"zapAndCreateLockFor","inputs":[{"name":"_amount","type":"uint256","internalType":"uint256"},{"name":"_unlock_time","type":"uint256","internalType":"uint256"},{"name":"_recipient","type":"address","internalType":"address"}],"outputs":[],"stateMutability":"nonpayable"},{"type":"function","name":"zapAndDepositForLock","inputs":[{"name":"_amount","type":"uint256","internalType":"uint256"},{"name":"_recipient","type":"address","internalType":"address"}],"outputs":[],"stateMutability":"nonpayable"},{"type":"function","name":"zapAssetsToWethAndStake","inputs":[{"name":"swapData","type":"bytes","internalType":"bytes"},{"name":"_unlock_time","type":"uint256","internalType":"uint256"},{"name":"_recipient","type":"address","internalType":"address"}],"outputs":[],"stateMutability":"nonpayable"},{"type":"event","name":"OwnershipTransferStarted","inputs":[{"name":"previousOwner","type":"address","indexed":true,"internalType":"address"},{"name":"newOwner","type":"address","indexed":true,"internalType":"address"}],"anonymous":false},{"type":"event","name":"OwnershipTransferred","inputs":[{"name":"previousOwner","type":"address","indexed":true,"internalType":"address"},{"name":"newOwner","type":"address","indexed":true,"internalType":"address"}],"anonymous":false},{"type":"event","name":"SetBalancerPoolId","inputs":[{"name":"newPoolId","type":"bytes32","indexed":false,"internalType":"bytes32"}],"anonymous":false},{"type":"event","name":"SetBalancerVault","inputs":[{"name":"newVault","type":"address","indexed":false,"internalType":"address"}],"anonymous":false},{"type":"event","name":"SetImoAddress","inputs":[{"name":"newAddress","type":"address","indexed":false,"internalType":"address"}],"anonymous":false},{"type":"error","name":"ZeroAddress","inputs":[]}],"bytecode":{"object":"0x6080604052600380546001600160a01b0319908116735a7a2bf9ffae199f088b25837dcd7e115cf8e1bb17909155600480548216727bb7a4bfc214df06474e39142288e99540f2b317905560058054821673ba12222222228d8ba445958a75a0704d566bf2c81790557e7bb7a4bfc214df06474e39142288e99540f2b3000200000000000000000191600655600780549091167398ef32edd24e2c92525e59afc4475c1242a3018417905560006008553480156100bb57600080fd5b506040516121b23803806121b28339810160408190526100da916101db565b6100e33361015a565b6001600255600980546001600160a01b03199081166001600160a01b0398891617909155600c8054821696881696909617909555600d8054861694871694909417909355600e8054851692861692909217909155600a80548416918516919091179055600b80549092169216919091179055610262565b600180546001600160a01b031916905561017381610176565b50565b600080546001600160a01b038381166001600160a01b0319831681178455604051919092169283917f8be0079c531659141344cd1fd0a4f28419497f9722a3daafe3b4186f6b6457e09190a35050565b6001600160a01b038116811461017357600080fd5b60008060008060008060c087890312156101f457600080fd5b86516101ff816101c6565b6020880151909650610210816101c6565b6040880151909550610221816101c6565b6060880151909450610232816101c6565b6080880151909350610243816101c6565b60a0880151909250610254816101c6565b809150509295509295509295565b611f41806102716000396000f3fe608060405234801561001057600080fd5b50600436106101735760003560e01c8063acc2166a116100de578063ee7e76d911610097578063f2fde38b11610071578063f2fde38b14610304578063f710038914610317578063f8c464521461032a578063fc0c546a1461033d57600080fd5b8063ee7e76d9146102d6578063ee831e56146102e9578063f05f2436146102fc57600080fd5b8063acc2166a14610263578063beeadf1614610276578063c83e413514610289578063d4524d521461029c578063e30c3978146102bd578063e634b21a146102ce57600080fd5b806379ba50971161013057806379ba5097146101fe5780637c8d37de146102065780638190f2331461021957806381bf829d1461022c5780638321928d1461023f5780638da5cb5b1461025257600080fd5b80632ec6c5b6146101785780633829aea31461018d578063416b16b5146101bd57806346decd2a146101d05780634f2bfe5b146101e3578063715018a6146101f6575b600080fd5b61018b6101863660046117c9565b610350565b005b600b546101a0906001600160a01b031681565b6040516001600160a01b0390911681526020015b60405180910390f35b6004546101a0906001600160a01b031681565b61018b6101de36600461188e565b61048a565b600c546101a0906001600160a01b031681565b61018b6104e7565b61018b6104fb565b61018b6102143660046118ab565b61057a565b61018b6102273660046118e4565b610653565b6007546101a0906001600160a01b031681565b600d546101a0906001600160a01b031681565b6000546001600160a01b03166101a0565b600e546101a0906001600160a01b031681565b600a546101a0906001600160a01b031681565b61018b61029736600461192e565b6107f1565b6102af6102aa36600461192e565b61082e565b6040519081526020016101b4565b6001546001600160a01b03166101a0565b61018b61084f565b61018b6102e4366004611947565b61086c565b61018b6102f736600461199b565b610d0e565b61018b610e38565b61018b61031236600461188e565b610e55565b61018b6103253660046119cb565b610ec6565b61018b61033836600461188e565b611073565b6009546101a0906001600160a01b031681565b60008167ffffffffffffffff81111561036b5761036b611a02565b604051908082528060200260200182016040528015610394578160200160208202803683370190505b50905060005b828110156103fb578383828181106103b4576103b4611a18565b90506020020160208101906103c9919061188e565b8282815181106103db576103db611a18565b6001600160a01b039092166020928302919091019091015260010161039a565b50600e54604051638872046760e01b81526001600160a01b039091169063887204679061042e9033908590600401611a2e565b6000604051808303816000875af115801561044d573d6000803e3d6000fd5b505050506040513d6000823e601f3d908101601f191682016040526104759190810190611b4f565b506104828686863361086c565b505050505050565b6104926110f0565b600380546001600160a01b0319166001600160a01b0383169081179091556040519081527f45c46eb1955b46f6a37722f37e31830803db01eaa7edda7d9b606d6f32897582906020015b60405180910390a150565b6104ef6110f0565b6104f9600061114a565b565b60015433906001600160a01b0316811461056e5760405162461bcd60e51b815260206004820152602960248201527f4f776e61626c6532537465703a2063616c6c6572206973206e6f7420746865206044820152683732bb9037bbb732b960b91b60648201526084015b60405180910390fd5b6105778161114a565b50565b336001600160a01b038216148061059057503330145b6105ac5760405162461bcd60e51b815260040161056590611b8c565b6009546105c4906001600160a01b0316823086611163565b600c546009546105e1916001600160a01b039182169116856111d4565b600c54604051633d535f4160e11b81526001600160a01b038381166004830152602482018690526044820185905290911690637aa6be8290606401600060405180830381600087803b15801561063657600080fd5b505af115801561064a573d6000803e3d6000fd5b50505050505050565b6040805160028082526060820183526000926020830190803683370190505090506006602160991b018160008151811061068f5761068f611a18565b6001600160a01b0392831660209182029290920101526003548251911690829060019081106106c0576106c0611a18565b6001600160a01b03929092166020928302919091018201526040805160028082526060820183526000939192909183019080368337019050509050858160008151811061070f5761070f611a18565b602002602001018181525050848160018151811061072f5761072f611a18565b60209081029190910101526000600182600060405160200161075393929190611c1b565b60408051601f198184030181526080830182528583526020830185905282820181905260016060840152600554600654925163172b958560e31b81529194506001600160a01b03169163b95cac28916107b591908a908a908790600401611c94565b600060405180830381600087803b1580156107cf57600080fd5b505af11580156107e3573d6000803e3d6000fd5b505050505050505050505050565b6107f96110f0565b60068190556040518181527fa3e30156306d040fdb0497ed16d110e0e0ff49e8d37b2b1844e3e4d0d848af03906020016104dc565b6004546000906108499033906001600160a01b0316846112bb565b92915050565b6108576110f0565b6005546104f9906001600160a01b0316611438565b336001600160a01b038216148061088257503330145b61089e5760405162461bcd60e51b815260040161056590611b8c565b6040516370a0823160e01b81526001600160a01b03821660048201526000906006602160991b01906370a0823190602401602060405180830381865afa1580156108ec573d6000803e3d6000fd5b505050506040513d601f19601f820116820180604052508101906109109190611d69565b6040516370a0823160e01b81523060048201529091506000906006602160991b01906370a0823190602401602060405180830381865afa158015610958573d6000803e3d6000fd5b505050506040513d601f19601f8201168201806040525081019061097c9190611d69565b600d5460405191925060009182916001600160a01b03169082906109a3908b908b90611d82565b60006040518083038185875af1925050503d80600081146109e0576040519150601f19603f3d011682016040523d82523d6000602084013e6109e5565b606091505b509150915081610a255760405162461bcd60e51b815260206004820152600b60248201526a14ddd85c0819985a5b195960aa1b6044820152606401610565565b6040516370a0823160e01b81526001600160a01b0386166004820152610ab590309086906006602160991b01906370a0823190602401602060405180830381865afa158015610a78573d6000803e3d6000fd5b505050506040513d601f19601f82011682018060405250810190610a9c9190611d69565b610aa69190611da8565b6006602160991b01919061144c565b6040516370a0823160e01b815230600482015283906006602160991b01906370a0823190602401602060405180830381865afa158015610af9573d6000803e3d6000fd5b505050506040513d601f19601f82011682018060405250810190610b1d9190611d69565b610b279190611da8565b925060008311610b705760405162461bcd60e51b8152602060048201526014602482015273574554482062616c616e6365206973207a65726f60601b6044820152606401610565565b600480546040516370a0823160e01b815230928101929092526000916001600160a01b03909116906370a0823190602401602060405180830381865afa158015610bbe573d6000803e3d6000fd5b505050506040513d601f19601f82011682018060405250810190610be29190611d69565b600554909150610c04906006602160991b01906001600160a01b0316866111d4565b610c0f843030610ec6565b600480546040516370a0823160e01b8152309281019290925282916001600160a01b03909116906370a0823190602401602060405180830381865afa158015610c5c573d6000803e3d6000fd5b505050506040513d601f19601f82011682018060405250810190610c809190611d69565b610c8a9190611da8565b905060008111610cd25760405162461bcd60e51b81526020600482015260136024820152724250542062616c616e6365206973207a65726f60681b6044820152606401610565565b610cdb8161147c565b610ce48661151e565b15610cf857610cf38187610d0e565b610d03565b610d0381888861057a565b505050505050505050565b336001600160a01b0382161480610d2457503330145b610d405760405162461bcd60e51b815260040161056590611b8c565b610d498161151e565b610da15760405162461bcd60e51b815260206004820152602360248201527f4e6f206578697374696e67206c6f636b20666f756e6420666f7220746865207560448201526239b2b960e91b6064820152608401610565565b600954610db9906001600160a01b0316823085611163565b600c54600954610dd6916001600160a01b039182169116846111d4565b600c54604051631d23139f60e11b81526001600160a01b0383811660048301526024820185905290911690633a46273e90604401600060405180830381600087803b158015610e2457600080fd5b505af1158015610482573d6000803e3d6000fd5b610e406110f0565b6005546104f9906001600160a01b0316611597565b610e5d6110f0565b600180546001600160a01b0383166001600160a01b03199091168117909155610e8e6000546001600160a01b031690565b6001600160a01b03167f38d16b8cac22d99fc7c124b9cd0de2d3fa1faef420bfe791d8c362d765e2270060405160405180910390a350565b604080516002808252606082018352600092602083019080368337505060035482519293506001600160a01b031691839150600090610f0757610f07611a18565b60200260200101906001600160a01b031690816001600160a01b0316815250506006602160991b0181600181518110610f4257610f42611a18565b6001600160a01b03929092166020928302919091018201526040805160028082526060820183526000939192909183019080368337019050509050600081600081518110610f9257610f92611a18565b6020026020010181815250508481600181518110610fb257610fb2611a18565b602090810291909101015260006001826000604051602001610fd693929190611c1b565b60408051601f198184030181526080830182528583526020830185905282820181905260006060840152600554600654925163172b958560e31b81529194506001600160a01b03169163b95cac289161103891908a908a908790600401611c94565b600060405180830381600087803b15801561105257600080fd5b505af1158015611066573d6000803e3d6000fd5b5050505050505050505050565b61107b6110f0565b6001600160a01b0381166110a25760405163d92e233d60e01b815260040160405180910390fd5b600580546001600160a01b0319166001600160a01b0383169081179091556040519081527ffdfe548aa3dcee9e1afd9748ce2a57b579994c3d33f8e82501c60accfdf58bd3906020016104dc565b6000546001600160a01b031633146104f95760405162461bcd60e51b815260206004820181905260248201527f4f776e61626c653a2063616c6c6572206973206e6f7420746865206f776e65726044820152606401610565565b600180546001600160a01b0319169055610577816115aa565b6040516001600160a01b03808516602483015283166044820152606481018290526111ce9085906323b872dd60e01b906084015b60408051601f198184030181529190526020810180516001600160e01b03166001600160e01b0319909316929092179091526115fa565b50505050565b80158015906112515750604051636eb1769f60e11b81523060048201526001600160a01b03838116602483015284169063dd62ed3e90604401602060405180830381865afa15801561122a573d6000803e3d6000fd5b505050506040513d601f19601f8201168201806040525081019061124e9190611d69565b15155b15611286576040516001600160a01b03831660248201526000604482015261128690849063095ea7b360e01b90606401611197565b6040516001600160a01b0383166024820152604481018290526112b690849063095ea7b360e01b90606401611197565b505050565b600080836001600160a01b03166318160ddd6040518163ffffffff1660e01b8152600401602060405180830381865afa1580156112fc573d6000803e3d6000fd5b505050506040513d601f19601f820116820180604052508101906113209190611d69565b600554600654604051631f29a8cd60e31b8152600481019190915291925060009182916001600160a01b03169063f94d466890602401600060405180830381865afa158015611373573d6000803e3d6000fd5b505050506040513d6000823e601f3d908101601f1916820160405261139b9190810190611dbb565b509150915060005b82518110156114285760035483516001600160a01b03909116908490839081106113cf576113cf611a18565b60200260200101516001600160a01b0316036114205783868383815181106113f9576113f9611a18565b602002602001015161140b9190611e94565b6114159190611eab565b945050505050611431565b6001016113a3565b50600093505050505b9392505050565b6105776006602160991b0182600019611696565b6040516001600160a01b0383166024820152604481018290526112b690849063a9059cbb60e01b90606401611197565b600754600454611499916001600160a01b03918216911683611696565b6007546008546040516321d0683360e11b8152600481019190915260248101839052600160448201526001600160a01b03909116906343a0d066906064016020604051808303816000875af11580156114f6573d6000803e3d6000fd5b505050506040513d601f19601f8201168201806040525081019061151a9190611ecd565b5050565b600c5460405163adc6358960e01b81526001600160a01b038381166004830152600092429291169063adc6358990602401602060405180830381865afa15801561156c573d6000803e3d6000fd5b505050506040513d601f19601f820116820180604052508101906115909190611d69565b1192915050565b6105776006602160991b01826000611696565b600080546001600160a01b038381166001600160a01b0319831681178455604051919092169283917f8be0079c531659141344cd1fd0a4f28419497f9722a3daafe3b4186f6b6457e09190a35050565b600080836001600160a01b0316836040516116159190611eef565b6000604051808303816000865af19150503d8060008114611652576040519150601f19603f3d011682016040523d82523d6000602084013e611657565b606091505b5090925090508161166c573d6000803e3d6000fd5b6111ce81516000148061168e57508180602001905181019061168e9190611ecd565b6101a2611716565b600060405163095ea7b360e01b81526001600160a01b0384166004820152826024820152602060006044836000895af13d15601f3d11600160005114161716915050806111ce5760405162461bcd60e51b815260206004820152600e60248201526d1054141493d59157d1905253115160921b6044820152606401610565565b8161151a5762461bcd60e51b600090815260206004526007602452600a808304818106603090810160081b83860601918390049283060160101b016642414c230000300160c81b604481905261151a9284926105779290916210905360ea1b916242414c91606490fd5b60008083601f84011261179257600080fd5b50813567ffffffffffffffff8111156117aa57600080fd5b6020830191508360208285010111156117c257600080fd5b9250929050565b6000806000806000606086880312156117e157600080fd5b853567ffffffffffffffff8111156117f857600080fd5b61180488828901611780565b90965094505060208601359250604086013567ffffffffffffffff81111561182b57600080fd5b8601601f8101881361183c57600080fd5b803567ffffffffffffffff81111561185357600080fd5b8860208260051b840101111561186857600080fd5b959894975092955050506020019190565b6001600160a01b038116811461057757600080fd5b6000602082840312156118a057600080fd5b813561143181611879565b6000806000606084860312156118c057600080fd5b833592506020840135915060408401356118d981611879565b809150509250925092565b600080600080608085870312156118fa57600080fd5b8435935060208501359250604085013561191381611879565b9150606085013561192381611879565b939692955090935050565b60006020828403121561194057600080fd5b5035919050565b6000806000806060858703121561195d57600080fd5b843567ffffffffffffffff81111561197457600080fd5b61198087828801611780565b90955093505060208501359150604085013561192381611879565b600080604083850312156119ae57600080fd5b8235915060208301356119c081611879565b809150509250929050565b6000806000606084860312156119e057600080fd5b8335925060208401356119f281611879565b915060408401356118d981611879565b634e487b7160e01b600052604160045260246000fd5b634e487b7160e01b600052603260045260246000fd5b6001600160a01b0383168152604060208083018290528351918301829052600091908401906060840190835b81811015611a815783516001600160a01b0316835260209384019390920191600101611a5a565b50909695505050505050565b604051601f8201601f1916810167ffffffffffffffff81118282101715611ab657611ab6611a02565b604052919050565b600067ffffffffffffffff821115611ad857611ad8611a02565b5060051b60200190565b600082601f830112611af357600080fd5b8151611b06611b0182611abe565b611a8d565b8082825260208201915060208360051b860101925085831115611b2857600080fd5b602085015b83811015611b45578051835260209283019201611b2d565b5095945050505050565b600060208284031215611b6157600080fd5b815167ffffffffffffffff811115611b7857600080fd5b611b8484828501611ae2565b949350505050565b60208082526033908201527f4f6e6c79205a6170706572206f722074686520726563697069656e742063616e6040820152721031b0b636103a3434b990333ab731ba34b7b760691b606082015260800190565b600081518084526020840193506020830160005b82811015611c11578151865260209586019590910190600101611bf3565b5093949350505050565b838152606060208201526000611c346060830185611bdf565b9050826040830152949350505050565b60005b83811015611c5f578181015183820152602001611c47565b50506000910152565b60008151808452611c80816020860160208601611c44565b601f01601f19169290920160200192915050565b8481526001600160a01b03848116602080840191909152908416604083015260806060830181905283518184019190915280516101008401819052600092919091019082906101208501905b80831015611d0b5783516001600160a01b031682526020938401936001939093019290910190611ce0565b506020860151858203607f190160a08701529250611d298184611bdf565b925050506040840151607f198483030160c0850152611d488282611c68565b9150506060840151611d5e60e085018215159052565b509695505050505050565b600060208284031215611d7b57600080fd5b5051919050565b8183823760009101908152919050565b634e487b7160e01b600052601160045260246000fd5b8181038181111561084957610849611d92565b600080600060608486031215611dd057600080fd5b835167ffffffffffffffff811115611de757600080fd5b8401601f81018613611df857600080fd5b8051611e06611b0182611abe565b8082825260208201915060208360051b850101925088831115611e2857600080fd5b6020840193505b82841015611e53578351611e4281611879565b825260209384019390910190611e2f565b80965050505050602084015167ffffffffffffffff811115611e7457600080fd5b611e8086828701611ae2565b604095909501519396949550929392505050565b808202811582820484141761084957610849611d92565b600082611ec857634e487b7160e01b600052601260045260246000fd5b500490565b600060208284031215611edf57600080fd5b8151801515811461143157600080fd5b60008251611f01818460208701611c44565b919091019291505056fea26469706673582212201bf4ee439e5f6e4e90e400f3a40472ede822154081eeccf503c67540f7ca18b064736f6c634300081a0033","linkReferences":{}},"methodIdentifiers":{"AURA()":"3829aea3","AutoCompoundRewards(bytes,uint256,address[])":"2ec6c5b6","BAL()":"beeadf16","IMOETHBPT()":"416b16b5","acceptOwnership()":"79ba5097","auraBooster()":"81bf829d","getUserImoBalanceFromPool(uint256)":"d4524d52","joinImoPool(uint256,uint256,address,address)":"8190f233","joinImoPoolOnlyWeth(uint256,address,address)":"f7100389","odosRouter()":"8321928d","owner()":"8da5cb5b","pendingOwner()":"e30c3978","removeBalancerAllowance()":"f05f2436","renounceOwnership()":"715018a6","resetBalancerAllowance()":"e634b21a","rewardDistributor()":"acc2166a","setBalancerPoolId(bytes32)":"c83e4135","setBalancerVault(address)":"f8c46452","setImoAddress(address)":"46decd2a","token()":"fc0c546a","transferOwnership(address)":"f2fde38b","votingEscrow()":"4f2bfe5b","zapAndCreateLockFor(uint256,uint256,address)":"7c8d37de","zapAndDepositForLock(uint256,address)":"ee831e56","zapAssetsToWethAndStake(bytes,uint256,address)":"ee7e76d9"},"id":2}