{"abi":[{"type":"constructor","inputs":[{"name":"_token","type":"address","internalType":"address"},{"name":"_votingEscrow","type":"address","internalType":"address"},{"name":"_odosRouter","type":"address","internalType":"address payable"},{"name":"_rewardDistributor","type":"address","internalType":"address"},{"name":"_balToken","type":"address","internalType":"address"},{"name":"_auraToken","type":"address","internalType":"address"}],"stateMutability":"nonpayable"},{"type":"function","name":"AURA","inputs":[],"outputs":[{"name":"","type":"address","internalType":"contract IERC20"}],"stateMutability":"view"},{"type":"function","name":"AutoCompoundRewards","inputs":[{"name":"swapData","type":"bytes","internalType":"bytes"},{"name":"_unlock_time","type":"uint256","internalType":"uint256"},{"name":"_RewardsTokens","type":"address[]","internalType":"address[]"}],"outputs":[],"stateMutability":"nonpayable"},{"type":"function","name":"BAL","inputs":[],"outputs":[{"name":"","type":"address","internalType":"contract IERC20"}],"stateMutability":"view"},{"type":"function","name":"IMOETHBPT","inputs":[],"outputs":[{"name":"","type":"address","internalType":"address"}],"stateMutability":"view"},{"type":"function","name":"acceptOwnership","inputs":[],"outputs":[],"stateMutability":"nonpayable"},{"type":"function","name":"auraBooster","inputs":[],"outputs":[{"name":"","type":"address","internalType":"address"}],"stateMutability":"view"},{"type":"function","name":"getUserImoBalanceFromPool","inputs":[{"name":"BPTbalanceofUser","type":"uint256","internalType":"uint256"}],"outputs":[{"name":"","type":"uint256","internalType":"uint256"}],"stateMutability":"view"},{"type":"function","name":"joinImoPool","inputs":[{"name":"EthAmount","type":"uint256","internalType":"uint256"},{"name":"ImoAmount","type":"uint256","internalType":"uint256"},{"name":"sender","type":"address","internalType":"address"},{"name":"receiver","type":"address","internalType":"address"}],"outputs":[],"stateMutability":"nonpayable"},{"type":"function","name":"joinImoPoolOnlyWeth","inputs":[{"name":"wethAmount","type":"uint256","internalType":"uint256"},{"name":"sender","type":"address","internalType":"address"},{"name":"receiver","type":"address","internalType":"address"}],"outputs":[],"stateMutability":"nonpayable"},{"type":"function","name":"odosRouter","inputs":[],"outputs":[{"name":"","type":"address","internalType":"contract IOdosRouterV2"}],"stateMutability":"view"},{"type":"function","name":"owner","inputs":[],"outputs":[{"name":"","type":"address","internalType":"address"}],"stateMutability":"view"},{"type":"function","name":"pendingOwner","inputs":[],"outputs":[{"name":"","type":"address","internalType":"address"}],"stateMutability":"view"},{"type":"function","name":"removeBalancerAllowance","inputs":[],"outputs":[],"stateMutability":"nonpayable"},{"type":"function","name":"renounceOwnership","inputs":[],"outputs":[],"stateMutability":"nonpayable"},{"type":"function","name":"resetBalancerAllowance","inputs":[],"outputs":[],"stateMutability":"nonpayable"},{"type":"function","name":"rewardDistributor","inputs":[],"outputs":[{"name":"","type":"address","internalType":"contract RewardDistributor"}],"stateMutability":"view"},{"type":"function","name":"setBalancerPoolId","inputs":[{"name":"_poolId","type":"bytes32","internalType":"bytes32"}],"outputs":[],"stateMutability":"nonpayable"},{"type":"function","name":"setBalancerVault","inputs":[{"name":"_vault","type":"address","internalType":"address"}],"outputs":[],"stateMutability":"nonpayable"},{"type":"function","name":"setImoAddress","inputs":[{"name":"_newAddress","type":"address","internalType":"address"}],"outputs":[],"stateMutability":"nonpayable"},{"type":"function","name":"token","inputs":[],"outputs":[{"name":"","type":"address","internalType":"contract IERC20"}],"stateMutability":"view"},{"type":"function","name":"transferOwnership","inputs":[{"name":"newOwner","type":"address","internalType":"address"}],"outputs":[],"stateMutability":"nonpayable"},{"type":"function","name":"votingEscrow","inputs":[],"outputs":[{"name":"","type":"address","internalType":"contract IVotingEscrow"}],"stateMutability":"view"},{"type":"function","name":"zapAndCreateLockFor","inputs":[{"name":"_amount","type":"uint256","internalType":"uint256"},{"name":"_unlock_time","type":"uint256","internalType":"uint256"},{"name":"_recipient","type":"address","internalType":"address"}],"outputs":[],"stateMutability":"nonpayable"},{"type":"function","name":"zapAndDepositForLock","inputs":[{"name":"_amount","type":"uint256","internalType":"uint256"},{"name":"_recipient","type":"address","internalType":"address"}],"outputs":[],"stateMutability":"nonpayable"},{"type":"function","name":"zapAssetsToWethAndStake","inputs":[{"name":"swapData","type":"bytes","internalType":"bytes"},{"name":"_unlock_time","type":"uint256","internalType":"uint256"},{"name":"_recipient","type":"address","internalType":"address"}],"outputs":[],"stateMutability":"nonpayable"},{"type":"event","name":"OwnershipTransferStarted","inputs":[{"name":"previousOwner","type":"address","indexed":true,"internalType":"address"},{"name":"newOwner","type":"address","indexed":true,"internalType":"address"}],"anonymous":false},{"type":"event","name":"OwnershipTransferred","inputs":[{"name":"previousOwner","type":"address","indexed":true,"internalType":"address"},{"name":"newOwner","type":"address","indexed":true,"internalType":"address"}],"anonymous":false},{"type":"event","name":"SetBalancerPoolId","inputs":[{"name":"newPoolId","type":"bytes32","indexed":false,"internalType":"bytes32"}],"anonymous":false},{"type":"event","name":"SetBalancerVault","inputs":[{"name":"newVault","type":"address","indexed":false,"internalType":"address"}],"anonymous":false},{"type":"event","name":"SetImoAddress","inputs":[{"name":"newAddress","type":"address","indexed":false,"internalType":"address"}],"anonymous":false},{"type":"error","name":"OwnableInvalidOwner","inputs":[{"name":"owner","type":"address","internalType":"address"}]},{"type":"error","name":"OwnableUnauthorizedAccount","inputs":[{"name":"account","type":"address","internalType":"address"}]},{"type":"error","name":"ReentrancyGuardReentrantCall","inputs":[]},{"type":"error","name":"ZeroAddress","inputs":[]}],"bytecode":{"object":"0x6080604052600380546001600160a01b0319908116735a7a2bf9ffae199f088b25837dcd7e115cf8e1bb17909155600480548216727bb7a4bfc214df06474e39142288e99540f2b317905560058054821673ba12222222228d8ba445958a75a0704d566bf2c81790557e7bb7a4bfc214df06474e39142288e99540f2b3000200000000000000000191600655600780549091167398ef32edd24e2c92525e59afc4475c1242a3018417905560006008553480156100bb57600080fd5b506040516121763803806121768339810160408190526100da91610202565b338061010057604051631e4fbdf760e01b81526000600482015260240160405180910390fd5b61010981610181565b506001600255600980546001600160a01b03199081166001600160a01b0398891617909155600c8054821696881696909617909555600d8054861694871694909417909355600e8054851692861692909217909155600a80548416918516919091179055600b80549092169216919091179055610289565b600180546001600160a01b031916905561019a8161019d565b50565b600080546001600160a01b038381166001600160a01b0319831681178455604051919092169283917f8be0079c531659141344cd1fd0a4f28419497f9722a3daafe3b4186f6b6457e09190a35050565b6001600160a01b038116811461019a57600080fd5b60008060008060008060c0878903121561021b57600080fd5b8651610226816101ed565b6020880151909650610237816101ed565b6040880151909550610248816101ed565b6060880151909450610259816101ed565b608088015190935061026a816101ed565b60a088015190925061027b816101ed565b809150509295509295509295565b611ede806102986000396000f3fe608060405234801561001057600080fd5b50600436106101735760003560e01c8063acc2166a116100de578063ee7e76d911610097578063f2fde38b11610071578063f2fde38b14610304578063f710038914610317578063f8c464521461032a578063fc0c546a1461033d57600080fd5b8063ee7e76d9146102d6578063ee831e56146102e9578063f05f2436146102fc57600080fd5b8063acc2166a14610263578063beeadf1614610276578063c83e413514610289578063d4524d521461029c578063e30c3978146102bd578063e634b21a146102ce57600080fd5b806379ba50971161013057806379ba5097146101fe5780637c8d37de146102065780638190f2331461021957806381bf829d1461022c5780638321928d1461023f5780638da5cb5b1461025257600080fd5b80632ec6c5b6146101785780633829aea31461018d578063416b16b5146101bd57806346decd2a146101d05780634f2bfe5b146101e3578063715018a6146101f6575b600080fd5b61018b610186366004611766565b610350565b005b600b546101a0906001600160a01b031681565b6040516001600160a01b0390911681526020015b60405180910390f35b6004546101a0906001600160a01b031681565b61018b6101de36600461182b565b61048a565b600c546101a0906001600160a01b031681565b61018b6104e7565b61018b6104fb565b61018b610214366004611848565b610544565b61018b610227366004611881565b61061d565b6007546101a0906001600160a01b031681565b600d546101a0906001600160a01b031681565b6000546001600160a01b03166101a0565b600e546101a0906001600160a01b031681565b600a546101a0906001600160a01b031681565b61018b6102973660046118cb565b6107bb565b6102af6102aa3660046118cb565b6107f8565b6040519081526020016101b4565b6001546001600160a01b03166101a0565b61018b610819565b61018b6102e43660046118e4565b610836565b61018b6102f7366004611938565b610cd8565b61018b610e02565b61018b61031236600461182b565b610e1f565b61018b610325366004611968565b610e90565b61018b61033836600461182b565b61103d565b6009546101a0906001600160a01b031681565b60008167ffffffffffffffff81111561036b5761036b61199f565b604051908082528060200260200182016040528015610394578160200160208202803683370190505b50905060005b828110156103fb578383828181106103b4576103b46119b5565b90506020020160208101906103c9919061182b565b8282815181106103db576103db6119b5565b6001600160a01b039092166020928302919091019091015260010161039a565b50600e54604051638872046760e01b81526001600160a01b039091169063887204679061042e90339085906004016119cb565b6000604051808303816000875af115801561044d573d6000803e3d6000fd5b505050506040513d6000823e601f3d908101601f191682016040526104759190810190611aec565b5061048286868633610836565b505050505050565b6104926110ba565b600380546001600160a01b0319166001600160a01b0383169081179091556040519081527f45c46eb1955b46f6a37722f37e31830803db01eaa7edda7d9b606d6f32897582906020015b60405180910390a150565b6104ef6110ba565b6104f960006110e7565b565b60015433906001600160a01b031681146105385760405163118cdaa760e01b81526001600160a01b03821660048201526024015b60405180910390fd5b610541816110e7565b50565b336001600160a01b038216148061055a57503330145b6105765760405162461bcd60e51b815260040161052f90611b29565b60095461058e906001600160a01b0316823086611100565b600c546009546105ab916001600160a01b03918216911685611171565b600c54604051633d535f4160e11b81526001600160a01b038381166004830152602482018690526044820185905290911690637aa6be8290606401600060405180830381600087803b15801561060057600080fd5b505af1158015610614573d6000803e3d6000fd5b50505050505050565b6040805160028082526060820183526000926020830190803683370190505090506006602160991b0181600081518110610659576106596119b5565b6001600160a01b03928316602091820292909201015260035482519116908290600190811061068a5761068a6119b5565b6001600160a01b0392909216602092830291909101820152604080516002808252606082018352600093919290918301908036833701905050905085816000815181106106d9576106d96119b5565b60200260200101818152505084816001815181106106f9576106f96119b5565b60209081029190910101526000600182600060405160200161071d93929190611bb8565b60408051601f198184030181526080830182528583526020830185905282820181905260016060840152600554600654925163172b958560e31b81529194506001600160a01b03169163b95cac289161077f91908a908a908790600401611c31565b600060405180830381600087803b15801561079957600080fd5b505af11580156107ad573d6000803e3d6000fd5b505050505050505050505050565b6107c36110ba565b60068190556040518181527fa3e30156306d040fdb0497ed16d110e0e0ff49e8d37b2b1844e3e4d0d848af03906020016104dc565b6004546000906108139033906001600160a01b031684611258565b92915050565b6108216110ba565b6005546104f9906001600160a01b03166113d5565b336001600160a01b038216148061084c57503330145b6108685760405162461bcd60e51b815260040161052f90611b29565b6040516370a0823160e01b81526001600160a01b03821660048201526000906006602160991b01906370a0823190602401602060405180830381865afa1580156108b6573d6000803e3d6000fd5b505050506040513d601f19601f820116820180604052508101906108da9190611d06565b6040516370a0823160e01b81523060048201529091506000906006602160991b01906370a0823190602401602060405180830381865afa158015610922573d6000803e3d6000fd5b505050506040513d601f19601f820116820180604052508101906109469190611d06565b600d5460405191925060009182916001600160a01b031690829061096d908b908b90611d1f565b60006040518083038185875af1925050503d80600081146109aa576040519150601f19603f3d011682016040523d82523d6000602084013e6109af565b606091505b5091509150816109ef5760405162461bcd60e51b815260206004820152600b60248201526a14ddd85c0819985a5b195960aa1b604482015260640161052f565b6040516370a0823160e01b81526001600160a01b0386166004820152610a7f90309086906006602160991b01906370a0823190602401602060405180830381865afa158015610a42573d6000803e3d6000fd5b505050506040513d601f19601f82011682018060405250810190610a669190611d06565b610a709190611d45565b6006602160991b0191906113e9565b6040516370a0823160e01b815230600482015283906006602160991b01906370a0823190602401602060405180830381865afa158015610ac3573d6000803e3d6000fd5b505050506040513d601f19601f82011682018060405250810190610ae79190611d06565b610af19190611d45565b925060008311610b3a5760405162461bcd60e51b8152602060048201526014602482015273574554482062616c616e6365206973207a65726f60601b604482015260640161052f565b600480546040516370a0823160e01b815230928101929092526000916001600160a01b03909116906370a0823190602401602060405180830381865afa158015610b88573d6000803e3d6000fd5b505050506040513d601f19601f82011682018060405250810190610bac9190611d06565b600554909150610bce906006602160991b01906001600160a01b031686611171565b610bd9843030610e90565b600480546040516370a0823160e01b8152309281019290925282916001600160a01b03909116906370a0823190602401602060405180830381865afa158015610c26573d6000803e3d6000fd5b505050506040513d601f19601f82011682018060405250810190610c4a9190611d06565b610c549190611d45565b905060008111610c9c5760405162461bcd60e51b81526020600482015260136024820152724250542062616c616e6365206973207a65726f60681b604482015260640161052f565b610ca581611419565b610cae866114bb565b15610cc257610cbd8187610cd8565b610ccd565b610ccd818888610544565b505050505050505050565b336001600160a01b0382161480610cee57503330145b610d0a5760405162461bcd60e51b815260040161052f90611b29565b610d13816114bb565b610d6b5760405162461bcd60e51b815260206004820152602360248201527f4e6f206578697374696e67206c6f636b20666f756e6420666f7220746865207560448201526239b2b960e91b606482015260840161052f565b600954610d83906001600160a01b0316823085611100565b600c54600954610da0916001600160a01b03918216911684611171565b600c54604051631d23139f60e11b81526001600160a01b0383811660048301526024820185905290911690633a46273e90604401600060405180830381600087803b158015610dee57600080fd5b505af1158015610482573d6000803e3d6000fd5b610e0a6110ba565b6005546104f9906001600160a01b0316611534565b610e276110ba565b600180546001600160a01b0383166001600160a01b03199091168117909155610e586000546001600160a01b031690565b6001600160a01b03167f38d16b8cac22d99fc7c124b9cd0de2d3fa1faef420bfe791d8c362d765e2270060405160405180910390a350565b604080516002808252606082018352600092602083019080368337505060035482519293506001600160a01b031691839150600090610ed157610ed16119b5565b60200260200101906001600160a01b031690816001600160a01b0316815250506006602160991b0181600181518110610f0c57610f0c6119b5565b6001600160a01b03929092166020928302919091018201526040805160028082526060820183526000939192909183019080368337019050509050600081600081518110610f5c57610f5c6119b5565b6020026020010181815250508481600181518110610f7c57610f7c6119b5565b602090810291909101015260006001826000604051602001610fa093929190611bb8565b60408051601f198184030181526080830182528583526020830185905282820181905260006060840152600554600654925163172b958560e31b81529194506001600160a01b03169163b95cac289161100291908a908a908790600401611c31565b600060405180830381600087803b15801561101c57600080fd5b505af1158015611030573d6000803e3d6000fd5b5050505050505050505050565b6110456110ba565b6001600160a01b03811661106c5760405163d92e233d60e01b815260040160405180910390fd5b600580546001600160a01b0319166001600160a01b0383169081179091556040519081527ffdfe548aa3dcee9e1afd9748ce2a57b579994c3d33f8e82501c60accfdf58bd3906020016104dc565b6000546001600160a01b031633146104f95760405163118cdaa760e01b815233600482015260240161052f565b600180546001600160a01b031916905561054181611547565b6040516001600160a01b038085166024830152831660448201526064810182905261116b9085906323b872dd60e01b906084015b60408051601f198184030181529190526020810180516001600160e01b03166001600160e01b031990931692909217909152611597565b50505050565b80158015906111ee5750604051636eb1769f60e11b81523060048201526001600160a01b03838116602483015284169063dd62ed3e90604401602060405180830381865afa1580156111c7573d6000803e3d6000fd5b505050506040513d601f19601f820116820180604052508101906111eb9190611d06565b15155b15611223576040516001600160a01b03831660248201526000604482015261122390849063095ea7b360e01b90606401611134565b6040516001600160a01b03831660248201526044810182905261125390849063095ea7b360e01b90606401611134565b505050565b600080836001600160a01b03166318160ddd6040518163ffffffff1660e01b8152600401602060405180830381865afa158015611299573d6000803e3d6000fd5b505050506040513d601f19601f820116820180604052508101906112bd9190611d06565b600554600654604051631f29a8cd60e31b8152600481019190915291925060009182916001600160a01b03169063f94d466890602401600060405180830381865afa158015611310573d6000803e3d6000fd5b505050506040513d6000823e601f3d908101601f191682016040526113389190810190611d58565b509150915060005b82518110156113c55760035483516001600160a01b039091169084908390811061136c5761136c6119b5565b60200260200101516001600160a01b0316036113bd578386838381518110611396576113966119b5565b60200260200101516113a89190611e31565b6113b29190611e48565b9450505050506113ce565b600101611340565b50600093505050505b9392505050565b6105416006602160991b0182600019611633565b6040516001600160a01b03831660248201526044810182905261125390849063a9059cbb60e01b90606401611134565b600754600454611436916001600160a01b03918216911683611633565b6007546008546040516321d0683360e11b8152600481019190915260248101839052600160448201526001600160a01b03909116906343a0d066906064016020604051808303816000875af1158015611493573d6000803e3d6000fd5b505050506040513d601f19601f820116820180604052508101906114b79190611e6a565b5050565b600c5460405163adc6358960e01b81526001600160a01b038381166004830152600092429291169063adc6358990602401602060405180830381865afa158015611509573d6000803e3d6000fd5b505050506040513d601f19601f8201168201806040525081019061152d9190611d06565b1192915050565b6105416006602160991b01826000611633565b600080546001600160a01b038381166001600160a01b0319831681178455604051919092169283917f8be0079c531659141344cd1fd0a4f28419497f9722a3daafe3b4186f6b6457e09190a35050565b600080836001600160a01b0316836040516115b29190611e8c565b6000604051808303816000865af19150503d80600081146115ef576040519150601f19603f3d011682016040523d82523d6000602084013e6115f4565b606091505b50909250905081611609573d6000803e3d6000fd5b61116b81516000148061162b57508180602001905181019061162b9190611e6a565b6101a26116b3565b600060405163095ea7b360e01b81526001600160a01b0384166004820152826024820152602060006044836000895af13d15601f3d116001600051141617169150508061116b5760405162461bcd60e51b815260206004820152600e60248201526d1054141493d59157d1905253115160921b604482015260640161052f565b816114b75762461bcd60e51b600090815260206004526007602452600a808304818106603090810160081b83860601918390049283060160101b016642414c230000300160c81b60448190526114b79284926105419290916210905360ea1b916242414c91606490fd5b60008083601f84011261172f57600080fd5b50813567ffffffffffffffff81111561174757600080fd5b60208301915083602082850101111561175f57600080fd5b9250929050565b60008060008060006060868803121561177e57600080fd5b853567ffffffffffffffff81111561179557600080fd5b6117a18882890161171d565b90965094505060208601359250604086013567ffffffffffffffff8111156117c857600080fd5b8601601f810188136117d957600080fd5b803567ffffffffffffffff8111156117f057600080fd5b8860208260051b840101111561180557600080fd5b959894975092955050506020019190565b6001600160a01b038116811461054157600080fd5b60006020828403121561183d57600080fd5b81356113ce81611816565b60008060006060848603121561185d57600080fd5b8335925060208401359150604084013561187681611816565b809150509250925092565b6000806000806080858703121561189757600080fd5b843593506020850135925060408501356118b081611816565b915060608501356118c081611816565b939692955090935050565b6000602082840312156118dd57600080fd5b5035919050565b600080600080606085870312156118fa57600080fd5b843567ffffffffffffffff81111561191157600080fd5b61191d8782880161171d565b9095509350506020850135915060408501356118c081611816565b6000806040838503121561194b57600080fd5b82359150602083013561195d81611816565b809150509250929050565b60008060006060848603121561197d57600080fd5b83359250602084013561198f81611816565b9150604084013561187681611816565b634e487b7160e01b600052604160045260246000fd5b634e487b7160e01b600052603260045260246000fd5b6001600160a01b0383168152604060208083018290528351918301829052600091908401906060840190835b81811015611a1e5783516001600160a01b03168352602093840193909201916001016119f7565b50909695505050505050565b604051601f8201601f1916810167ffffffffffffffff81118282101715611a5357611a5361199f565b604052919050565b600067ffffffffffffffff821115611a7557611a7561199f565b5060051b60200190565b600082601f830112611a9057600080fd5b8151611aa3611a9e82611a5b565b611a2a565b8082825260208201915060208360051b860101925085831115611ac557600080fd5b602085015b83811015611ae2578051835260209283019201611aca565b5095945050505050565b600060208284031215611afe57600080fd5b815167ffffffffffffffff811115611b1557600080fd5b611b2184828501611a7f565b949350505050565b60208082526033908201527f4f6e6c79205a6170706572206f722074686520726563697069656e742063616e6040820152721031b0b636103a3434b990333ab731ba34b7b760691b606082015260800190565b600081518084526020840193506020830160005b82811015611bae578151865260209586019590910190600101611b90565b5093949350505050565b838152606060208201526000611bd16060830185611b7c565b9050826040830152949350505050565b60005b83811015611bfc578181015183820152602001611be4565b50506000910152565b60008151808452611c1d816020860160208601611be1565b601f01601f19169290920160200192915050565b8481526001600160a01b03848116602080840191909152908416604083015260806060830181905283518184019190915280516101008401819052600092919091019082906101208501905b80831015611ca85783516001600160a01b031682526020938401936001939093019290910190611c7d565b506020860151858203607f190160a08701529250611cc68184611b7c565b925050506040840151607f198483030160c0850152611ce58282611c05565b9150506060840151611cfb60e085018215159052565b509695505050505050565b600060208284031215611d1857600080fd5b5051919050565b8183823760009101908152919050565b634e487b7160e01b600052601160045260246000fd5b8181038181111561081357610813611d2f565b600080600060608486031215611d6d57600080fd5b835167ffffffffffffffff811115611d8457600080fd5b8401601f81018613611d9557600080fd5b8051611da3611a9e82611a5b565b8082825260208201915060208360051b850101925088831115611dc557600080fd5b6020840193505b82841015611df0578351611ddf81611816565b825260209384019390910190611dcc565b80965050505050602084015167ffffffffffffffff811115611e1157600080fd5b611e1d86828701611a7f565b604095909501519396949550929392505050565b808202811582820484141761081357610813611d2f565b600082611e6557634e487b7160e01b600052601260045260246000fd5b500490565b600060208284031215611e7c57600080fd5b815180151581146113ce57600080fd5b60008251611e9e818460208701611be1565b919091019291505056fea26469706673582212201e4630e18f718162aeac8e045bf45c7961f0a80b00a3926cccea3152fb6dd61464736f6c634300081a0033","linkReferences":{}},"methodIdentifiers":{"AURA()":"3829aea3","AutoCompoundRewards(bytes,uint256,address[])":"2ec6c5b6","BAL()":"beeadf16","IMOETHBPT()":"416b16b5","acceptOwnership()":"79ba5097","auraBooster()":"81bf829d","getUserImoBalanceFromPool(uint256)":"d4524d52","joinImoPool(uint256,uint256,address,address)":"8190f233","joinImoPoolOnlyWeth(uint256,address,address)":"f7100389","odosRouter()":"8321928d","owner()":"8da5cb5b","pendingOwner()":"e30c3978","removeBalancerAllowance()":"f05f2436","renounceOwnership()":"715018a6","resetBalancerAllowance()":"e634b21a","rewardDistributor()":"acc2166a","setBalancerPoolId(bytes32)":"c83e4135","setBalancerVault(address)":"f8c46452","setImoAddress(address)":"46decd2a","token()":"fc0c546a","transferOwnership(address)":"f2fde38b","votingEscrow()":"4f2bfe5b","zapAndCreateLockFor(uint256,uint256,address)":"7c8d37de","zapAndDepositForLock(uint256,address)":"ee831e56","zapAssetsToWethAndStake(bytes,uint256,address)":"ee7e76d9"},"id":2}