{"abi":[{"type":"constructor","inputs":[{"name":"_token","type":"address","internalType":"address"},{"name":"_votingEscrow","type":"address","internalType":"address"},{"name":"_odosRouter","type":"address","internalType":"address payable"},{"name":"_rewardDistributor","type":"address","internalType":"address"},{"name":"_balToken","type":"address","internalType":"address"},{"name":"_auraToken","type":"address","internalType":"address"},{"name":"_imoToken","type":"address","internalType":"address"}],"stateMutability":"nonpayable"},{"type":"function","name":"AURA","inputs":[],"outputs":[{"name":"","type":"address","internalType":"contract IERC20"}],"stateMutability":"view"},{"type":"function","name":"AutoCompoundRewards","inputs":[{"name":"swapData","type":"bytes","internalType":"bytes"},{"name":"_unlock_time","type":"uint256","internalType":"uint256"},{"name":"_RewardsTokens","type":"address[]","internalType":"address[]"}],"outputs":[],"stateMutability":"nonpayable"},{"type":"function","name":"BAL","inputs":[],"outputs":[{"name":"","type":"address","internalType":"contract IERC20"}],"stateMutability":"view"},{"type":"function","name":"IMO","inputs":[],"outputs":[{"name":"","type":"address","internalType":"contract IERC20"}],"stateMutability":"view"},{"type":"function","name":"IMOETHAURABPT","inputs":[],"outputs":[{"name":"","type":"address","internalType":"address"}],"stateMutability":"view"},{"type":"function","name":"IMOETHBPT","inputs":[],"outputs":[{"name":"","type":"address","internalType":"address"}],"stateMutability":"view"},{"type":"function","name":"acceptOwnership","inputs":[],"outputs":[],"stateMutability":"nonpayable"},{"type":"function","name":"auraBooster","inputs":[],"outputs":[{"name":"","type":"address","internalType":"address"}],"stateMutability":"view"},{"type":"function","name":"getUserImoBalanceFromPool","inputs":[{"name":"BPTbalanceofUser","type":"uint256","internalType":"uint256"}],"outputs":[{"name":"","type":"uint256","internalType":"uint256"}],"stateMutability":"view"},{"type":"function","name":"joinImoPool","inputs":[{"name":"EthAmount","type":"uint256","internalType":"uint256"},{"name":"ImoAmount","type":"uint256","internalType":"uint256"},{"name":"sender","type":"address","internalType":"address"},{"name":"receiver","type":"address","internalType":"address"}],"outputs":[],"stateMutability":"nonpayable"},{"type":"function","name":"joinImoPoolOnlyWeth","inputs":[{"name":"wethAmount","type":"uint256","internalType":"uint256"},{"name":"sender","type":"address","internalType":"address"},{"name":"receiver","type":"address","internalType":"address"}],"outputs":[],"stateMutability":"nonpayable"},{"type":"function","name":"odosRouter","inputs":[],"outputs":[{"name":"","type":"address","internalType":"contract IOdosRouterV2"}],"stateMutability":"view"},{"type":"function","name":"owner","inputs":[],"outputs":[{"name":"","type":"address","internalType":"address"}],"stateMutability":"view"},{"type":"function","name":"pendingOwner","inputs":[],"outputs":[{"name":"","type":"address","internalType":"address"}],"stateMutability":"view"},{"type":"function","name":"removeBalancerAllowance","inputs":[],"outputs":[],"stateMutability":"nonpayable"},{"type":"function","name":"renounceOwnership","inputs":[],"outputs":[],"stateMutability":"nonpayable"},{"type":"function","name":"resetBalancerAllowance","inputs":[],"outputs":[],"stateMutability":"nonpayable"},{"type":"function","name":"rewardDistributor","inputs":[],"outputs":[{"name":"","type":"address","internalType":"contract RewardDistributor"}],"stateMutability":"view"},{"type":"function","name":"setBalancerPoolId","inputs":[{"name":"_poolId","type":"bytes32","internalType":"bytes32"}],"outputs":[],"stateMutability":"nonpayable"},{"type":"function","name":"setBalancerVault","inputs":[{"name":"_vault","type":"address","internalType":"address"}],"outputs":[],"stateMutability":"nonpayable"},{"type":"function","name":"setImoAddress","inputs":[{"name":"_newAddress","type":"address","internalType":"address"}],"outputs":[],"stateMutability":"nonpayable"},{"type":"function","name":"token","inputs":[],"outputs":[{"name":"","type":"address","internalType":"contract IERC20"}],"stateMutability":"view"},{"type":"function","name":"transferOwnership","inputs":[{"name":"newOwner","type":"address","internalType":"address"}],"outputs":[],"stateMutability":"nonpayable"},{"type":"function","name":"votingEscrow","inputs":[],"outputs":[{"name":"","type":"address","internalType":"contract IVotingEscrow"}],"stateMutability":"view"},{"type":"function","name":"zapAndDepositForLock","inputs":[{"name":"_ImoAmount","type":"uint256","internalType":"uint256"},{"name":"_EthAmount","type":"uint256","internalType":"uint256"},{"name":"_recipient","type":"address","internalType":"address"}],"outputs":[],"stateMutability":"nonpayable"},{"type":"function","name":"zapAndDepositForLockNative","inputs":[{"name":"_ImoAmount","type":"uint256","internalType":"uint256"},{"name":"_recipient","type":"address","internalType":"address"}],"outputs":[],"stateMutability":"payable"},{"type":"function","name":"zapAndLockFor","inputs":[{"name":"_ImoAmount","type":"uint256","internalType":"uint256"},{"name":"_EthAmount","type":"uint256","internalType":"uint256"},{"name":"_unlock_time","type":"uint256","internalType":"uint256"},{"name":"_recipient","type":"address","internalType":"address"}],"outputs":[],"stateMutability":"nonpayable"},{"type":"function","name":"zapAndLockForNative","inputs":[{"name":"_ImoAmount","type":"uint256","internalType":"uint256"},{"name":"_unlock_time","type":"uint256","internalType":"uint256"},{"name":"_recipient","type":"address","internalType":"address"}],"outputs":[],"stateMutability":"payable"},{"type":"function","name":"zapAssetsToWethAndStake","inputs":[{"name":"swapData","type":"bytes","internalType":"bytes"},{"name":"_unlock_time","type":"uint256","internalType":"uint256"},{"name":"_recipient","type":"address","internalType":"address"}],"outputs":[],"stateMutability":"nonpayable"},{"type":"event","name":"OwnershipTransferStarted","inputs":[{"name":"previousOwner","type":"address","indexed":true,"internalType":"address"},{"name":"newOwner","type":"address","indexed":true,"internalType":"address"}],"anonymous":false},{"type":"event","name":"OwnershipTransferred","inputs":[{"name":"previousOwner","type":"address","indexed":true,"internalType":"address"},{"name":"newOwner","type":"address","indexed":true,"internalType":"address"}],"anonymous":false},{"type":"event","name":"SetBalancerPoolId","inputs":[{"name":"newPoolId","type":"bytes32","indexed":false,"internalType":"bytes32"}],"anonymous":false},{"type":"event","name":"SetBalancerVault","inputs":[{"name":"newVault","type":"address","indexed":false,"internalType":"address"}],"anonymous":false},{"type":"event","name":"SetImoAddress","inputs":[{"name":"newAddress","type":"address","indexed":false,"internalType":"address"}],"anonymous":false},{"type":"error","name":"OwnableInvalidOwner","inputs":[{"name":"owner","type":"address","internalType":"address"}]},{"type":"error","name":"OwnableUnauthorizedAccount","inputs":[{"name":"account","type":"address","internalType":"address"}]},{"type":"error","name":"ReentrancyGuardReentrantCall","inputs":[]},{"type":"error","name":"ZeroAddress","inputs":[]}],"bytecode":{"object":"0x6080604052600380546001600160a01b0319908116735a7a2bf9ffae199f088b25837dcd7e115cf8e1bb17909155600480548216727bb7a4bfc214df06474e39142288e99540f2b3908117909155600580548316909117905560068054821673ba12222222228d8ba445958a75a0704d566bf2c81790557e7bb7a4bfc214df06474e39142288e99540f2b3000200000000000000000191600755600880549091167398ef32edd24e2c92525e59afc4475c1242a3018417905560006009553480156100c957600080fd5b50604051612b4d380380612b4d8339810160408190526100e89161021f565b338061010e57604051631e4fbdf760e01b81526000600482015260240160405180910390fd5b6101178161019e565b506001600255600a80546001600160a01b03199081166001600160a01b03998a1617909155600e8054821697891697909717909655600f805487169588169590951790945560108054861693871693909317909255600b80548516918616919091179055600c80548416918516919091179055600d805490921692169190911790556102bb565b600180546001600160a01b03191690556101b7816101ba565b50565b600080546001600160a01b038381166001600160a01b0319831681178455604051919092169283917f8be0079c531659141344cd1fd0a4f28419497f9722a3daafe3b4186f6b6457e09190a35050565b6001600160a01b03811681146101b757600080fd5b600080600080600080600060e0888a03121561023a57600080fd5b87516102458161020a565b60208901519097506102568161020a565b60408901519096506102678161020a565b60608901519095506102788161020a565b60808901519094506102898161020a565b60a089015190935061029a8161020a565b60c08901519092506102ab8161020a565b8091505092959891949750929550565b612883806102ca6000396000f3fe6080604052600436106101c25760003560e01c80638e28f6f0116100f7578063e30c397811610095578063f2fde38b11610064578063f2fde38b146104ca578063f7100389146104ea578063f8c464521461050a578063fc0c546a1461052a57600080fd5b8063e30c397814610462578063e634b21a14610480578063ee7e76d914610495578063f05f2436146104b557600080fd5b8063beeadf16116100d1578063beeadf16146103d4578063c83e4135146103f4578063d4524d5214610414578063da74a2d41461044257600080fd5b80638e28f6f01461038157806397796d8f14610394578063acc2166a146103b457600080fd5b8063556054e1116101645780638190f2331161013e5780638190f2331461030357806381bf829d146103235780638321928d146103435780638da5cb5b1461036357600080fd5b8063556054e1146102b9578063715018a6146102d957806379ba5097146102ee57600080fd5b80633829aea3116101a05780633829aea314610239578063416b16b51461025957806346decd2a146102795780634f2bfe5b1461029957600080fd5b8063296f5b23146101c75780632d58104b146102045780632ec6c5b614610219575b600080fd5b3480156101d357600080fd5b506005546101e7906001600160a01b031681565b6040516001600160a01b0390911681526020015b60405180910390f35b610217610212366004612077565b61054a565b005b34801561022557600080fd5b506102176102343660046120f0565b61066f565b34801561024557600080fd5b50600c546101e7906001600160a01b031681565b34801561026557600080fd5b506004546101e7906001600160a01b031681565b34801561028557600080fd5b506102176102943660046121a0565b6107a9565b3480156102a557600080fd5b50600e546101e7906001600160a01b031681565b3480156102c557600080fd5b506102176102d43660046121bd565b610806565b3480156102e557600080fd5b50610217610ba7565b3480156102fa57600080fd5b50610217610bbb565b34801561030f57600080fd5b5061021761031e3660046121f6565b610bff565b34801561032f57600080fd5b506008546101e7906001600160a01b031681565b34801561034f57600080fd5b50600f546101e7906001600160a01b031681565b34801561036f57600080fd5b506000546001600160a01b03166101e7565b61021761038f3660046121bd565b610d9d565b3480156103a057600080fd5b506102176103af366004612240565b610ebc565b3480156103c057600080fd5b506010546101e7906001600160a01b031681565b3480156103e057600080fd5b50600b546101e7906001600160a01b031681565b34801561040057600080fd5b5061021761040f366004612276565b611266565b34801561042057600080fd5b5061043461042f366004612276565b6112a3565b6040519081526020016101fb565b34801561044e57600080fd5b50600d546101e7906001600160a01b031681565b34801561046e57600080fd5b506001546001600160a01b03166101e7565b34801561048c57600080fd5b506102176112c4565b3480156104a157600080fd5b506102176104b036600461228f565b6112e1565b3480156104c157600080fd5b50610217611750565b3480156104d657600080fd5b506102176104e53660046121a0565b61176d565b3480156104f657600080fd5b506102176105053660046122e3565b6117de565b34801561051657600080fd5b506102176105253660046121a0565b61198b565b34801561053657600080fd5b50600a546101e7906001600160a01b031681565b336001600160a01b038216148061056057503330145b6105855760405162461bcd60e51b815260040161057c9061231a565b60405180910390fd5b61058e81611a08565b6105da5760405162461bcd60e51b815260206004820152601b60248201527f4e6f206c6f636b2065786973747320666f722074686520757365720000000000604482015260640161057c565b60008211806105e95750600034115b6106055760405162461bcd60e51b815260040161057c9061236d565b6006602160991b016001600160a01b031663d0e30db0346040518263ffffffff1660e01b81526004016000604051808303818588803b15801561064757600080fd5b505af115801561065b573d6000803e3d6000fd5b505050505061066b823483610806565b5050565b60008167ffffffffffffffff81111561068a5761068a612397565b6040519080825280602002602001820160405280156106b3578160200160208202803683370190505b50905060005b8281101561071a578383828181106106d3576106d36123ad565b90506020020160208101906106e891906121a0565b8282815181106106fa576106fa6123ad565b6001600160a01b03909216602092830291909101909101526001016106b9565b50601054604051638872046760e01b81526001600160a01b039091169063887204679061074d90339085906004016123c3565b6000604051808303816000875af115801561076c573d6000803e3d6000fd5b505050506040513d6000823e601f3d908101601f1916820160405261079491908101906124e4565b506107a1868686336112e1565b505050505050565b6107b1611a81565b600380546001600160a01b0319166001600160a01b0383169081179091556040519081527f45c46eb1955b46f6a37722f37e31830803db01eaa7edda7d9b606d6f32897582906020015b60405180910390a150565b336001600160a01b038216148061081c57503330145b6108385760405162461bcd60e51b815260040161057c9061231a565b61084181611a08565b61088d5760405162461bcd60e51b815260206004820152601b60248201527f4e6f206c6f636b2065786973747320666f722074686520757365720000000000604482015260640161057c565b600083118061089c5750600082115b6108b85760405162461bcd60e51b815260040161057c9061236d565b82156108d657600d546108d6906001600160a01b0316333086611aae565b81156108ef576108ef6006602160991b01333085611aae565b600480546040516370a0823160e01b815230928101929092526000916001600160a01b03909116906370a0823190602401602060405180830381865afa15801561093d573d6000803e3d6000fd5b505050506040513d601f19601f820116820180604052508101906109619190612521565b600654909150610983906006602160991b01906001600160a01b031685611b1f565b600654600d546109a0916001600160a01b03918216911686611b1f565b6109ac83853030610bff565b600480546040516370a0823160e01b8152309281019290925282916001600160a01b03909116906370a0823190602401602060405180830381865afa1580156109f9573d6000803e3d6000fd5b505050506040513d601f19601f82011682018060405250810190610a1d9190612521565b610a279190612550565b6005546040516370a0823160e01b81523060048201529192506000916001600160a01b03909116906370a0823190602401602060405180830381865afa158015610a75573d6000803e3d6000fd5b505050506040513d601f19601f82011682018060405250810190610a999190612521565b9050610aa482611c01565b6005546040516370a0823160e01b815230600482015282916001600160a01b0316906370a0823190602401602060405180830381865afa158015610aec573d6000803e3d6000fd5b505050506040513d601f19601f82011682018060405250810190610b109190612521565b610b1a9190612550565b600e54600a54919250610b3a916001600160a01b03908116911683611b1f565b600e54604051631d23139f60e11b81526001600160a01b0385811660048301526024820184905290911690633a46273e90604401600060405180830381600087803b158015610b8857600080fd5b505af1158015610b9c573d6000803e3d6000fd5b505050505050505050565b610baf611a81565b610bb96000611c9f565b565b60015433906001600160a01b03168114610bf35760405163118cdaa760e01b81526001600160a01b038216600482015260240161057c565b610bfc81611c9f565b50565b6040805160028082526060820183526000926020830190803683370190505090506006602160991b0181600081518110610c3b57610c3b6123ad565b6001600160a01b039283166020918202929092010152600354825191169082906001908110610c6c57610c6c6123ad565b6001600160a01b039290921660209283029190910182015260408051600280825260608201835260009391929091830190803683370190505090508581600081518110610cbb57610cbb6123ad565b6020026020010181815250508481600181518110610cdb57610cdb6123ad565b602090810291909101015260006001826000604051602001610cff9392919061259f565b60408051601f198184030181526080830182528583526020830185905282820181905260016060840152600654600754925163172b958560e31b81529194506001600160a01b03169163b95cac2891610d6191908a908a908790600401612618565b600060405180830381600087803b158015610d7b57600080fd5b505af1158015610d8f573d6000803e3d6000fd5b505050505050505050505050565b336001600160a01b0382161480610db357503330145b610dcf5760405162461bcd60e51b815260040161057c9061231a565b6000831180610dde5750600034115b610dfa5760405162461bcd60e51b815260040161057c9061236d565b610e0381611a08565b15610e505760405162461bcd60e51b815260206004820181905260248201527f6c6f636b20616c72656164792065786973747320666f72207468652075736572604482015260640161057c565b6006602160991b016001600160a01b031663d0e30db0346040518263ffffffff1660e01b81526004016000604051808303818588803b158015610e9257600080fd5b505af1158015610ea6573d6000803e3d6000fd5b5050505050610eb783348484610ebc565b505050565b336001600160a01b0382161480610ed257503330145b610eee5760405162461bcd60e51b815260040161057c9061231a565b6000841180610efd5750600083115b610f195760405162461bcd60e51b815260040161057c9061236d565b610f2281611a08565b15610f6f5760405162461bcd60e51b815260206004820181905260248201527f6c6f636b20616c72656164792065786973747320666f72207468652075736572604482015260640161057c565b8315610f8d57600d54610f8d906001600160a01b0316823087611aae565b8215610fa657610fa66006602160991b01823086611aae565b600480546040516370a0823160e01b815230928101929092526000916001600160a01b03909116906370a0823190602401602060405180830381865afa158015610ff4573d6000803e3d6000fd5b505050506040513d601f19601f820116820180604052508101906110189190612521565b60065490915061103a906006602160991b01906001600160a01b031686611b1f565b600654600d54611057916001600160a01b03918216911687611b1f565b61106384863030610bff565b600480546040516370a0823160e01b8152309281019290925282916001600160a01b03909116906370a0823190602401602060405180830381865afa1580156110b0573d6000803e3d6000fd5b505050506040513d601f19601f820116820180604052508101906110d49190612521565b6110de9190612550565b6005546040516370a0823160e01b81523060048201529192506000916001600160a01b03909116906370a0823190602401602060405180830381865afa15801561112c573d6000803e3d6000fd5b505050506040513d601f19601f820116820180604052508101906111509190612521565b905061115b82611c01565b6005546040516370a0823160e01b815230600482015282916001600160a01b0316906370a0823190602401602060405180830381865afa1580156111a3573d6000803e3d6000fd5b505050506040513d601f19601f820116820180604052508101906111c79190612521565b6111d19190612550565b600e54600a549192506111f1916001600160a01b03908116911683611b1f565b600e54604051633d535f4160e11b81526001600160a01b038581166004830152602482018490526044820187905290911690637aa6be8290606401600060405180830381600087803b15801561124657600080fd5b505af115801561125a573d6000803e3d6000fd5b50505050505050505050565b61126e611a81565b60078190556040518181527fa3e30156306d040fdb0497ed16d110e0e0ff49e8d37b2b1844e3e4d0d848af03906020016107fb565b6004546000906112be9033906001600160a01b031684611cb8565b92915050565b6112cc611a81565b600654610bb9906001600160a01b0316611e35565b336001600160a01b03821614806112f757503330145b6113135760405162461bcd60e51b815260040161057c9061231a565b6040516370a0823160e01b81526001600160a01b03821660048201526000906006602160991b01906370a0823190602401602060405180830381865afa158015611361573d6000803e3d6000fd5b505050506040513d601f19601f820116820180604052508101906113859190612521565b6040516370a0823160e01b81523060048201529091506000906006602160991b01906370a0823190602401602060405180830381865afa1580156113cd573d6000803e3d6000fd5b505050506040513d601f19601f820116820180604052508101906113f19190612521565b600f5460405191925060009182916001600160a01b0316908290611418908b908b906126ed565b60006040518083038185875af1925050503d8060008114611455576040519150601f19603f3d011682016040523d82523d6000602084013e61145a565b606091505b50915091508161149a5760405162461bcd60e51b815260206004820152600b60248201526a14ddd85c0819985a5b195960aa1b604482015260640161057c565b6040516370a0823160e01b81526001600160a01b038616600482015261152a90309086906006602160991b01906370a0823190602401602060405180830381865afa1580156114ed573d6000803e3d6000fd5b505050506040513d601f19601f820116820180604052508101906115119190612521565b61151b9190612550565b6006602160991b019190611e49565b6040516370a0823160e01b815230600482015283906006602160991b01906370a0823190602401602060405180830381865afa15801561156e573d6000803e3d6000fd5b505050506040513d601f19601f820116820180604052508101906115929190612521565b61159c9190612550565b9250600083116115e55760405162461bcd60e51b8152602060048201526014602482015273574554482062616c616e6365206973207a65726f60601b604482015260640161057c565b600480546040516370a0823160e01b815230928101929092526000916001600160a01b03909116906370a0823190602401602060405180830381865afa158015611633573d6000803e3d6000fd5b505050506040513d601f19601f820116820180604052508101906116579190612521565b600654909150611679906006602160991b01906001600160a01b031686611b1f565b6116848430306117de565b600480546040516370a0823160e01b8152309281019290925282916001600160a01b03909116906370a0823190602401602060405180830381865afa1580156116d1573d6000803e3d6000fd5b505050506040513d601f19601f820116820180604052508101906116f59190612521565b6116ff9190612550565b9050600081116117475760405162461bcd60e51b81526020600482015260136024820152724250542062616c616e6365206973207a65726f60681b604482015260640161057c565b610b9c81611c01565b611758611a81565b600654610bb9906001600160a01b0316611e79565b611775611a81565b600180546001600160a01b0383166001600160a01b031990911681179091556117a66000546001600160a01b031690565b6001600160a01b03167f38d16b8cac22d99fc7c124b9cd0de2d3fa1faef420bfe791d8c362d765e2270060405160405180910390a350565b604080516002808252606082018352600092602083019080368337505060035482519293506001600160a01b03169183915060009061181f5761181f6123ad565b60200260200101906001600160a01b031690816001600160a01b0316815250506006602160991b018160018151811061185a5761185a6123ad565b6001600160a01b039290921660209283029190910182015260408051600280825260608201835260009391929091830190803683370190505090506000816000815181106118aa576118aa6123ad565b60200260200101818152505084816001815181106118ca576118ca6123ad565b6020908102919091010152600060018260006040516020016118ee9392919061259f565b60408051601f198184030181526080830182528583526020830185905282820181905260006060840152600654600754925163172b958560e31b81529194506001600160a01b03169163b95cac289161195091908a908a908790600401612618565b600060405180830381600087803b15801561196a57600080fd5b505af115801561197e573d6000803e3d6000fd5b5050505050505050505050565b611993611a81565b6001600160a01b0381166119ba5760405163d92e233d60e01b815260040160405180910390fd5b600680546001600160a01b0319166001600160a01b0383169081179091556040519081527ffdfe548aa3dcee9e1afd9748ce2a57b579994c3d33f8e82501c60accfdf58bd3906020016107fb565b600e5460405163adc6358960e01b81526001600160a01b038381166004830152600092429291169063adc6358990602401602060405180830381865afa158015611a56573d6000803e3d6000fd5b505050506040513d601f19601f82011682018060405250810190611a7a9190612521565b1192915050565b6000546001600160a01b03163314610bb95760405163118cdaa760e01b815233600482015260240161057c565b6040516001600160a01b0380851660248301528316604482015260648101829052611b199085906323b872dd60e01b906084015b60408051601f198184030181529190526020810180516001600160e01b03166001600160e01b031990931692909217909152611e8c565b50505050565b8015801590611b9c5750604051636eb1769f60e11b81523060048201526001600160a01b03838116602483015284169063dd62ed3e90604401602060405180830381865afa158015611b75573d6000803e3d6000fd5b505050506040513d601f19601f82011682018060405250810190611b999190612521565b15155b15611bd1576040516001600160a01b038316602482015260006044820152611bd190849063095ea7b360e01b90606401611ae2565b6040516001600160a01b038316602482015260448101829052610eb790849063095ea7b360e01b90606401611ae2565b600854600454611c1e916001600160a01b03918216911683611f28565b6008546009546040516321d0683360e11b8152600481019190915260248101839052600160448201526001600160a01b03909116906343a0d066906064016020604051808303816000875af1158015611c7b573d6000803e3d6000fd5b505050506040513d601f19601f8201168201806040525081019061066b91906126fd565b600180546001600160a01b0319169055610bfc81611fa8565b600080836001600160a01b03166318160ddd6040518163ffffffff1660e01b8152600401602060405180830381865afa158015611cf9573d6000803e3d6000fd5b505050506040513d601f19601f82011682018060405250810190611d1d9190612521565b600654600754604051631f29a8cd60e31b8152600481019190915291925060009182916001600160a01b03169063f94d466890602401600060405180830381865afa158015611d70573d6000803e3d6000fd5b505050506040513d6000823e601f3d908101601f19168201604052611d98919081019061271f565b509150915060005b8251811015611e255760035483516001600160a01b0390911690849083908110611dcc57611dcc6123ad565b60200260200101516001600160a01b031603611e1d578386838381518110611df657611df66123ad565b6020026020010151611e0891906127f8565b611e12919061280f565b945050505050611e2e565b600101611da0565b50600093505050505b9392505050565b610bfc6006602160991b0182600019611f28565b6040516001600160a01b038316602482015260448101829052610eb790849063a9059cbb60e01b90606401611ae2565b610bfc6006602160991b01826000611f28565b600080836001600160a01b031683604051611ea79190612831565b6000604051808303816000865af19150503d8060008114611ee4576040519150601f19603f3d011682016040523d82523d6000602084013e611ee9565b606091505b50909250905081611efe573d6000803e3d6000fd5b611b19815160001480611f20575081806020019051810190611f2091906126fd565b6101a2611ff8565b600060405163095ea7b360e01b81526001600160a01b0384166004820152826024820152602060006044836000895af13d15601f3d1160016000511416171691505080611b195760405162461bcd60e51b815260206004820152600e60248201526d1054141493d59157d1905253115160921b604482015260640161057c565b600080546001600160a01b038381166001600160a01b0319831681178455604051919092169283917f8be0079c531659141344cd1fd0a4f28419497f9722a3daafe3b4186f6b6457e09190a35050565b8161066b5762461bcd60e51b600090815260206004526007602452600a808304818106603090810160081b83860601918390049283060160101b016642414c230000300160c81b604481905261066b928492610bfc9290916210905360ea1b916242414c91606490fd5b6001600160a01b0381168114610bfc57600080fd5b6000806040838503121561208a57600080fd5b82359150602083013561209c81612062565b809150509250929050565b60008083601f8401126120b957600080fd5b50813567ffffffffffffffff8111156120d157600080fd5b6020830191508360208285010111156120e957600080fd5b9250929050565b60008060008060006060868803121561210857600080fd5b853567ffffffffffffffff81111561211f57600080fd5b61212b888289016120a7565b90965094505060208601359250604086013567ffffffffffffffff81111561215257600080fd5b8601601f8101881361216357600080fd5b803567ffffffffffffffff81111561217a57600080fd5b8860208260051b840101111561218f57600080fd5b959894975092955050506020019190565b6000602082840312156121b257600080fd5b8135611e2e81612062565b6000806000606084860312156121d257600080fd5b833592506020840135915060408401356121eb81612062565b809150509250925092565b6000806000806080858703121561220c57600080fd5b8435935060208501359250604085013561222581612062565b9150606085013561223581612062565b939692955090935050565b6000806000806080858703121561225657600080fd5b843593506020850135925060408501359150606085013561223581612062565b60006020828403121561228857600080fd5b5035919050565b600080600080606085870312156122a557600080fd5b843567ffffffffffffffff8111156122bc57600080fd5b6122c8878288016120a7565b90955093505060208501359150604085013561223581612062565b6000806000606084860312156122f857600080fd5b83359250602084013561230a81612062565b915060408401356121eb81612062565b60208082526033908201527f4f6e6c79205a6170706572206f722074686520726563697069656e742063616e6040820152721031b0b636103a3434b990333ab731ba34b7b760691b606082015260800190565b60208082526010908201526f416d6f756e747320617265207a65726f60801b604082015260600190565b634e487b7160e01b600052604160045260246000fd5b634e487b7160e01b600052603260045260246000fd5b6001600160a01b0383168152604060208083018290528351918301829052600091908401906060840190835b818110156124165783516001600160a01b03168352602093840193909201916001016123ef565b50909695505050505050565b604051601f8201601f1916810167ffffffffffffffff8111828210171561244b5761244b612397565b604052919050565b600067ffffffffffffffff82111561246d5761246d612397565b5060051b60200190565b600082601f83011261248857600080fd5b815161249b61249682612453565b612422565b8082825260208201915060208360051b8601019250858311156124bd57600080fd5b602085015b838110156124da5780518352602092830192016124c2565b5095945050505050565b6000602082840312156124f657600080fd5b815167ffffffffffffffff81111561250d57600080fd5b61251984828501612477565b949350505050565b60006020828403121561253357600080fd5b5051919050565b634e487b7160e01b600052601160045260246000fd5b818103818111156112be576112be61253a565b600081518084526020840193506020830160005b82811015612595578151865260209586019590910190600101612577565b5093949350505050565b8381526060602082015260006125b86060830185612563565b9050826040830152949350505050565b60005b838110156125e35781810151838201526020016125cb565b50506000910152565b600081518084526126048160208601602086016125c8565b601f01601f19169290920160200192915050565b8481526001600160a01b03848116602080840191909152908416604083015260806060830181905283518184019190915280516101008401819052600092919091019082906101208501905b8083101561268f5783516001600160a01b031682526020938401936001939093019290910190612664565b506020860151858203607f190160a087015292506126ad8184612563565b925050506040840151607f198483030160c08501526126cc82826125ec565b91505060608401516126e260e085018215159052565b509695505050505050565b8183823760009101908152919050565b60006020828403121561270f57600080fd5b81518015158114611e2e57600080fd5b60008060006060848603121561273457600080fd5b835167ffffffffffffffff81111561274b57600080fd5b8401601f8101861361275c57600080fd5b805161276a61249682612453565b8082825260208201915060208360051b85010192508883111561278c57600080fd5b6020840193505b828410156127b75783516127a681612062565b825260209384019390910190612793565b80965050505050602084015167ffffffffffffffff8111156127d857600080fd5b6127e486828701612477565b604095909501519396949550929392505050565b80820281158282048414176112be576112be61253a565b60008261282c57634e487b7160e01b600052601260045260246000fd5b500490565b600082516128438184602087016125c8565b919091019291505056fea264697066735822122067afe5dc837dfa668c40f06e44920cecf0710d18f3d4a94cafa8d0bc231f9cb164736f6c634300081a0033","linkReferences":{}},"methodIdentifiers":{"AURA()":"3829aea3","AutoCompoundRewards(bytes,uint256,address[])":"2ec6c5b6","BAL()":"beeadf16","IMO()":"da74a2d4","IMOETHAURABPT()":"296f5b23","IMOETHBPT()":"416b16b5","acceptOwnership()":"79ba5097","auraBooster()":"81bf829d","getUserImoBalanceFromPool(uint256)":"d4524d52","joinImoPool(uint256,uint256,address,address)":"8190f233","joinImoPoolOnlyWeth(uint256,address,address)":"f7100389","odosRouter()":"8321928d","owner()":"8da5cb5b","pendingOwner()":"e30c3978","removeBalancerAllowance()":"f05f2436","renounceOwnership()":"715018a6","resetBalancerAllowance()":"e634b21a","rewardDistributor()":"acc2166a","setBalancerPoolId(bytes32)":"c83e4135","setBalancerVault(address)":"f8c46452","setImoAddress(address)":"46decd2a","token()":"fc0c546a","transferOwnership(address)":"f2fde38b","votingEscrow()":"4f2bfe5b","zapAndDepositForLock(uint256,uint256,address)":"556054e1","zapAndDepositForLockNative(uint256,address)":"2d58104b","zapAndLockFor(uint256,uint256,uint256,address)":"97796d8f","zapAndLockForNative(uint256,uint256,address)":"8e28f6f0","zapAssetsToWethAndStake(bytes,uint256,address)":"ee7e76d9"},"id":2}