{"abi":[{"type":"constructor","inputs":[{"name":"_token","type":"address","internalType":"address"},{"name":"_votingEscrow","type":"address","internalType":"address"},{"name":"_odosRouter","type":"address","internalType":"address payable"},{"name":"_rewardDistributor","type":"address","internalType":"address"},{"name":"_balToken","type":"address","internalType":"address"},{"name":"_auraToken","type":"address","internalType":"address"},{"name":"_imoToken","type":"address","internalType":"address"}],"stateMutability":"nonpayable"},{"type":"function","name":"AURA","inputs":[],"outputs":[{"name":"","type":"address","internalType":"contract IERC20"}],"stateMutability":"view"},{"type":"function","name":"AutoCompoundRewards","inputs":[{"name":"swapData","type":"bytes","internalType":"bytes"},{"name":"_unlock_time","type":"uint256","internalType":"uint256"},{"name":"_RewardsTokens","type":"address[]","internalType":"address[]"}],"outputs":[],"stateMutability":"nonpayable"},{"type":"function","name":"BAL","inputs":[],"outputs":[{"name":"","type":"address","internalType":"contract IERC20"}],"stateMutability":"view"},{"type":"function","name":"IMO","inputs":[],"outputs":[{"name":"","type":"address","internalType":"contract IERC20"}],"stateMutability":"view"},{"type":"function","name":"IMOETHAURABPT","inputs":[],"outputs":[{"name":"","type":"address","internalType":"address"}],"stateMutability":"view"},{"type":"function","name":"IMOETHBPT","inputs":[],"outputs":[{"name":"","type":"address","internalType":"address"}],"stateMutability":"view"},{"type":"function","name":"acceptOwnership","inputs":[],"outputs":[],"stateMutability":"nonpayable"},{"type":"function","name":"auraBooster","inputs":[],"outputs":[{"name":"","type":"address","internalType":"address"}],"stateMutability":"view"},{"type":"function","name":"getUserImoBalanceFromPool","inputs":[{"name":"BPTbalanceofUser","type":"uint256","internalType":"uint256"}],"outputs":[{"name":"","type":"uint256","internalType":"uint256"}],"stateMutability":"view"},{"type":"function","name":"joinImoPool","inputs":[{"name":"EthAmount","type":"uint256","internalType":"uint256"},{"name":"ImoAmount","type":"uint256","internalType":"uint256"},{"name":"sender","type":"address","internalType":"address"},{"name":"receiver","type":"address","internalType":"address"}],"outputs":[],"stateMutability":"nonpayable"},{"type":"function","name":"joinImoPoolOnlyWeth","inputs":[{"name":"wethAmount","type":"uint256","internalType":"uint256"},{"name":"sender","type":"address","internalType":"address"},{"name":"receiver","type":"address","internalType":"address"}],"outputs":[],"stateMutability":"nonpayable"},{"type":"function","name":"odosRouter","inputs":[],"outputs":[{"name":"","type":"address","internalType":"contract IOdosRouterV2"}],"stateMutability":"view"},{"type":"function","name":"owner","inputs":[],"outputs":[{"name":"","type":"address","internalType":"address"}],"stateMutability":"view"},{"type":"function","name":"pendingOwner","inputs":[],"outputs":[{"name":"","type":"address","internalType":"address"}],"stateMutability":"view"},{"type":"function","name":"removeBalancerAllowance","inputs":[],"outputs":[],"stateMutability":"nonpayable"},{"type":"function","name":"renounceOwnership","inputs":[],"outputs":[],"stateMutability":"nonpayable"},{"type":"function","name":"resetBalancerAllowance","inputs":[],"outputs":[],"stateMutability":"nonpayable"},{"type":"function","name":"rewardDistributor","inputs":[],"outputs":[{"name":"","type":"address","internalType":"contract RewardDistributor"}],"stateMutability":"view"},{"type":"function","name":"setBalancerPoolId","inputs":[{"name":"_poolId","type":"bytes32","internalType":"bytes32"}],"outputs":[],"stateMutability":"nonpayable"},{"type":"function","name":"setBalancerVault","inputs":[{"name":"_vault","type":"address","internalType":"address"}],"outputs":[],"stateMutability":"nonpayable"},{"type":"function","name":"setImoAddress","inputs":[{"name":"_newAddress","type":"address","internalType":"address"}],"outputs":[],"stateMutability":"nonpayable"},{"type":"function","name":"token","inputs":[],"outputs":[{"name":"","type":"address","internalType":"contract IERC20"}],"stateMutability":"view"},{"type":"function","name":"transferOwnership","inputs":[{"name":"newOwner","type":"address","internalType":"address"}],"outputs":[],"stateMutability":"nonpayable"},{"type":"function","name":"votingEscrow","inputs":[],"outputs":[{"name":"","type":"address","internalType":"contract IVotingEscrow"}],"stateMutability":"view"},{"type":"function","name":"zapAndDepositForLock","inputs":[{"name":"_ImoAmount","type":"uint256","internalType":"uint256"},{"name":"_EthAmount","type":"uint256","internalType":"uint256"},{"name":"_recipient","type":"address","internalType":"address"}],"outputs":[],"stateMutability":"nonpayable"},{"type":"function","name":"zapAndDepositForLockNative","inputs":[{"name":"_ImoAmount","type":"uint256","internalType":"uint256"},{"name":"_recipient","type":"address","internalType":"address"}],"outputs":[],"stateMutability":"payable"},{"type":"function","name":"zapAndLockFor","inputs":[{"name":"_ImoAmount","type":"uint256","internalType":"uint256"},{"name":"_EthAmount","type":"uint256","internalType":"uint256"},{"name":"_unlock_time","type":"uint256","internalType":"uint256"},{"name":"_recipient","type":"address","internalType":"address"}],"outputs":[],"stateMutability":"nonpayable"},{"type":"function","name":"zapAndLockForNative","inputs":[{"name":"_ImoAmount","type":"uint256","internalType":"uint256"},{"name":"_unlock_time","type":"uint256","internalType":"uint256"},{"name":"_recipient","type":"address","internalType":"address"}],"outputs":[],"stateMutability":"payable"},{"type":"function","name":"zapAssetsToWethAndStake","inputs":[{"name":"swapData","type":"bytes","internalType":"bytes"},{"name":"_unlock_time","type":"uint256","internalType":"uint256"},{"name":"_recipient","type":"address","internalType":"address"}],"outputs":[],"stateMutability":"nonpayable"},{"type":"event","name":"OwnershipTransferStarted","inputs":[{"name":"previousOwner","type":"address","indexed":true,"internalType":"address"},{"name":"newOwner","type":"address","indexed":true,"internalType":"address"}],"anonymous":false},{"type":"event","name":"OwnershipTransferred","inputs":[{"name":"previousOwner","type":"address","indexed":true,"internalType":"address"},{"name":"newOwner","type":"address","indexed":true,"internalType":"address"}],"anonymous":false},{"type":"event","name":"SetBalancerPoolId","inputs":[{"name":"newPoolId","type":"bytes32","indexed":false,"internalType":"bytes32"}],"anonymous":false},{"type":"event","name":"SetBalancerVault","inputs":[{"name":"newVault","type":"address","indexed":false,"internalType":"address"}],"anonymous":false},{"type":"event","name":"SetImoAddress","inputs":[{"name":"newAddress","type":"address","indexed":false,"internalType":"address"}],"anonymous":false},{"type":"event","name":"Test","inputs":[{"name":"user","type":"address","indexed":true,"internalType":"address"},{"name":"amount","type":"uint256","indexed":false,"internalType":"uint256"}],"anonymous":false},{"type":"error","name":"OwnableInvalidOwner","inputs":[{"name":"owner","type":"address","internalType":"address"}]},{"type":"error","name":"OwnableUnauthorizedAccount","inputs":[{"name":"account","type":"address","internalType":"address"}]},{"type":"error","name":"ReentrancyGuardReentrantCall","inputs":[]},{"type":"error","name":"ZeroAddress","inputs":[]}],"bytecode":{"object":"0x6080604052600380546001600160a01b0319908116735a7a2bf9ffae199f088b25837dcd7e115cf8e1bb17909155600480548216727bb7a4bfc214df06474e39142288e99540f2b3908117909155600580548316909117905560068054821673ba12222222228d8ba445958a75a0704d566bf2c81790557e7bb7a4bfc214df06474e39142288e99540f2b3000200000000000000000191600755600880549091167398ef32edd24e2c92525e59afc4475c1242a3018417905560006009553480156100c957600080fd5b506040516129743803806129748339810160408190526100e89161021f565b338061010e57604051631e4fbdf760e01b81526000600482015260240160405180910390fd5b6101178161019e565b506001600255600a80546001600160a01b03199081166001600160a01b03998a1617909155600e8054821697891697909717909655600f805487169588169590951790945560108054861693871693909317909255600b80548516918616919091179055600c80548416918516919091179055600d805490921692169190911790556102bb565b600180546001600160a01b03191690556101b7816101ba565b50565b600080546001600160a01b038381166001600160a01b0319831681178455604051919092169283917f8be0079c531659141344cd1fd0a4f28419497f9722a3daafe3b4186f6b6457e09190a35050565b6001600160a01b03811681146101b757600080fd5b600080600080600080600060e0888a03121561023a57600080fd5b87516102458161020a565b60208901519097506102568161020a565b60408901519096506102678161020a565b60608901519095506102788161020a565b60808901519094506102898161020a565b60a089015190935061029a8161020a565b60c08901519092506102ab8161020a565b8091505092959891949750929550565b6126aa806102ca6000396000f3fe6080604052600436106101c25760003560e01c80638e28f6f0116100f7578063e30c397811610095578063f2fde38b11610064578063f2fde38b146104ca578063f7100389146104ea578063f8c464521461050a578063fc0c546a1461052a57600080fd5b8063e30c397814610462578063e634b21a14610480578063ee7e76d914610495578063f05f2436146104b557600080fd5b8063beeadf16116100d1578063beeadf16146103d4578063c83e4135146103f4578063d4524d5214610414578063da74a2d41461044257600080fd5b80638e28f6f01461038157806397796d8f14610394578063acc2166a146103b457600080fd5b8063556054e1116101645780638190f2331161013e5780638190f2331461030357806381bf829d146103235780638321928d146103435780638da5cb5b1461036357600080fd5b8063556054e1146102b9578063715018a6146102d957806379ba5097146102ee57600080fd5b80633829aea3116101a05780633829aea314610239578063416b16b51461025957806346decd2a146102795780634f2bfe5b1461029957600080fd5b8063296f5b23146101c75780632d58104b146102045780632ec6c5b614610219575b600080fd5b3480156101d357600080fd5b506005546101e7906001600160a01b031681565b6040516001600160a01b0390911681526020015b60405180910390f35b610217610212366004611ec8565b61054a565b005b34801561022557600080fd5b50610217610234366004611f41565b610692565b34801561024557600080fd5b50600c546101e7906001600160a01b031681565b34801561026557600080fd5b506004546101e7906001600160a01b031681565b34801561028557600080fd5b50610217610294366004611ff1565b6107cc565b3480156102a557600080fd5b50600e546101e7906001600160a01b031681565b3480156102c557600080fd5b506102176102d436600461200e565b610829565b3480156102e557600080fd5b50610217610a91565b3480156102fa57600080fd5b50610217610aa5565b34801561030f57600080fd5b5061021761031e366004612047565b610ae9565b34801561032f57600080fd5b506008546101e7906001600160a01b031681565b34801561034f57600080fd5b50600f546101e7906001600160a01b031681565b34801561036f57600080fd5b506000546001600160a01b03166101e7565b61021761038f36600461200e565b610c87565b3480156103a057600080fd5b506102176103af366004612091565b610ddf565b3480156103c057600080fd5b506010546101e7906001600160a01b031681565b3480156103e057600080fd5b50600b546101e7906001600160a01b031681565b34801561040057600080fd5b5061021761040f3660046120c7565b6110b7565b34801561042057600080fd5b5061043461042f3660046120c7565b6110f4565b6040519081526020016101fb565b34801561044e57600080fd5b50600d546101e7906001600160a01b031681565b34801561046e57600080fd5b506001546001600160a01b03166101e7565b34801561048c57600080fd5b50610217611115565b3480156104a157600080fd5b506102176104b03660046120e0565b611132565b3480156104c157600080fd5b506102176115a1565b3480156104d657600080fd5b506102176104e5366004611ff1565b6115be565b3480156104f657600080fd5b50610217610505366004612134565b61162f565b34801561051657600080fd5b50610217610525366004611ff1565b6117dc565b34801561053657600080fd5b50600a546101e7906001600160a01b031681565b336001600160a01b038216148061056057503330145b6105855760405162461bcd60e51b815260040161057c9061216b565b60405180910390fd5b61058e81611859565b6105da5760405162461bcd60e51b815260206004820152601b60248201527f4e6f206c6f636b2065786973747320666f722074686520757365720000000000604482015260640161057c565b60008211806105e95750600034115b6106285760405162461bcd60e51b815260206004820152601060248201526f416d6f756e747320617265207a65726f60801b604482015260640161057c565b6006602160991b016001600160a01b031663d0e30db0346040518263ffffffff1660e01b81526004016000604051808303818588803b15801561066a57600080fd5b505af115801561067e573d6000803e3d6000fd5b505050505061068e823483610829565b5050565b60008167ffffffffffffffff8111156106ad576106ad6121be565b6040519080825280602002602001820160405280156106d6578160200160208202803683370190505b50905060005b8281101561073d578383828181106106f6576106f66121d4565b905060200201602081019061070b9190611ff1565b82828151811061071d5761071d6121d4565b6001600160a01b03909216602092830291909101909101526001016106dc565b50601054604051638872046760e01b81526001600160a01b039091169063887204679061077090339085906004016121ea565b6000604051808303816000875af115801561078f573d6000803e3d6000fd5b505050506040513d6000823e601f3d908101601f191682016040526107b7919081019061230b565b506107c486868633611132565b505050505050565b6107d46118d2565b600380546001600160a01b0319166001600160a01b0383169081179091556040519081527f45c46eb1955b46f6a37722f37e31830803db01eaa7edda7d9b606d6f32897582906020015b60405180910390a150565b336001600160a01b038216148061083f57503330145b61085b5760405162461bcd60e51b815260040161057c9061216b565b61086481611859565b6108b05760405162461bcd60e51b815260206004820152601b60248201527f4e6f206c6f636b2065786973747320666f722074686520757365720000000000604482015260640161057c565b82156108ce57600d546108ce906001600160a01b03163330866118ff565b81156108e7576108e76006602160991b013330856118ff565b600480546040516370a0823160e01b815230928101929092526000916001600160a01b03909116906370a0823190602401602060405180830381865afa158015610935573d6000803e3d6000fd5b505050506040513d601f19601f820116820180604052508101906109599190612348565b60065490915061097b906006602160991b01906001600160a01b031685611970565b600654600d54610998916001600160a01b03918216911686611970565b6109a483853030610ae9565b600480546040516370a0823160e01b8152309281019290925282916001600160a01b03909116906370a0823190602401602060405180830381865afa1580156109f1573d6000803e3d6000fd5b505050506040513d601f19601f82011682018060405250810190610a159190612348565b610a1f9190612377565b6005546040516370a0823160e01b81523060048201529192506000916001600160a01b03909116906370a0823190602401602060405180830381865afa158015610a6d573d6000803e3d6000fd5b505050506040513d601f19601f820116820180604052508101906107c49190612348565b610a996118d2565b610aa36000611a52565b565b60015433906001600160a01b03168114610add5760405163118cdaa760e01b81526001600160a01b038216600482015260240161057c565b610ae681611a52565b50565b6040805160028082526060820183526000926020830190803683370190505090506006602160991b0181600081518110610b2557610b256121d4565b6001600160a01b039283166020918202929092010152600354825191169082906001908110610b5657610b566121d4565b6001600160a01b039290921660209283029190910182015260408051600280825260608201835260009391929091830190803683370190505090508581600081518110610ba557610ba56121d4565b6020026020010181815250508481600181518110610bc557610bc56121d4565b602090810291909101015260006001826000604051602001610be9939291906123c6565b60408051601f198184030181526080830182528583526020830185905282820181905260006060840152600654600754925163172b958560e31b81529194506001600160a01b03169163b95cac2891610c4b91908a908a90879060040161243f565b600060405180830381600087803b158015610c6557600080fd5b505af1158015610c79573d6000803e3d6000fd5b505050505050505050505050565b336001600160a01b0382161480610c9d57503330145b610cb95760405162461bcd60e51b815260040161057c9061216b565b6000831180610cc85750600034115b610d075760405162461bcd60e51b815260206004820152601060248201526f416d6f756e747320617265207a65726f60801b604482015260640161057c565b610d1081611859565b15610d5d5760405162461bcd60e51b815260206004820181905260248201527f6c6f636b20616c72656164792065786973747320666f72207468652075736572604482015260640161057c565b6006602160991b016001600160a01b031663d0e30db0346040518263ffffffff1660e01b81526004016000604051808303818588803b158015610d9f57600080fd5b505af1158015610db3573d6000803e3d6000fd5b50610dce93506006602160991b019250339150349050611a6b565b610dda83348484610ddf565b505050565b336001600160a01b0382161480610df557503330145b610e115760405162461bcd60e51b815260040161057c9061216b565b610e1a81611859565b15610e675760405162461bcd60e51b815260206004820181905260248201527f6c6f636b20616c72656164792065786973747320666f72207468652075736572604482015260640161057c565b60405184815233907f4ba54330f8090ac87ed0a0b470fd9c8a6bbec84bfe94f4fa7776d1dc27da9f9c9060200160405180910390a2600084118015610eac5750333014155b15610ec957600d54610ec9906001600160a01b03163330876118ff565b600083118015610ed95750333014155b15610ef157610ef16006602160991b013330866118ff565b600480546040516370a0823160e01b815230928101929092526000916001600160a01b03909116906370a0823190602401602060405180830381865afa158015610f3f573d6000803e3d6000fd5b505050506040513d601f19601f82011682018060405250810190610f639190612348565b600654909150610f85906006602160991b01906001600160a01b031686611970565b600654600d54610fa2916001600160a01b03918216911687611970565b610fae84863030610ae9565b600480546040516370a0823160e01b8152309281019290925282916001600160a01b03909116906370a0823190602401602060405180830381865afa158015610ffb573d6000803e3d6000fd5b505050506040513d601f19601f8201168201806040525081019061101f9190612348565b6110299190612377565b600454909150611043906001600160a01b03168383611a6b565b600e54604051633d535f4160e11b81526001600160a01b038481166004830152602482018490526044820186905290911690637aa6be8290606401600060405180830381600087803b15801561109857600080fd5b505af11580156110ac573d6000803e3d6000fd5b505050505050505050565b6110bf6118d2565b60078190556040518181527fa3e30156306d040fdb0497ed16d110e0e0ff49e8d37b2b1844e3e4d0d848af039060200161081e565b60045460009061110f9033906001600160a01b031684611a9b565b92915050565b61111d6118d2565b600654610aa3906001600160a01b0316611c18565b336001600160a01b038216148061114857503330145b6111645760405162461bcd60e51b815260040161057c9061216b565b6040516370a0823160e01b81526001600160a01b03821660048201526000906006602160991b01906370a0823190602401602060405180830381865afa1580156111b2573d6000803e3d6000fd5b505050506040513d601f19601f820116820180604052508101906111d69190612348565b6040516370a0823160e01b81523060048201529091506000906006602160991b01906370a0823190602401602060405180830381865afa15801561121e573d6000803e3d6000fd5b505050506040513d601f19601f820116820180604052508101906112429190612348565b600f5460405191925060009182916001600160a01b0316908290611269908b908b90612514565b60006040518083038185875af1925050503d80600081146112a6576040519150601f19603f3d011682016040523d82523d6000602084013e6112ab565b606091505b5091509150816112eb5760405162461bcd60e51b815260206004820152600b60248201526a14ddd85c0819985a5b195960aa1b604482015260640161057c565b6040516370a0823160e01b81526001600160a01b038616600482015261137b90309086906006602160991b01906370a0823190602401602060405180830381865afa15801561133e573d6000803e3d6000fd5b505050506040513d601f19601f820116820180604052508101906113629190612348565b61136c9190612377565b6006602160991b019190611a6b565b6040516370a0823160e01b815230600482015283906006602160991b01906370a0823190602401602060405180830381865afa1580156113bf573d6000803e3d6000fd5b505050506040513d601f19601f820116820180604052508101906113e39190612348565b6113ed9190612377565b9250600083116114365760405162461bcd60e51b8152602060048201526014602482015273574554482062616c616e6365206973207a65726f60601b604482015260640161057c565b600480546040516370a0823160e01b815230928101929092526000916001600160a01b03909116906370a0823190602401602060405180830381865afa158015611484573d6000803e3d6000fd5b505050506040513d601f19601f820116820180604052508101906114a89190612348565b6006549091506114ca906006602160991b01906001600160a01b031686611970565b6114d584303061162f565b600480546040516370a0823160e01b8152309281019290925282916001600160a01b03909116906370a0823190602401602060405180830381865afa158015611522573d6000803e3d6000fd5b505050506040513d601f19601f820116820180604052508101906115469190612348565b6115509190612377565b9050600081116115985760405162461bcd60e51b81526020600482015260136024820152724250542062616c616e6365206973207a65726f60681b604482015260640161057c565b6110ac81611c2c565b6115a96118d2565b600654610aa3906001600160a01b0316611cca565b6115c66118d2565b600180546001600160a01b0383166001600160a01b031990911681179091556115f76000546001600160a01b031690565b6001600160a01b03167f38d16b8cac22d99fc7c124b9cd0de2d3fa1faef420bfe791d8c362d765e2270060405160405180910390a350565b604080516002808252606082018352600092602083019080368337505060035482519293506001600160a01b031691839150600090611670576116706121d4565b60200260200101906001600160a01b031690816001600160a01b0316815250506006602160991b01816001815181106116ab576116ab6121d4565b6001600160a01b039290921660209283029190910182015260408051600280825260608201835260009391929091830190803683370190505090506000816000815181106116fb576116fb6121d4565b602002602001018181525050848160018151811061171b5761171b6121d4565b60209081029190910101526000600182600060405160200161173f939291906123c6565b60408051601f198184030181526080830182528583526020830185905282820181905260006060840152600654600754925163172b958560e31b81529194506001600160a01b03169163b95cac28916117a191908a908a90879060040161243f565b600060405180830381600087803b1580156117bb57600080fd5b505af11580156117cf573d6000803e3d6000fd5b5050505050505050505050565b6117e46118d2565b6001600160a01b03811661180b5760405163d92e233d60e01b815260040160405180910390fd5b600680546001600160a01b0319166001600160a01b0383169081179091556040519081527ffdfe548aa3dcee9e1afd9748ce2a57b579994c3d33f8e82501c60accfdf58bd39060200161081e565b600e5460405163adc6358960e01b81526001600160a01b038381166004830152600092429291169063adc6358990602401602060405180830381865afa1580156118a7573d6000803e3d6000fd5b505050506040513d601f19601f820116820180604052508101906118cb9190612348565b1192915050565b6000546001600160a01b03163314610aa35760405163118cdaa760e01b815233600482015260240161057c565b6040516001600160a01b038085166024830152831660448201526064810182905261196a9085906323b872dd60e01b906084015b60408051601f198184030181529190526020810180516001600160e01b03166001600160e01b031990931692909217909152611cdd565b50505050565b80158015906119ed5750604051636eb1769f60e11b81523060048201526001600160a01b03838116602483015284169063dd62ed3e90604401602060405180830381865afa1580156119c6573d6000803e3d6000fd5b505050506040513d601f19601f820116820180604052508101906119ea9190612348565b15155b15611a22576040516001600160a01b038316602482015260006044820152611a2290849063095ea7b360e01b90606401611933565b6040516001600160a01b038316602482015260448101829052610dda90849063095ea7b360e01b90606401611933565b600180546001600160a01b0319169055610ae681611d79565b6040516001600160a01b038316602482015260448101829052610dda90849063a9059cbb60e01b90606401611933565b600080836001600160a01b03166318160ddd6040518163ffffffff1660e01b8152600401602060405180830381865afa158015611adc573d6000803e3d6000fd5b505050506040513d601f19601f82011682018060405250810190611b009190612348565b600654600754604051631f29a8cd60e31b8152600481019190915291925060009182916001600160a01b03169063f94d466890602401600060405180830381865afa158015611b53573d6000803e3d6000fd5b505050506040513d6000823e601f3d908101601f19168201604052611b7b9190810190612524565b509150915060005b8251811015611c085760035483516001600160a01b0390911690849083908110611baf57611baf6121d4565b60200260200101516001600160a01b031603611c00578386838381518110611bd957611bd96121d4565b6020026020010151611beb91906125fd565b611bf59190612614565b945050505050611c11565b600101611b83565b50600093505050505b9392505050565b610ae66006602160991b0182600019611dc9565b600854600454611c49916001600160a01b03918216911683611dc9565b6008546009546040516321d0683360e11b8152600481019190915260248101839052600160448201526001600160a01b03909116906343a0d066906064016020604051808303816000875af1158015611ca6573d6000803e3d6000fd5b505050506040513d601f19601f8201168201806040525081019061068e9190612636565b610ae66006602160991b01826000611dc9565b600080836001600160a01b031683604051611cf89190612658565b6000604051808303816000865af19150503d8060008114611d35576040519150601f19603f3d011682016040523d82523d6000602084013e611d3a565b606091505b50909250905081611d4f573d6000803e3d6000fd5b61196a815160001480611d71575081806020019051810190611d719190612636565b6101a2611e49565b600080546001600160a01b038381166001600160a01b0319831681178455604051919092169283917f8be0079c531659141344cd1fd0a4f28419497f9722a3daafe3b4186f6b6457e09190a35050565b600060405163095ea7b360e01b81526001600160a01b0384166004820152826024820152602060006044836000895af13d15601f3d116001600051141617169150508061196a5760405162461bcd60e51b815260206004820152600e60248201526d1054141493d59157d1905253115160921b604482015260640161057c565b8161068e5762461bcd60e51b600090815260206004526007602452600a808304818106603090810160081b83860601918390049283060160101b016642414c230000300160c81b604481905261068e928492610ae69290916210905360ea1b916242414c91606490fd5b6001600160a01b0381168114610ae657600080fd5b60008060408385031215611edb57600080fd5b823591506020830135611eed81611eb3565b809150509250929050565b60008083601f840112611f0a57600080fd5b50813567ffffffffffffffff811115611f2257600080fd5b602083019150836020828501011115611f3a57600080fd5b9250929050565b600080600080600060608688031215611f5957600080fd5b853567ffffffffffffffff811115611f7057600080fd5b611f7c88828901611ef8565b90965094505060208601359250604086013567ffffffffffffffff811115611fa357600080fd5b8601601f81018813611fb457600080fd5b803567ffffffffffffffff811115611fcb57600080fd5b8860208260051b8401011115611fe057600080fd5b959894975092955050506020019190565b60006020828403121561200357600080fd5b8135611c1181611eb3565b60008060006060848603121561202357600080fd5b8335925060208401359150604084013561203c81611eb3565b809150509250925092565b6000806000806080858703121561205d57600080fd5b8435935060208501359250604085013561207681611eb3565b9150606085013561208681611eb3565b939692955090935050565b600080600080608085870312156120a757600080fd5b843593506020850135925060408501359150606085013561208681611eb3565b6000602082840312156120d957600080fd5b5035919050565b600080600080606085870312156120f657600080fd5b843567ffffffffffffffff81111561210d57600080fd5b61211987828801611ef8565b90955093505060208501359150604085013561208681611eb3565b60008060006060848603121561214957600080fd5b83359250602084013561215b81611eb3565b9150604084013561203c81611eb3565b60208082526033908201527f4f6e6c79205a6170706572206f722074686520726563697069656e742063616e6040820152721031b0b636103a3434b990333ab731ba34b7b760691b606082015260800190565b634e487b7160e01b600052604160045260246000fd5b634e487b7160e01b600052603260045260246000fd5b6001600160a01b0383168152604060208083018290528351918301829052600091908401906060840190835b8181101561223d5783516001600160a01b0316835260209384019390920191600101612216565b50909695505050505050565b604051601f8201601f1916810167ffffffffffffffff81118282101715612272576122726121be565b604052919050565b600067ffffffffffffffff821115612294576122946121be565b5060051b60200190565b600082601f8301126122af57600080fd5b81516122c26122bd8261227a565b612249565b8082825260208201915060208360051b8601019250858311156122e457600080fd5b602085015b838110156123015780518352602092830192016122e9565b5095945050505050565b60006020828403121561231d57600080fd5b815167ffffffffffffffff81111561233457600080fd5b6123408482850161229e565b949350505050565b60006020828403121561235a57600080fd5b5051919050565b634e487b7160e01b600052601160045260246000fd5b8181038181111561110f5761110f612361565b600081518084526020840193506020830160005b828110156123bc57815186526020958601959091019060010161239e565b5093949350505050565b8381526060602082015260006123df606083018561238a565b9050826040830152949350505050565b60005b8381101561240a5781810151838201526020016123f2565b50506000910152565b6000815180845261242b8160208601602086016123ef565b601f01601f19169290920160200192915050565b8481526001600160a01b03848116602080840191909152908416604083015260806060830181905283518184019190915280516101008401819052600092919091019082906101208501905b808310156124b65783516001600160a01b03168252602093840193600193909301929091019061248b565b506020860151858203607f190160a087015292506124d4818461238a565b925050506040840151607f198483030160c08501526124f38282612413565b915050606084015161250960e085018215159052565b509695505050505050565b8183823760009101908152919050565b60008060006060848603121561253957600080fd5b835167ffffffffffffffff81111561255057600080fd5b8401601f8101861361256157600080fd5b805161256f6122bd8261227a565b8082825260208201915060208360051b85010192508883111561259157600080fd5b6020840193505b828410156125bc5783516125ab81611eb3565b825260209384019390910190612598565b80965050505050602084015167ffffffffffffffff8111156125dd57600080fd5b6125e98682870161229e565b604095909501519396949550929392505050565b808202811582820484141761110f5761110f612361565b60008261263157634e487b7160e01b600052601260045260246000fd5b500490565b60006020828403121561264857600080fd5b81518015158114611c1157600080fd5b6000825161266a8184602087016123ef565b919091019291505056fea26469706673582212205aef8ce6b8a8c627238a3e788802dd7be781d07e3967362d1cf98e079ae0bd4464736f6c634300081a0033","linkReferences":{}},"methodIdentifiers":{"AURA()":"3829aea3","AutoCompoundRewards(bytes,uint256,address[])":"2ec6c5b6","BAL()":"beeadf16","IMO()":"da74a2d4","IMOETHAURABPT()":"296f5b23","IMOETHBPT()":"416b16b5","acceptOwnership()":"79ba5097","auraBooster()":"81bf829d","getUserImoBalanceFromPool(uint256)":"d4524d52","joinImoPool(uint256,uint256,address,address)":"8190f233","joinImoPoolOnlyWeth(uint256,address,address)":"f7100389","odosRouter()":"8321928d","owner()":"8da5cb5b","pendingOwner()":"e30c3978","removeBalancerAllowance()":"f05f2436","renounceOwnership()":"715018a6","resetBalancerAllowance()":"e634b21a","rewardDistributor()":"acc2166a","setBalancerPoolId(bytes32)":"c83e4135","setBalancerVault(address)":"f8c46452","setImoAddress(address)":"46decd2a","token()":"fc0c546a","transferOwnership(address)":"f2fde38b","votingEscrow()":"4f2bfe5b","zapAndDepositForLock(uint256,uint256,address)":"556054e1","zapAndDepositForLockNative(uint256,address)":"2d58104b","zapAndLockFor(uint256,uint256,uint256,address)":"97796d8f","zapAndLockForNative(uint256,uint256,address)":"8e28f6f0","zapAssetsToWethAndStake(bytes,uint256,address)":"ee7e76d9"},"id":2}