{"abi":[{"type":"constructor","inputs":[],"stateMutability":"nonpayable"},{"type":"function","name":"addAllowedRewardTokens","inputs":[{"name":"tokens","type":"address[]","internalType":"address[]"}],"outputs":[],"stateMutability":"nonpayable"},{"type":"function","name":"admin","inputs":[],"outputs":[{"name":"","type":"address","internalType":"address"}],"stateMutability":"view"},{"type":"function","name":"allowedRewardTokens","inputs":[{"name":"","type":"address","internalType":"address"}],"outputs":[{"name":"","type":"bool","internalType":"bool"}],"stateMutability":"view"},{"type":"function","name":"checkpoint","inputs":[],"outputs":[],"stateMutability":"nonpayable"},{"type":"function","name":"checkpointToken","inputs":[{"name":"token","type":"address","internalType":"contract IERC20"}],"outputs":[],"stateMutability":"nonpayable"},{"type":"function","name":"checkpointTokens","inputs":[{"name":"tokens","type":"address[]","internalType":"contract IERC20[]"}],"outputs":[],"stateMutability":"nonpayable"},{"type":"function","name":"checkpointUser","inputs":[{"name":"user","type":"address","internalType":"address"}],"outputs":[],"stateMutability":"nonpayable"},{"type":"function","name":"claimToken","inputs":[{"name":"user","type":"address","internalType":"address"},{"name":"token","type":"address","internalType":"contract IERC20"}],"outputs":[{"name":"","type":"uint256","internalType":"uint256"}],"stateMutability":"nonpayable"},{"type":"function","name":"claimTokens","inputs":[{"name":"user","type":"address","internalType":"address"},{"name":"tokens","type":"address[]","internalType":"contract IERC20[]"}],"outputs":[{"name":"","type":"uint256[]","internalType":"uint256[]"}],"stateMutability":"nonpayable"},{"type":"function","name":"depositToken","inputs":[{"name":"token","type":"address","internalType":"contract IERC20"},{"name":"amount","type":"uint256","internalType":"uint256"}],"outputs":[],"stateMutability":"nonpayable"},{"type":"function","name":"depositTokens","inputs":[{"name":"tokens","type":"address[]","internalType":"contract IERC20[]"},{"name":"amounts","type":"uint256[]","internalType":"uint256[]"}],"outputs":[],"stateMutability":"nonpayable"},{"type":"function","name":"faucetDepositToken","inputs":[{"name":"token","type":"address","internalType":"contract IERC20"},{"name":"amount","type":"uint256","internalType":"uint256"}],"outputs":[],"stateMutability":"nonpayable"},{"type":"function","name":"getAllowedRewardTokens","inputs":[],"outputs":[{"name":"","type":"address[]","internalType":"address[]"}],"stateMutability":"view"},{"type":"function","name":"getDomainSeparator","inputs":[],"outputs":[{"name":"","type":"bytes32","internalType":"bytes32"}],"stateMutability":"view"},{"type":"function","name":"getNextNonce","inputs":[{"name":"account","type":"address","internalType":"address"}],"outputs":[{"name":"","type":"uint256","internalType":"uint256"}],"stateMutability":"view"},{"type":"function","name":"getTimeCursor","inputs":[],"outputs":[{"name":"","type":"uint256","internalType":"uint256"}],"stateMutability":"view"},{"type":"function","name":"getTokenLastBalance","inputs":[{"name":"token","type":"address","internalType":"contract IERC20"}],"outputs":[{"name":"","type":"uint256","internalType":"uint256"}],"stateMutability":"view"},{"type":"function","name":"getTokenTimeCursor","inputs":[{"name":"token","type":"address","internalType":"contract IERC20"}],"outputs":[{"name":"","type":"uint256","internalType":"uint256"}],"stateMutability":"view"},{"type":"function","name":"getTokensDistributedInWeek","inputs":[{"name":"token","type":"address","internalType":"contract IERC20"},{"name":"timestamp","type":"uint256","internalType":"uint256"}],"outputs":[{"name":"","type":"uint256","internalType":"uint256"}],"stateMutability":"view"},{"type":"function","name":"getTotalSupplyAtTimestamp","inputs":[{"name":"timestamp","type":"uint256","internalType":"uint256"}],"outputs":[{"name":"","type":"uint256","internalType":"uint256"}],"stateMutability":"view"},{"type":"function","name":"getUserBalanceAtTimestamp","inputs":[{"name":"user","type":"address","internalType":"address"},{"name":"timestamp","type":"uint256","internalType":"uint256"}],"outputs":[{"name":"","type":"uint256","internalType":"uint256"}],"stateMutability":"view"},{"type":"function","name":"getUserTimeCursor","inputs":[{"name":"user","type":"address","internalType":"address"}],"outputs":[{"name":"","type":"uint256","internalType":"uint256"}],"stateMutability":"view"},{"type":"function","name":"getUserTokenTimeCursor","inputs":[{"name":"user","type":"address","internalType":"address"},{"name":"token","type":"address","internalType":"contract IERC20"}],"outputs":[{"name":"","type":"uint256","internalType":"uint256"}],"stateMutability":"view"},{"type":"function","name":"getVotingEscrow","inputs":[],"outputs":[{"name":"","type":"address","internalType":"contract IVotingEscrow"}],"stateMutability":"view"},{"type":"function","name":"initialize","inputs":[{"name":"votingEscrow","type":"address","internalType":"contract IVotingEscrow"},{"name":"rewardFaucet_","type":"address","internalType":"contract IRewardFaucet"},{"name":"startTime","type":"uint256","internalType":"uint256"},{"name":"admin_","type":"address","internalType":"address"}],"outputs":[],"stateMutability":"nonpayable"},{"type":"function","name":"isInitialized","inputs":[],"outputs":[{"name":"","type":"bool","internalType":"bool"}],"stateMutability":"view"},{"type":"function","name":"isOnlyCallerEnabled","inputs":[{"name":"user","type":"address","internalType":"address"}],"outputs":[{"name":"","type":"bool","internalType":"bool"}],"stateMutability":"view"},{"type":"function","name":"rewardFaucet","inputs":[],"outputs":[{"name":"","type":"address","internalType":"contract IRewardFaucet"}],"stateMutability":"view"},{"type":"function","name":"setOnlyCallerCheck","inputs":[{"name":"enabled","type":"bool","internalType":"bool"}],"outputs":[],"stateMutability":"nonpayable"},{"type":"function","name":"setOnlyCallerCheckWithSignature","inputs":[{"name":"user","type":"address","internalType":"address"},{"name":"enabled","type":"bool","internalType":"bool"},{"name":"signature","type":"bytes","internalType":"bytes"}],"outputs":[],"stateMutability":"nonpayable"},{"type":"function","name":"transferAdmin","inputs":[{"name":"newAdmin","type":"address","internalType":"address"}],"outputs":[],"stateMutability":"nonpayable"},{"type":"event","name":"NewAdmin","inputs":[{"name":"newAdmin","type":"address","indexed":true,"internalType":"address"}],"anonymous":false},{"type":"event","name":"OnlyCallerOptIn","inputs":[{"name":"user","type":"address","indexed":false,"internalType":"address"},{"name":"enabled","type":"bool","indexed":false,"internalType":"bool"}],"anonymous":false},{"type":"event","name":"RewardDeposit","inputs":[{"name":"token","type":"address","indexed":false,"internalType":"contract IERC20"},{"name":"amount","type":"uint256","indexed":false,"internalType":"uint256"}],"anonymous":false},{"type":"event","name":"TokenAdded","inputs":[{"name":"token","type":"address","indexed":true,"internalType":"address"}],"anonymous":false},{"type":"event","name":"TokenCheckpointed","inputs":[{"name":"token","type":"address","indexed":false,"internalType":"contract IERC20"},{"name":"amount","type":"uint256","indexed":false,"internalType":"uint256"},{"name":"lastCheckpointTimestamp","type":"uint256","indexed":false,"internalType":"uint256"}],"anonymous":false},{"type":"event","name":"TokensClaimed","inputs":[{"name":"user","type":"address","indexed":false,"internalType":"address"},{"name":"token","type":"address","indexed":false,"internalType":"contract IERC20"},{"name":"amount","type":"uint256","indexed":false,"internalType":"uint256"},{"name":"userTokenTimeCursor","type":"uint256","indexed":false,"internalType":"uint256"}],"anonymous":false}],"bytecode":{"object":"0x60e060405234801561001057600080fd5b5060408051808201825260118152702932bbb0b9322234b9ba3934b13aba37b960791b602080830191825283518085019094526001808552603160f81b9185019182529251909120608052915190912060a0527f8b73c3c69bb8fe3d512ecc4cf759cc79239f7b179b0ffacaa9a75d522b39400f60c05260025560805160a05160c051612d586100b960003960006120b3015260006120f5015260006120d40152612d586000f3fe608060405234801561001057600080fd5b50600436106101e55760003560e01c806390193b7c1161010f578063de681faf116100a2578063ed3a088711610071578063ed3a088714610503578063f213bd8c14610526578063f851a44014610539578063fcaa54ee1461054c57600080fd5b8063de681faf1461049d578063e811f44b146104d3578063ece7514d146104e6578063ed24911d146104fb57600080fd5b8063be203094116100de578063be20309414610439578063c2c4c5c11461044c578063ca31879d14610454578063d3dc4ca11461046757600080fd5b806390193b7c14610398578063905d10ac146103c1578063a1648aa5146103d4578063acbc14281461040057600080fd5b80634c9a47d8116101875780638050a7ee116101565780638050a7ee1461032457806382aa5ad414610337578063876e69a11461033f578063887204671461037857600080fd5b80634c9a47d8146102cb5780634f3c5090146102de57806375829def146102fe5780637b8d62211461031157600080fd5b8063338b5dea116101c3578063338b5dea146102755780633902b9bc14610288578063392e53cd1461029b578063397bcd41146102b857600080fd5b806308b0308a146101ea57806314866e08146102195780632308805b1461022e575b600080fd5b60035461010090046001600160a01b03165b6040516001600160a01b0390911681526020015b60405180910390f35b61022c610227366004612637565b61055f565b005b61026761023c366004612637565b6001600160a01b03166000908152600b6020526040902054600160801b90046001600160801b031690565b604051908152602001610210565b61022c610283366004612654565b61057d565b61022c610296366004612637565b610641565b6003546102a89060ff1681565b6040519015158152602001610210565b6004546101fc906001600160a01b031681565b61022c6102d9366004612654565b61068c565b6102676102ec366004612680565b60009081526007602052604090205490565b61022c61030c366004612637565b610737565b61022c61031f3660046126e4565b61080c565b610267610332366004612753565b6109e3565b600654610267565b61026761034d366004612637565b6001600160a01b03166000908152600d6020526040902054600160401b90046001600160401b031690565b61038b61038636600461278c565b6109f8565b60405161021091906127e0565b6102676103a6366004612637565b6001600160a01b031660009081526020819052604090205490565b61022c6103cf366004612823565b610be7565b6102a86103e2366004612637565b6001600160a01b031660009081526001602052604090205460ff1690565b61026761040e366004612637565b6001600160a01b03166000908152600b6020526040902054600160401b90046001600160401b031690565b61022c610447366004612864565b610c88565b61022c610f09565b610267610462366004612753565b610f25565b610267610475366004612654565b6001600160a01b03919091166000908152600c60209081526040808320938352929052205490565b6102676104ab366004612654565b6001600160a01b03919091166000908152600e60209081526040808320938352929052205490565b61022c6104e13660046128c5565b61100a565b6104ee611014565b60405161021091906128e2565b610267611076565b6102a8610511366004612637565b600a6020526000908152604090205460ff1681565b61022c610534366004612823565b611085565b6008546101fc906001600160a01b031681565b61022c61055a366004612969565b611274565b610567611315565b6105708161132c565b61057a6001600255565b50565b610585611315565b6001600160a01b0382166000908152600a602052604090205460ff166105c65760405162461bcd60e51b81526004016105bd90612a26565b60405180910390fd5b6105d1826000611756565b6105e66001600160a01b038316333084611baa565b6105f1826001611756565b604080516001600160a01b0384168152602081018390527f95bf5847357310d24f8d03d8bad76c8ee329dfd3a3cb200df21c7bd1619e93bd910160405180910390a161063d6001600255565b5050565b610649611315565b6001600160a01b0381166000908152600a602052604090205460ff166106815760405162461bcd60e51b81526004016105bd90612a26565b610570816001611756565b6001600160a01b0382166000908152600a602052604090205460ff166106c45760405162461bcd60e51b81526004016105bd90612a26565b6004546001600160a01b0316331461070c5760405162461bcd60e51b815260206004820152600b60248201526a1bdb9b1e4819985d58d95d60aa1b60448201526064016105bd565b610717826000611756565b61072c6001600160a01b038316333084611baa565b61063d826001611756565b6008546001600160a01b0316331461077d5760405162461bcd60e51b81526020600482015260096024820152683737ba1030b236b4b760b91b60448201526064016105bd565b6001600160a01b0381166107c25760405162461bcd60e51b815260206004820152600c60248201526b7a65726f206164647265737360a01b60448201526064016105bd565b600880546001600160a01b0319166001600160a01b0383169081179091556040517f71614071b88dee5e0b2ae578a9dd7b2ebbe9ae832ba419dc0242cd065a290b6c90600090a250565b610814611315565b61081e8382611c15565b8260005b818110156109d157600a600087878481811061084057610840612a48565b90506020020160208101906108559190612637565b6001600160a01b0316815260208101919091526040016000205460ff1661088e5760405162461bcd60e51b81526004016105bd90612a26565b6108bf8686838181106108a3576108a3612a48565b90506020020160208101906108b89190612637565b6000611756565b61091533308686858181106108d6576108d6612a48565b905060200201358989868181106108ef576108ef612a48565b90506020020160208101906109049190612637565b6001600160a01b0316929190611baa565b61094686868381811061092a5761092a612a48565b905060200201602081019061093f9190612637565b6001611756565b7f95bf5847357310d24f8d03d8bad76c8ee329dfd3a3cb200df21c7bd1619e93bd86868381811061097957610979612a48565b905060200201602081019061098e9190612637565b8585848181106109a0576109a0612a48565b604080516001600160a01b0390951685526020918202939093013590840152500160405180910390a1600101610822565b50506109dd6001600255565b50505050565b60006109ef8383611c22565b90505b92915050565b6060610a02611315565b83610a0c81611ca6565b610a14611cde565b610a1d8561132c565b826000816001600160401b03811115610a3857610a38612923565b604051908082528060200260200182016040528015610a61578160200160208202803683370190505b50905060005b82811015610bd157600a6000888884818110610a8557610a85612a48565b9050602002016020810190610a9a9190612637565b6001600160a01b0316815260208101919091526040016000205460ff16610ad35760405162461bcd60e51b81526004016105bd90612a26565b610ae88787838181106108a3576108a3612a48565b610b1888888884818110610afe57610afe612a48565b9050602002016020810190610b139190612637565b611e1d565b828281518110610b2a57610b2a612a48565b60209081029190910101526004546001600160a01b031663c7b56abe888884818110610b5857610b58612a48565b9050602002016020810190610b6d9190612637565b6040516001600160e01b031960e084901b1681526001600160a01b039091166004820152602401600060405180830381600087803b158015610bae57600080fd5b505af1158015610bc2573d6000803e3d6000fd5b50505050806001019050610a67565b5092505050610be06001600255565b9392505050565b610bef611315565b8060005b81811015610c7c57600a6000858584818110610c1157610c11612a48565b9050602002016020810190610c269190612637565b6001600160a01b0316815260208101919091526040016000205460ff16610c5f5760405162461bcd60e51b81526004016105bd90612a26565b610c7484848381811061092a5761092a612a48565b600101610bf3565b505061063d6001600255565b60035460ff1615610cc45760405162461bcd60e51b815260206004820152600660248201526521747769636560d01b60448201526064016105bd565b6003805460ff191660011790556001600160a01b03811615801590610cf157506001600160a01b03831615155b610d255760405162461bcd60e51b8152602060048201526005602482015264217a65726f60d81b60448201526064016105bd565b600880546001600160a01b038084166001600160a01b0319928316179092556004805486841692169190911790556003805491861661010002610100600160a81b0319909216919091179055610d7a82612030565b91506000610d8742612030565b905080831015610dd95760405162461bcd60e51b815260206004820181905260248201527f43616e6e6f74207374617274206265666f72652063757272656e74207765656b60448201526064016105bd565b610de681625c4900612a74565b831115610e2a5760405162461bcd60e51b81526020600482015260126024820152710626040eecacad6e640c8cad8c2f240dac2f60731b60448201526064016105bd565b808303610efb5760405163bd85b03960e01b8152600481018290526000906001600160a01b0387169063bd85b03990602401602060405180830381865afa158015610e79573d6000803e3d6000fd5b505050506040513d601f19601f82011682018060405250810190610e9d9190612a87565b11610efb5760405162461bcd60e51b815260206004820152602860248201527f5a65726f20746f74616c20737570706c7920726573756c747320696e206c6f736044820152677420746f6b656e7360c01b60648201526084016105bd565b505060058190556006555050565b610f11611315565b610f19611cde565b610f236001600255565b565b6000610f2f611315565b82610f3981611ca6565b6001600160a01b0383166000908152600a602052604090205460ff16610f715760405162461bcd60e51b81526004016105bd90612a26565b610f79611cde565b610f828461132c565b610f8d836000611756565b6000610f998585611e1d565b600480546040516363dab55f60e11b81526001600160a01b0388811693820193909352929350169063c7b56abe90602401600060405180830381600087803b158015610fe457600080fd5b505af1158015610ff8573d6000803e3d6000fd5b50929450505050506109f26001600255565b61057a338261204c565b6060600980548060200260200160405190810160405280929190818152602001828054801561106c57602002820191906000526020600020905b81546001600160a01b0316815260019091019060200180831161104e575b5050505050905090565b60006110806120af565b905090565b6008546001600160a01b031633146110cb5760405162461bcd60e51b81526020600482015260096024820152683737ba1030b236b4b760b91b60448201526064016105bd565b60005b8181101561126f57600a60008484848181106110ec576110ec612a48565b90506020020160208101906111019190612637565b6001600160a01b0316815260208101919091526040016000205460ff161561115b5760405162461bcd60e51b815260206004820152600d60248201526c185b1c9958591e48195e1a5cdd609a1b60448201526064016105bd565b6001600a600085858581811061117357611173612a48565b90506020020160208101906111889190612637565b6001600160a01b031681526020810191909152604001600020805460ff191691151591909117905560098383838181106111c4576111c4612a48565b90506020020160208101906111d99190612637565b81546001810183556000928352602090922090910180546001600160a01b0319166001600160a01b0390921691909117905582828281811061121d5761121d612a48565b90506020020160208101906112329190612637565b6001600160a01b03167f784c8f4dbf0ffedd6e72c76501c545a70f8b203b30a26ce542bf92ba87c248a460405160405180910390a26001016110ce565b505050565b60007fbd291ffccec065968fe20c5f8debdad73ab50837733f357eeae8814178015a9084846112b8876001600160a01b031660009081526020819052604090205490565b6040805160208101959095526001600160a01b039093169284019290925215156060830152608082015260a00160405160208183030381529060405280519060200120905061130b8482846101f8612155565b6109dd848461204c565b611326600280541415610190612164565b60028055565b60035460405163010ae75760e01b81526001600160a01b0383811660048301526000926101009004169063010ae75790602401602060405180830381865afa15801561137c573d6000803e3d6000fd5b505050506040513d601f19601f820116820180604052508101906113a09190612a87565b9050806000036113ae575050565b6001600160a01b0382166000908152600d6020526040812080549091600160401b9091046001600160401b0316908181036113f9576113f285600554600087612172565b905061143b565b428210611407575050505050565b508154600160801b90046001600160801b031660146114268286612aa0565b111561143b5761143885838387612172565b90505b80600003611447575060015b6003546040516328d09d4760e01b81526001600160a01b03878116600483015260248201849052600092610100900416906328d09d4790604401608060405180830381865afa15801561149e573d6000803e3d6000fd5b505050506040513d601f19601f820116820180604052508101906114c29190612aca565b9050826000036115295760055442116114ed5760405162461bcd60e51b81526004016105bd90612b3c565b61150c6005546115008360400151612266565b80820390821002900390565b845467ffffffffffffffff19166001600160401b03821617855592505b6040805160808101825260008082526020820181905291810182905260608101829052905b6032811015611707578260400151851015801561156b5750868411155b1561163c5761157b600185612a74565b9350829150868411156115ba5760405180608001604052806000600f0b81526020016000600f0b815260200160008152602001600081525092506116ff565b6003546040516328d09d4760e01b81526001600160a01b038a8116600483015260248201879052610100909204909116906328d09d4790604401608060405180830381865afa158015611611573d6000803e3d6000fd5b505050506040513d601f19601f820116820180604052508101906116359190612aca565b92506116ff565b428510156117075760008260400151866116569190612b83565b9050600081846020015161166a9190612baa565b600f0b8460000151600f0b136116815760006116a1565b8184602001516116919190612baa565b845161169d9190612bca565b600f0b5b9050801580156116b057508886115b156116c7576116be42612266565b96505050611707565b6001600160a01b038a166000908152600e602090815260408083208a845290915290208190556116fa62093a8088612a74565b965050505b60010161154e565b50611713600184612aa0565b85546001600160401b03908116918116600160801b0267ffffffffffffffff60401b191691909117600160401b9590911694909402939093179093555050505050565b6001600160a01b0382166000908152600b6020526040812080549091600160401b9091046001600160401b0316908181036117d95742915061179742612030565b835467ffffffffffffffff19166001600160401b039190911617835560055442116117d45760405162461bcd60e51b81526004016105bd90612b3c565b61183a565b6117e38242612aa0565b90508361183a5760006117f583612030565b6117fe42612030565b1490506000620151804261181142612266565b61181b9190612aa0565b109050818015611829575080155b156118375750505050505050565b50505b825467ffffffffffffffff60401b1916600160401b426001600160401b0316021783556040516370a0823160e01b81523060048201526000906001600160a01b038716906370a0823190602401602060405180830381865afa1580156118a4573d6000803e3d6000fd5b505050506040513d601f19601f820116820180604052508101906118c89190612a87565b84549091506000906118eb908390600160801b90046001600160801b0316612289565b9050806000036118fe5750505050505050565b6001600160801b038211156119555760405162461bcd60e51b815260206004820152601e60248201527f4d6178696d756d20746f6b656e2062616c616e6365206578636565646564000060448201526064016105bd565b600061196085612030565b6001600160a01b0389166000908152600c602052604081209192509081805b6014811015611b52576119958562093a80612a74565b935083421015611a7357871580156119ac57508842145b156119b9578591506119db565b876119c48a42612aa0565b6119ce9088612c09565b6119d89190612c20565b91505b6000858152602084905260409020546001600160801b03906119fd9084612297565b11611a6e5760008581526020849052604081208054849290611a20908490612a74565b9091555050895482908b90601090611a49908490600160801b90046001600160801b0316612c42565b92506101000a8154816001600160801b0302191690836001600160801b031602179055505b611b52565b87158015611a8057508884145b15611a8d57859150611aaf565b87611a988a86612aa0565b611aa29088612c09565b611aac9190612c20565b91505b6000858152602084905260409020546001600160801b0390611ad19084612297565b11611b425760008581526020849052604081208054849290611af4908490612a74565b9091555050895482908b90601090611b1d908490600160801b90046001600160801b0316612c42565b92506101000a8154816001600160801b0302191690836001600160801b031602179055505b929750879350839260010161197f565b50604080516001600160a01b038d168152602081018790529081018990527f9b7f1a85a4c9b4e59e1b6527d9969c50cdfb3a1a467d0c4a51fb0ed8bf07f1309060600160405180910390a15050505050505050505050565b6040516001600160a01b03808516602483015283166044820152606481018290526109dd9085906323b872dd60e01b906084015b60408051601f198184030181529190526020810180516001600160e01b03166001600160e01b0319909316929092179091526122b4565b61063d8183146067612164565b6001600160a01b038083166000908152600f602090815260408083209385168352929052908120548015611c575790506109f2565b6001600160a01b038085166000908152600d60209081526040808320549387168352600b909152902054611c9e916001600160401b03908116911680820390821002900390565b949350505050565b6001600160a01b03811660009081526001602052604090205460ff161561057a5761057a336001600160a01b03831614610191612164565b6006546000611cec42612030565b905080821180611cfb57504281145b15611d04575050565b600360019054906101000a90046001600160a01b03166001600160a01b031663c2c4c5c16040518163ffffffff1660e01b8152600401600060405180830381600087803b158015611d5457600080fd5b505af1158015611d68573d6000803e3d6000fd5b5050505060005b6014811015611e1657818311611e165760035460405163bd85b03960e01b8152600481018590526101009091046001600160a01b03169063bd85b03990602401602060405180830381865afa158015611dcc573d6000803e3d6000fd5b505050506040513d601f19601f82011682018060405250810190611df09190612a87565b600084815260076020526040902055611e0c62093a8084612a74565b9250600101611d6f565b5050600655565b6001600160a01b0381166000908152600b6020526040812081611e408585611c22565b6006546001600160a01b0387166000908152600d602052604081205492935091611ead91611e8691600160401b90046001600160401b0316808211908203029003612266565b8454611ea190600160401b90046001600160401b0316612030565b80820390821102900390565b6001600160a01b038087166000908152600c60209081526040808320938b168352600e9091528120929350909190805b6014811015611f595784861015611f595760008681526007602052604090205415611f59576000868152600760209081526040808320548683528184205492889052922054611f2c9190612c09565b611f369190612c20565b611f409083612a74565b9150611f4f62093a8087612a74565b9550600101611edd565b506001600160a01b03808a166000908152600f60209081526040808320938c168352929052208590558015612024578554611fa5908290600160801b90046001600160801b0316612aa0565b86546001600160801b03918216600160801b029116178655611fd16001600160a01b0389168a83612350565b604080516001600160a01b03808c1682528a166020820152908101829052606081018690527fff097c7d8b1957a4ff09ef1361b5fb54dcede3941ba836d0beb9d10bec725de69060800160405180910390a15b98975050505050505050565b600061203f62093a8083612c20565b6109f29062093a80612c09565b6001600160a01b038216600081815260016020908152604091829020805460ff19168515159081179091558251938452908301527fac9874a7a931a3f5c9f202c6d9cf40de5d21506993c9f9c38ca8265add89584c910160405180910390a15050565b60007f00000000000000000000000000000000000000000000000000000000000000007f00000000000000000000000000000000000000000000000000000000000000007f000000000000000000000000000000000000000000000000000000000000000046604080516020810195909552840192909252606083015260808201523060a082015260c00160405160208183030381529060405280519060200120905090565b6109dd84848460001985612380565b8161063d5761063d816123e6565b60008282825b608081101561225a578183101561225a57600060026121978486612a74565b6121a2906002612a74565b6121ac9190612c20565b6003546040516328d09d4760e01b81526001600160a01b038c8116600483015260248201849052929350600092610100909204909116906328d09d4790604401608060405180830381865afa158015612209573d6000803e3d6000fd5b505050506040513d601f19601f8201168201806040525081019061222d9190612aca565b90508881604001511161224257819450612250565b61224d600183612aa0565b93505b5050600101612178565b50909695505050505050565b60006109f2600161227a8462093a80612a74565b6122849190612aa0565b612030565b60006109ef838360016123f6565b6000806122a48385612a74565b90506109ef848210156000612164565b600080836001600160a01b0316836040516122cf9190612c85565b6000604051808303816000865af19150503d806000811461230c576040519150601f19603f3d011682016040523d82523d6000602084013e612311565b606091505b50909250905081612326573d6000803e3d6000fd5b6109dd8151600014806123485750818060200190518101906123489190612ca1565b6101a2612164565b6040516001600160a01b03831660248201526044810182905261126f90849063a9059cbb60e01b90606401611bde565b600061238b8561241a565b90506123a161239b878387612461565b83612164565b6123b0428410156101b8612164565b6001600160a01b03861660009081526020819052604081208054600192906123d9908490612a74565b9091555050505050505050565b61057a816210905360ea1b612508565b60006124058484111583612164565b60006124118486612aa0565b95945050505050565b60006124246120af565b60405161190160f01b6020820152602281019190915260428101839052606201604051602081830303815290604052805190602001209050919050565b60006001600160a01b0384163b156124f657604051630b135d3f60e11b808252906001600160a01b03861690631626ba7e906124a39087908790600401612cbe565b602060405180830381865afa1580156124c0573d6000803e3d6000fd5b505050506040513d601f19601f820116820180604052508101906124e49190612cf8565b6001600160e01b031916149050610be0565b61250184848461256b565b9050610be0565b62461bcd60e51b600090815260206004526007602452600a808404818106603090810160081b958390069590950190829004918206850160101b01602363ffffff0060e086901c160160181b0190930160c81b604481905260e883901c91606490fd5b600061257d82516041146101b9612164565b602082810151604080850151606080870151835160008082529681018086528a905290861a938101849052908101849052608081018290529293909260019060a0016020604051602081039080840390855afa1580156125e1573d6000803e3d6000fd5b5050604051601f1901519150506001600160a01b038116158015906120245750876001600160a01b0316816001600160a01b03161498975050505050505050565b6001600160a01b038116811461057a57600080fd5b60006020828403121561264957600080fd5b81356109ef81612622565b6000806040838503121561266757600080fd5b823561267281612622565b946020939093013593505050565b60006020828403121561269257600080fd5b5035919050565b60008083601f8401126126ab57600080fd5b5081356001600160401b038111156126c257600080fd5b6020830191508360208260051b85010111156126dd57600080fd5b9250929050565b600080600080604085870312156126fa57600080fd5b84356001600160401b0381111561271057600080fd5b61271c87828801612699565b90955093505060208501356001600160401b0381111561273b57600080fd5b61274787828801612699565b95989497509550505050565b6000806040838503121561276657600080fd5b823561277181612622565b9150602083013561278181612622565b809150509250929050565b6000806000604084860312156127a157600080fd5b83356127ac81612622565b925060208401356001600160401b038111156127c757600080fd5b6127d386828701612699565b9497909650939450505050565b602080825282518282018190526000918401906040840190835b818110156128185783518352602093840193909201916001016127fa565b509095945050505050565b6000806020838503121561283657600080fd5b82356001600160401b0381111561284c57600080fd5b61285885828601612699565b90969095509350505050565b6000806000806080858703121561287a57600080fd5b843561288581612622565b9350602085013561289581612622565b92506040850135915060608501356128ac81612622565b939692955090935050565b801515811461057a57600080fd5b6000602082840312156128d757600080fd5b81356109ef816128b7565b602080825282518282018190526000918401906040840190835b818110156128185783516001600160a01b03168352602093840193909201916001016128fc565b634e487b7160e01b600052604160045260246000fd5b604051601f8201601f191681016001600160401b038111828210171561296157612961612923565b604052919050565b60008060006060848603121561297e57600080fd5b833561298981612622565b92506020840135612999816128b7565b915060408401356001600160401b038111156129b457600080fd5b8401601f810186136129c557600080fd5b80356001600160401b038111156129de576129de612923565b6129f1601f8201601f1916602001612939565b818152876020838501011115612a0657600080fd5b816020840160208301376000602083830101528093505050509250925092565b60208082526008908201526708585b1b1bddd95960c21b604082015260600190565b634e487b7160e01b600052603260045260246000fd5b634e487b7160e01b600052601160045260246000fd5b808201808211156109f2576109f2612a5e565b600060208284031215612a9957600080fd5b5051919050565b818103818111156109f2576109f2612a5e565b8051600f81900b8114612ac557600080fd5b919050565b60006080828403128015612add57600080fd5b50604051608081016001600160401b0381118282101715612b0057612b00612923565b604052612b0c83612ab3565b8152612b1a60208401612ab3565b6020820152604083810151908201526060928301519281019290925250919050565b60208082526027908201527f52657761726420646973747269627574696f6e20686173206e6f7420737461726040820152661d1959081e595d60ca1b606082015260800190565b8181036000831280158383131683831282161715612ba357612ba3612a5e565b5092915050565b600082600f0b82600f0b0280600f0b9150808214612ba357612ba3612a5e565b600f82810b9082900b036f7fffffffffffffffffffffffffffffff1981126f7fffffffffffffffffffffffffffffff821317156109f2576109f2612a5e565b80820281158282048414176109f2576109f2612a5e565b600082612c3d57634e487b7160e01b600052601260045260246000fd5b500490565b6001600160801b0381811683821601908111156109f2576109f2612a5e565b60005b83811015612c7c578181015183820152602001612c64565b50506000910152565b60008251612c97818460208701612c61565b9190910192915050565b600060208284031215612cb357600080fd5b81516109ef816128b7565b8281526040602082015260008251806040840152612ce3816060850160208701612c61565b601f01601f1916919091016060019392505050565b600060208284031215612d0a57600080fd5b81516001600160e01b0319811681146109ef57600080fdfea2646970667358221220b79e9759636cc942a3b5650453a984f8aab6e55105c491864bb2da95f962f4c064736f6c634300081a0033","linkReferences":{}},"methodIdentifiers":{"addAllowedRewardTokens(address[])":"f213bd8c","admin()":"f851a440","allowedRewardTokens(address)":"ed3a0887","checkpoint()":"c2c4c5c1","checkpointToken(address)":"3902b9bc","checkpointTokens(address[])":"905d10ac","checkpointUser(address)":"14866e08","claimToken(address,address)":"ca31879d","claimTokens(address,address[])":"88720467","depositToken(address,uint256)":"338b5dea","depositTokens(address[],uint256[])":"7b8d6221","faucetDepositToken(address,uint256)":"4c9a47d8","getAllowedRewardTokens()":"ece7514d","getDomainSeparator()":"ed24911d","getNextNonce(address)":"90193b7c","getTimeCursor()":"82aa5ad4","getTokenLastBalance(address)":"2308805b","getTokenTimeCursor(address)":"acbc1428","getTokensDistributedInWeek(address,uint256)":"d3dc4ca1","getTotalSupplyAtTimestamp(uint256)":"4f3c5090","getUserBalanceAtTimestamp(address,uint256)":"de681faf","getUserTimeCursor(address)":"876e69a1","getUserTokenTimeCursor(address,address)":"8050a7ee","getVotingEscrow()":"08b0308a","initialize(address,address,uint256,address)":"be203094","isInitialized()":"392e53cd","isOnlyCallerEnabled(address)":"a1648aa5","rewardFaucet()":"397bcd41","setOnlyCallerCheck(bool)":"e811f44b","setOnlyCallerCheckWithSignature(address,bool,bytes)":"fcaa54ee","transferAdmin(address)":"75829def"},"id":0}