{"abi":[{"type":"receive","stateMutability":"payable"},{"type":"function","name":"computeAddress","inputs":[{"name":"addr","type":"address","internalType":"address"},{"name":"nonce","type":"uint256","internalType":"uint256"}],"outputs":[{"name":"","type":"address","internalType":"address"}],"stateMutability":"view"},{"type":"function","name":"deploy","inputs":[{"name":"amount","type":"uint256","internalType":"uint256"},{"name":"bytecode","type":"bytes","internalType":"bytes"}],"outputs":[{"name":"newContract","type":"address","internalType":"address"}],"stateMutability":"nonpayable"},{"type":"function","name":"deployContract","inputs":[{"name":"path","type":"string","internalType":"string"},{"name":"fileName","type":"string","internalType":"string"},{"name":"evmVersion","type":"string","internalType":"string"},{"name":"optimiserMode","type":"string","internalType":"string"}],"outputs":[{"name":"deployedAddress","type":"address","internalType":"address"}],"stateMutability":"nonpayable"},{"type":"function","name":"deployContract","inputs":[{"name":"path","type":"string","internalType":"string"},{"name":"fileName","type":"string","internalType":"string"},{"name":"args","type":"bytes","internalType":"bytes"},{"name":"evmVersion","type":"string","internalType":"string"},{"name":"optimiserMode","type":"string","internalType":"string"}],"outputs":[{"name":"deployedAddress","type":"address","internalType":"address"}],"stateMutability":"nonpayable"},{"type":"function","name":"deployContract","inputs":[{"name":"path","type":"string","internalType":"string"},{"name":"fileName","type":"string","internalType":"string"}],"outputs":[{"name":"deployedAddress","type":"address","internalType":"address"}],"stateMutability":"nonpayable"},{"type":"function","name":"deployContract","inputs":[{"name":"path","type":"string","internalType":"string"},{"name":"fileName","type":"string","internalType":"string"},{"name":"args","type":"bytes","internalType":"bytes"}],"outputs":[{"name":"deployedAddress","type":"address","internalType":"address"}],"stateMutability":"nonpayable"},{"type":"event","name":"ContractCreation","inputs":[{"name":"newContract","type":"address","indexed":false,"internalType":"address"}],"anonymous":false},{"type":"error","name":"CompilationFailed","inputs":[{"name":"emitter","type":"address","internalType":"address"}]},{"type":"error","name":"DeploymentFailed","inputs":[{"name":"emitter","type":"address","internalType":"address"}]},{"type":"error","name":"Failed","inputs":[{"name":"emitter","type":"address","internalType":"address"}]},{"type":"error","name":"InsufficientBalance","inputs":[{"name":"emitter","type":"address","internalType":"address"}]},{"type":"error","name":"InvalidNonceValue","inputs":[{"name":"emitter","type":"address","internalType":"address"}]},{"type":"error","name":"ZeroBytecodeLength","inputs":[{"name":"emitter","type":"address","internalType":"address"}]}],"bytecode":{"object":"0x608060405260008054306001600160a01b03199182161790915560018054909116737109709ecfa91a80626ff3989d68f67f5b1dd12d179055348015604357600080fd5b506118a8806100536000396000f3fe6080604052600436106100595760003560e01c806336b5aa2d1461006557806361ff715f146100a1578063660b4382146100c157806369fa25d4146100e1578063e0bdf58314610101578063ee0e6fd31461012157600080fd5b3661006057005b600080fd5b34801561007157600080fd5b5061008561008036600461119f565b610141565b6040516001600160a01b03909116815260200160405180910390f35b3480156100ad57600080fd5b506100856100bc366004611244565b610552565b3480156100cd57600080fd5b506100856100dc366004611315565b610610565b3480156100ed57600080fd5b506100856100fc3660046113e8565b610965565b34801561010d57600080fd5b5061008561011c3660046114ee565b610cb5565b34801561012d57600080fd5b5061008561013c36600461155d565b610ea7565b60006060602560fa1b61015c60016001600160401b03611600565b6001600160401b031684111561018c57604051633c55ab3b60e01b81523060048201526024015b60405180910390fd5b836000036101e957604051606b60f91b60208201526001600160f81b0319821660218201526001600160601b0319606087901b166022820152600160ff1b60368201526037015b6040516020818303038152906040529150610540565b607f841161023657604051606b60f91b60208201526001600160f81b031980831660218301526001600160601b0319606088901b16602283015260f886901b1660368201526037016101d3565b60ff841161028d5760405160d760f81b60208201526001600160f81b031980831660218301526001600160601b0319606088901b166022830152608160f81b603683015260f886901b1660378201526038016101d3565b61ffff84116102ed57604051601b60fb1b60208201526001600160f81b0319821660218201526001600160601b0319606087901b166022820152604160f91b60368201526001600160f01b031960f086901b1660378201526039016101d3565b62ffffff841161034e5760405160d960f81b60208201526001600160f81b0319821660218201526001600160601b0319606087901b166022820152608360f81b60368201526001600160e81b031960e886901b166037820152603a016101d3565b63ffffffff84116103b057604051606d60f91b60208201526001600160f81b0319821660218201526001600160601b0319606087901b166022820152602160fa1b60368201526001600160e01b031960e086901b166037820152603b016101d3565b64ffffffffff84116104135760405160db60f81b60208201526001600160f81b0319821660218201526001600160601b0319606087901b166022820152608560f81b60368201526001600160d81b031960d886901b166037820152603c016101d3565b65ffffffffffff841161047757604051603760fa1b60208201526001600160f81b0319821660218201526001600160601b0319606087901b166022820152604360f91b60368201526001600160d01b031960d086901b166037820152603d016101d3565b66ffffffffffffff84116104dc5760405160dd60f81b60208201526001600160f81b0319821660218201526001600160601b0319606087901b166022820152608760f81b60368201526001600160c81b031960c886901b166037820152603e016101d3565b604051606f60f91b60208201526001600160f81b0319821660218201526001600160601b0319606087901b166022820152601160fb1b60368201526001600160c01b031960c086901b166037820152603f0160405160208183030381529060405291505b50805160209091012090505b92915050565b6000824710156105775760405163112fed8b60e31b8152306004820152602401610183565b815160000361059b576040516378506c0d60e01b8152306004820152602401610183565b81516020830184f090506001600160a01b0381166105ce5760405163b05e40a960e01b8152306004820152602401610183565b6040516001600160a01b03821681527f4db17dd5e4732fb6da34a148104a592783ca119a1e7bb8829eba6cbadef0b5119060200160405180910390a192915050565b6040805160078082526101008201909252600091829190816020015b606081526020019060019003908161062c57905050905060405180604001604052806006815260200165383cba3437b760d11b815250816000815181106106755761067561162d565b6020026020010181905250604051806040016040528060148152602001736c69622f7574696c732f636f6d70696c652e707960601b815250816001815181106106c0576106c061162d565b6020026020010181905250898989896040516020016106e29493929190611643565b604051602081830303815290604052816002815181106107045761070461162d565b60200260200101819052506040518060400160405280600d81526020016c1696b2bb3696bb32b939b4b7b760991b815250816003815181106107485761074861162d565b602002602001018190525085858080601f01602080910402602001604051908101604052809392919081815260200183838082843760009201919091525050835184925060049150811061079e5761079e61162d565b60200260200101819052506040518060400160405280600a8152602001692d2d6f7074696d697a6560b01b815250816005815181106107df576107df61162d565b602002602001018190525083838080601f0160208091040260200160405190810160405280939291908181526020018383808284376000920191909152505083518492506006915081106108355761083561162d565b6020908102919091010152600154604051638916046760e01b81526000916001600160a01b0316906389160467906108719085906004016116bc565b6000604051808303816000875af1158015610890573d6000803e3d6000fd5b505050506040513d6000823e601f3d908101601f191682016040526108b89190810190611721565b90508051600003610914576108ec6108e760405180608001604052806056815260200161181d605691396110c1565b6110ea565b600054604051632b58e2b160e21b81526001600160a01b039091166004820152602401610183565b61091f600082610552565b92506001600160a01b03831661095757600054604051639deffc1b60e01b81526001600160a01b039091166004820152602401610183565b505098975050505050505050565b6040805160078082526101008201909252600091829190816020015b606081526020019060019003908161098157905050905060405180604001604052806006815260200165383cba3437b760d11b815250816000815181106109ca576109ca61162d565b6020026020010181905250604051806040016040528060148152602001736c69622f7574696c732f636f6d70696c652e707960601b81525081600181518110610a1557610a1561162d565b60200260200101819052508b8b8b8b604051602001610a379493929190611643565b60405160208183030381529060405281600281518110610a5957610a5961162d565b60200260200101819052506040518060400160405280600d81526020016c1696b2bb3696bb32b939b4b7b760991b81525081600381518110610a9d57610a9d61162d565b602002602001018190525085858080601f016020809104026020016040519081016040528093929190818152602001838380828437600092019190915250508351849250600491508110610af357610af361162d565b60200260200101819052506040518060400160405280600a8152602001692d2d6f7074696d697a6560b01b81525081600581518110610b3457610b3461162d565b602002602001018190525083838080601f016020809104026020016040519081016040528093929190818152602001838380828437600092019190915250508351849250600691508110610b8a57610b8a61162d565b6020908102919091010152600154604051638916046760e01b81526000916001600160a01b031690638916046790610bc69085906004016116bc565b6000604051808303816000875af1158015610be5573d6000803e3d6000fd5b505050506040513d6000823e601f3d908101601f19168201604052610c0d9190810190611721565b90508051600003610c3c576108ec6108e760405180608001604052806056815260200161181d605691396110c1565b808989604051602001610c5193929190611797565b6040516020818303038152906040529050610c6d600082610552565b92506001600160a01b038316610ca557600054604051639deffc1b60e01b81526001600160a01b039091166004820152602401610183565b50509a9950505050505050505050565b60408051600380825260808201909252600091829190816020015b6060815260200190600190039081610cd057905050905060405180604001604052806006815260200165383cba3437b760d11b81525081600081518110610d1957610d1961162d565b6020026020010181905250604051806040016040528060148152602001736c69622f7574696c732f636f6d70696c652e707960601b81525081600181518110610d6457610d6461162d565b602002602001018190525085858585604051602001610d869493929190611643565b60405160208183030381529060405281600281518110610da857610da861162d565b6020908102919091010152600154604051638916046760e01b81526000916001600160a01b031690638916046790610de49085906004016116bc565b6000604051808303816000875af1158015610e03573d6000803e3d6000fd5b505050506040513d6000823e601f3d908101601f19168201604052610e2b9190810190611721565b90508051600003610e5a576108ec6108e760405180608001604052806056815260200161181d605691396110c1565b610e65600082610552565b92506001600160a01b038316610e9d57600054604051639deffc1b60e01b81526001600160a01b039091166004820152602401610183565b5050949350505050565b60408051600380825260808201909252600091829190816020015b6060815260200190600190039081610ec257905050905060405180604001604052806006815260200165383cba3437b760d11b81525081600081518110610f0b57610f0b61162d565b6020026020010181905250604051806040016040528060148152602001736c69622f7574696c732f636f6d70696c652e707960601b81525081600181518110610f5657610f5661162d565b602002602001018190525087878787604051602001610f789493929190611643565b60405160208183030381529060405281600281518110610f9a57610f9a61162d565b6020908102919091010152600154604051638916046760e01b81526000916001600160a01b031690638916046790610fd69085906004016116bc565b6000604051808303816000875af1158015610ff5573d6000803e3d6000fd5b505050506040513d6000823e601f3d908101601f1916820160405261101d9190810190611721565b9050805160000361104c576108ec6108e760405180608001604052806056815260200161181d605691396110c1565b80858560405160200161106193929190611797565b604051602081830303815290604052905061107d600082610552565b92506001600160a01b0383166110b557600054604051639deffc1b60e01b81526001600160a01b039091166004820152602401610183565b50509695505050505050565b606061054c604051806040016040528060058152602001641b5b39316d60d81b81525083611130565b61112d816040516024016110fe91906117bf565b60408051601f198184030181529190526020810180516001600160e01b031663104c13eb60e21b17905261117a565b50565b60608282604051806040016040528060048152602001631b5b306d60e01b815250604051602001611163939291906117d9565b604051602081830303815290604052905092915050565b61112d8160006a636f6e736f6c652e6c6f679050600080835160208501845afa505050565b600080604083850312156111b257600080fd5b82356001600160a01b03811681146111c957600080fd5b946020939093013593505050565b634e487b7160e01b600052604160045260246000fd5b604051601f8201601f191681016001600160401b0381118282101715611215576112156111d7565b604052919050565b60006001600160401b03821115611236576112366111d7565b50601f01601f191660200190565b6000806040838503121561125757600080fd5b8235915060208301356001600160401b0381111561127457600080fd5b8301601f8101851361128557600080fd5b80356112986112938261121d565b6111ed565b8181528660208385010111156112ad57600080fd5b816020840160208301376000602083830101528093505050509250929050565b60008083601f8401126112df57600080fd5b5081356001600160401b038111156112f657600080fd5b60208301915083602082850101111561130e57600080fd5b9250929050565b6000806000806000806000806080898b03121561133157600080fd5b88356001600160401b0381111561134757600080fd5b6113538b828c016112cd565b90995097505060208901356001600160401b0381111561137257600080fd5b61137e8b828c016112cd565b90975095505060408901356001600160401b0381111561139d57600080fd5b6113a98b828c016112cd565b90955093505060608901356001600160401b038111156113c857600080fd5b6113d48b828c016112cd565b999c989b5096995094979396929594505050565b60008060008060008060008060008060a08b8d03121561140757600080fd5b8a356001600160401b0381111561141d57600080fd5b6114298d828e016112cd565b909b5099505060208b01356001600160401b0381111561144857600080fd5b6114548d828e016112cd565b90995097505060408b01356001600160401b0381111561147357600080fd5b61147f8d828e016112cd565b90975095505060608b01356001600160401b0381111561149e57600080fd5b6114aa8d828e016112cd565b90955093505060808b01356001600160401b038111156114c957600080fd5b6114d58d828e016112cd565b915080935050809150509295989b9194979a5092959850565b6000806000806040858703121561150457600080fd5b84356001600160401b0381111561151a57600080fd5b611526878288016112cd565b90955093505060208501356001600160401b0381111561154557600080fd5b611551878288016112cd565b95989497509550505050565b6000806000806000806060878903121561157657600080fd5b86356001600160401b0381111561158c57600080fd5b61159889828a016112cd565b90975095505060208701356001600160401b038111156115b757600080fd5b6115c389828a016112cd565b90955093505060408701356001600160401b038111156115e257600080fd5b6115ee89828a016112cd565b979a9699509497509295939492505050565b6001600160401b03828116828216039081111561054c57634e487b7160e01b600052601160045260246000fd5b634e487b7160e01b600052603260045260246000fd5b8385823760008482016000815283858237622e767960e81b930192835250506003019392505050565b60005b8381101561168757818101518382015260200161166f565b50506000910152565b600081518084526116a881602086016020860161166c565b601f01601f19169290920160200192915050565b6000602082016020835280845180835260408501915060408160051b86010192506020860160005b8281101561171557603f19878603018452611700858351611690565b945060209384019391909101906001016116e4565b50929695505050505050565b60006020828403121561173357600080fd5b81516001600160401b0381111561174957600080fd5b8201601f8101841361175a57600080fd5b80516117686112938261121d565b81815285602083850101111561177d57600080fd5b61178e82602083016020860161166c565b95945050505050565b600084516117a981846020890161166c565b8201838582376000930192835250909392505050565b6020815260006117d26020830184611690565b9392505050565b600084516117eb81846020890161166c565b8451908301906117ff81836020890161166c565b845191019061181281836020880161166c565b019594505050505056fe567970657220636f6d70696c6174696f6e206661696c65642120506c6561736520656e73757265207468617420796f75206861766520612076616c69642056797065722076657273696f6e20696e7374616c6c65642ea264697066735822122062dbb1c2468da1bb6ca47250cc19e67169ba09e39a40d4d396fb9f76c38fa04f64736f6c634300081a0033","linkReferences":{}},"methodIdentifiers":{"computeAddress(address,uint256)":"36b5aa2d","deploy(uint256,bytes)":"61ff715f","deployContract(string,string)":"e0bdf583","deployContract(string,string,bytes)":"ee0e6fd3","deployContract(string,string,bytes,string,string)":"69fa25d4","deployContract(string,string,string,string)":"660b4382"},"id":70}