{"abi":[{"type":"function","name":"depositEqualWeeksPeriod","inputs":[{"name":"token","type":"address","internalType":"address"},{"name":"amount","type":"uint256","internalType":"uint256"},{"name":"weeksCount","type":"uint256","internalType":"uint256"}],"outputs":[],"stateMutability":"nonpayable"},{"type":"function","name":"depositExactWeek","inputs":[{"name":"token","type":"address","internalType":"address"},{"name":"amount","type":"uint256","internalType":"uint256"},{"name":"weekTimeStamp","type":"uint256","internalType":"uint256"}],"outputs":[],"stateMutability":"nonpayable"},{"type":"function","name":"distributePastRewards","inputs":[{"name":"token","type":"address","internalType":"address"}],"outputs":[],"stateMutability":"nonpayable"},{"type":"function","name":"getTokenWeekAmounts","inputs":[{"name":"token","type":"address","internalType":"address"},{"name":"pointOfWeek","type":"uint256","internalType":"uint256"}],"outputs":[{"name":"","type":"uint256","internalType":"uint256"}],"stateMutability":"view"},{"type":"function","name":"getUpcomingRewardsForNWeeks","inputs":[{"name":"token","type":"address","internalType":"address"},{"name":"weeksCount","type":"uint256","internalType":"uint256"}],"outputs":[{"name":"","type":"uint256[]","internalType":"uint256[]"}],"stateMutability":"view"},{"type":"function","name":"initialize","inputs":[{"name":"_rewardDistributor","type":"address","internalType":"address"}],"outputs":[],"stateMutability":"nonpayable"},{"type":"function","name":"isInitialized","inputs":[],"outputs":[{"name":"","type":"bool","internalType":"bool"}],"stateMutability":"view"},{"type":"function","name":"movePastRewards","inputs":[{"name":"token","type":"address","internalType":"address"},{"name":"pastWeekTimestamp","type":"uint256","internalType":"uint256"}],"outputs":[],"stateMutability":"nonpayable"},{"type":"function","name":"rewardDistributor","inputs":[],"outputs":[{"name":"","type":"address","internalType":"contract IRewardDistributor"}],"stateMutability":"view"},{"type":"function","name":"tokenWeekAmounts","inputs":[{"name":"token","type":"address","internalType":"address"},{"name":"weekStart","type":"uint256","internalType":"uint256"}],"outputs":[{"name":"amount","type":"uint256","internalType":"uint256"}],"stateMutability":"view"},{"type":"function","name":"totalTokenRewards","inputs":[{"name":"token","type":"address","internalType":"address"}],"outputs":[{"name":"rewardAmount","type":"uint256","internalType":"uint256"}],"stateMutability":"view"},{"type":"event","name":"DistributePast","inputs":[{"name":"token","type":"address","indexed":false,"internalType":"address"},{"name":"amount","type":"uint256","indexed":false,"internalType":"uint256"},{"name":"weekStart","type":"uint256","indexed":false,"internalType":"uint256"}],"anonymous":false},{"type":"event","name":"ExactWeekDistribution","inputs":[{"name":"token","type":"address","indexed":false,"internalType":"address"},{"name":"totalAmount","type":"uint256","indexed":false,"internalType":"uint256"},{"name":"weeksCount","type":"uint256","indexed":false,"internalType":"uint256"}],"anonymous":false},{"type":"event","name":"MovePastRewards","inputs":[{"name":"token","type":"address","indexed":false,"internalType":"address"},{"name":"moveAmount","type":"uint256","indexed":false,"internalType":"uint256"},{"name":"pastWeekStart","type":"uint256","indexed":false,"internalType":"uint256"},{"name":"nextWeekStart","type":"uint256","indexed":false,"internalType":"uint256"}],"anonymous":false},{"type":"event","name":"WeeksDistributions","inputs":[{"name":"token","type":"address","indexed":false,"internalType":"address"},{"name":"totalAmount","type":"uint256","indexed":false,"internalType":"uint256"},{"name":"weeksCount","type":"uint256","indexed":false,"internalType":"uint256"}],"anonymous":false},{"type":"error","name":"ReentrancyGuardReentrantCall","inputs":[]},{"type":"error","name":"SafeERC20FailedOperation","inputs":[{"name":"token","type":"address","internalType":"address"}]}],"bytecode":{"object":"0x6080604052348015600f57600080fd5b506001600055610fd6806100246000396000f3fe608060405234801561001057600080fd5b50600436106100a95760003560e01c806367b870111161007157806367b8701114610139578063871451781461014c578063acc2166a14610177578063c4d66de8146101a7578063c7b56abe146101ba578063cdcea6ad146101cd57600080fd5b80632a419597146100ae5780632d9cd3bb146100c357806336bcebb1146100d6578063392e53cd146101095780635530d7bd14610126575b600080fd5b6100c16100bc366004610e24565b6101ed565b005b6100c16100d1366004610e24565b6104f0565b6100f66100e4366004610e57565b60026020526000908152604090205481565b6040519081526020015b60405180910390f35b6001546101169060ff1681565b6040519015158152602001610100565b6100c1610134366004610e79565b61076c565b6100f6610147366004610e79565b610876565b6100f661015a366004610e79565b600360209081526000928352604080842090915290825290205481565b60015461018f9061010090046001600160a01b031681565b6040516001600160a01b039091168152602001610100565b6100c16101b5366004610e57565b6108af565b6100c16101c8366004610e57565b610952565b6101e06101db366004610e79565b610b20565b6040516101009190610ea3565b6101f5610bee565b600081118015610206575060688111155b61023f5760405162461bcd60e51b8152602060048201526005602482015264217765656b60d81b60448201526064015b60405180910390fd5b6001600160a01b0383166000818152600260205260408082205490516370a0823160e01b8152306004820152919290916370a0823190602401602060405180830381865afa158015610295573d6000803e3d6000fd5b505050506040513d601f19601f820116820180604052508101906102b99190610ee6565b6102c39190610f15565b905060008082116102d457836102de565b6102de8285610f28565b905060006102ec8483610f3b565b9050836001146103fa57600061030142610c18565b905060025b8581116103c0578581036103715761031f600187610f15565b6103299084610f5d565b6103339085610f15565b6001600160a01b038916600090815260036020908152604080832086845290915281208054909190610366908490610f28565b909155506103c09050565b6001600160a01b0388166000908152600360209081526040808320858452909152812080548592906103a4908490610f28565b90915550506001016103b962093a8083610f28565b9150610306565b506103cb8284610f15565b6001600160a01b038816600090815260026020526040812080549091906103f3908490610f28565b9091555050505b61040f6001600160a01b038716333088610c2f565b6001546001600160a01b036101009091048116906104309088168284610c9c565b60405163099348fb60e31b81526001600160a01b03888116600483015260248201849052821690634c9a47d890604401600060405180830381600087803b15801561047a57600080fd5b505af115801561048e573d6000803e3d6000fd5b5050604080516001600160a01b038b168152602081018790529081018890527f4088fafdc9c718bca399ea616e6c39e860759e8cc97fbda29803d42b0bc6a2249250606001905060405180910390a1505050506104eb6001600055565b505050565b6104f8610bee565b61050142610d2c565b811015801561051d5750610519426303bfc400610f28565b8111155b6105545760405162461bcd60e51b8152602060048201526008602482015267626164207765656b60c01b6044820152606401610236565b6001600160a01b0383166000818152600260205260408082205490516370a0823160e01b8152306004820152919290916370a0823190602401602060405180830381865afa1580156105aa573d6000803e3d6000fd5b505050506040513d601f19601f820116820180604052508101906105ce9190610ee6565b6105d89190610f15565b905060008082116105e957836105f3565b6105f38285610f28565b905061060a6001600160a01b038616333087610c2f565b600061061584610d2c565b905061062042610d2c565b81036106af576001546001600160a01b036101009091048116906106479088168285610c9c565b60405163099348fb60e31b81526001600160a01b03888116600483015260248201859052821690634c9a47d890604401600060405180830381600087803b15801561069157600080fd5b505af11580156106a5573d6000803e3d6000fd5b5050505050610715565b6001600160a01b0386166000908152600360209081526040808320848452909152812080548492906106e2908490610f28565b90915550506001600160a01b0386166000908152600260205260408120805484929061070f908490610f28565b90915550505b604080516001600160a01b0388168152602081018490529081018290527fb86a33c5016189ecd35a2699118bc2fe7c716f81d4e837eef84dee0bb67875f59060600160405180910390a15050506104eb6001600055565b600061077782610d2c565b905062530e8061078642610d2c565b6107909190610f15565b81106107c95760405162461bcd60e51b8152602060048201526008602482015267216f75746461746560c01b6044820152606401610236565b60006107d442610c18565b6001600160a01b038516600090815260036020908152604080832086845290915280822080549083905583835290822080549394509092839290610819908490610f28565b9091555050604080516001600160a01b038716815260208101839052908101849052606081018390527f6e9630aa131b46b81742f09d3aea83da20d184c4dbe662050e8d6d2d554503929060800160405180910390a15050505050565b60008061088283610d2c565b6001600160a01b038516600090815260036020908152604080832093835292905220549150505b92915050565b60015460ff16156108eb5760405162461bcd60e51b815260206004820152600660248201526521747769636560d01b6044820152606401610236565b6001600160a01b0381166109295760405162461bcd60e51b8152602060048201526005602482015264217a65726f60d81b6044820152606401610236565b600180546001600160a01b03909216610100026001600160a81b03199092169190911781179055565b6001600160a01b03811660009081526002602052604081205490036109745750565b600061097f42610d2c565b90506000805b600a811015610a18576001600160a01b0384166000908152600360209081526040808320868452909152812054908190036109cf576109c762093a8085610f15565b935050610a10565b6001600160a01b03851660009081526003602090815260408083208784529091528120556109fd8184610f28565b9250610a0c62093a8085610f15565b9350505b600101610985565b5080156104eb576001600160a01b03831660009081526002602052604081208054839290610a47908490610f15565b90915550506001546001600160a01b03610100909104811690610a6d9085168284610c9c565b60405163099348fb60e31b81526001600160a01b03858116600483015260248201849052821690634c9a47d890604401600060405180830381600087803b158015610ab757600080fd5b505af1158015610acb573d6000803e3d6000fd5b5050604080516001600160a01b0388168152602081018690529081018690527f33d07963ee4e58f177134d0a37785787f0056ee388c04e4aff075e61e2856d6c9250606001905060405180910390a150505050565b60606000610b2d42610d2c565b905060008367ffffffffffffffff811115610b4a57610b4a610f74565b604051908082528060200260200182016040528015610b73578160200160208202803683370190505b50905060005b84811015610be5576001600160a01b038616600090815260036020526040812090610ba78362093a80610f5d565b610bb19086610f28565b815260200190815260200160002054828281518110610bd257610bd2610f8a565b6020908102919091010152600101610b79565b50949350505050565b600260005403610c1157604051633ee5aeb560e01b815260040160405180910390fd5b6002600055565b60006108a9610c2a8362093a80610f28565b610d2c565b6040516001600160a01b038481166024830152838116604483015260648201839052610c969186918216906323b872dd906084015b604051602081830303815290604052915060e01b6020820180516001600160e01b038381831617835250505050610d48565b50505050565b604080516001600160a01b038416602482015260448082018490528251808303909101815260649091019091526020810180516001600160e01b031663095ea7b360e01b179052610ced8482610db9565b610c96576040516001600160a01b03848116602483015260006044830152610d2291869182169063095ea7b390606401610c64565b610c968482610d48565b6000610d3b62093a8083610f3b565b6108a99062093a80610f5d565b600080602060008451602086016000885af180610d6b576040513d6000823e3d81fd5b50506000513d91508115610d83578060011415610d90565b6001600160a01b0384163b155b15610c9657604051635274afe760e01b81526001600160a01b0385166004820152602401610236565b6000806000806020600086516020880160008a5af192503d91506000519050828015610dfe57508115610def5780600114610dfe565b6000866001600160a01b03163b115b9695505050505050565b80356001600160a01b0381168114610e1f57600080fd5b919050565b600080600060608486031215610e3957600080fd5b610e4284610e08565b95602085013595506040909401359392505050565b600060208284031215610e6957600080fd5b610e7282610e08565b9392505050565b60008060408385031215610e8c57600080fd5b610e9583610e08565b946020939093013593505050565b602080825282518282018190526000918401906040840190835b81811015610edb578351835260209384019390920191600101610ebd565b509095945050505050565b600060208284031215610ef857600080fd5b5051919050565b634e487b7160e01b600052601160045260246000fd5b818103818111156108a9576108a9610eff565b808201808211156108a9576108a9610eff565b600082610f5857634e487b7160e01b600052601260045260246000fd5b500490565b80820281158282048414176108a9576108a9610eff565b634e487b7160e01b600052604160045260246000fd5b634e487b7160e01b600052603260045260246000fdfea264697066735822122026bee0b422dbbb1120d49a10faa0e00d1eb137a7c9f1f2a8c9bed3dd8c62aed364736f6c634300081a0033","linkReferences":{}},"methodIdentifiers":{"depositEqualWeeksPeriod(address,uint256,uint256)":"2a419597","depositExactWeek(address,uint256,uint256)":"2d9cd3bb","distributePastRewards(address)":"c7b56abe","getTokenWeekAmounts(address,uint256)":"67b87011","getUpcomingRewardsForNWeeks(address,uint256)":"cdcea6ad","initialize(address)":"c4d66de8","isInitialized()":"392e53cd","movePastRewards(address,uint256)":"5530d7bd","rewardDistributor()":"acc2166a","tokenWeekAmounts(address,uint256)":"87145178","totalTokenRewards(address)":"36bcebb1"},"id":1}