{"abi":[{"type":"function","name":"check","inputs":[{"name":"_wallet","type":"address","internalType":"address"}],"outputs":[{"name":"","type":"bool","internalType":"bool"}],"stateMutability":"pure"}],"bytecode":{"object":"0x6080604052348015600f57600080fd5b5060b680601d6000396000f3fe6080604052348015600f57600080fd5b506004361060285760003560e01c8063c23697a814602d575b600080fd5b603e60383660046052565b50600190565b604051901515815260200160405180910390f35b600060208284031215606357600080fd5b81356001600160a01b0381168114607957600080fd5b939250505056fea26469706673582212206f9950c530119d6b4a5778a6bb1a23e07f054f8a811c54c186b8a6c659fd81e664736f6c634300081a0033","linkReferences":{}},"methodIdentifiers":{"check(address)":"c23697a8"},"id":23}