{"abi":[{"type":"function","name":"MAXTIME","inputs":[],"outputs":[{"name":"","type":"uint256"}],"stateMutability":"view"},{"type":"function","name":"TOKEN","inputs":[],"outputs":[{"name":"","type":"address"}],"stateMutability":"view"},{"type":"function","name":"admin","inputs":[],"outputs":[{"name":"","type":"address"}],"stateMutability":"view"},{"type":"function","name":"admin_early_unlock","inputs":[],"outputs":[{"name":"","type":"address"}],"stateMutability":"view"},{"type":"function","name":"admin_unlock_all","inputs":[],"outputs":[{"name":"","type":"address"}],"stateMutability":"view"},{"type":"function","name":"all_unlock","inputs":[],"outputs":[{"name":"","type":"bool"}],"stateMutability":"view"},{"type":"function","name":"apply_smart_wallet_checker","inputs":[],"outputs":[],"stateMutability":"nonpayable"},{"type":"function","name":"apply_transfer_ownership","inputs":[],"outputs":[],"stateMutability":"nonpayable"},{"type":"function","name":"auraToken","inputs":[],"outputs":[{"name":"","type":"address"}],"stateMutability":"view"},{"type":"function","name":"balMinter","inputs":[],"outputs":[{"name":"","type":"address"}],"stateMutability":"view"},{"type":"function","name":"balToken","inputs":[],"outputs":[{"name":"","type":"address"}],"stateMutability":"view"},{"type":"function","name":"balanceOf","inputs":[{"name":"addr","type":"address"}],"outputs":[{"name":"","type":"uint256"}],"stateMutability":"view"},{"type":"function","name":"balanceOf","inputs":[{"name":"addr","type":"address"},{"name":"_t","type":"uint256"}],"outputs":[{"name":"","type":"uint256"}],"stateMutability":"view"},{"type":"function","name":"balanceOfAt","inputs":[{"name":"addr","type":"address"},{"name":"_block","type":"uint256"}],"outputs":[{"name":"","type":"uint256"}],"stateMutability":"view"},{"type":"function","name":"changeRewardReceiver","inputs":[{"name":"newReceiver","type":"address"}],"outputs":[],"stateMutability":"nonpayable"},{"type":"function","name":"checkpoint","inputs":[],"outputs":[],"stateMutability":"nonpayable"},{"type":"function","name":"claimAuraRewards","inputs":[],"outputs":[],"stateMutability":"nonpayable"},{"type":"function","name":"claimExternalRewards","inputs":[],"outputs":[],"stateMutability":"nonpayable"},{"type":"function","name":"commit_smart_wallet_checker","inputs":[{"name":"addr","type":"address"}],"outputs":[],"stateMutability":"nonpayable"},{"type":"function","name":"commit_transfer_ownership","inputs":[{"name":"addr","type":"address"}],"outputs":[],"stateMutability":"nonpayable"},{"type":"function","name":"create_lock","inputs":[{"name":"_value","type":"uint256"},{"name":"_unlock_time","type":"uint256"}],"outputs":[],"stateMutability":"nonpayable"},{"type":"function","name":"decimals","inputs":[],"outputs":[{"name":"","type":"uint256"}],"stateMutability":"view"},{"type":"function","name":"deposit_for","inputs":[{"name":"_addr","type":"address"},{"name":"_value","type":"uint256"}],"outputs":[],"stateMutability":"nonpayable"},{"type":"function","name":"deposit_from_zapper","inputs":[{"name":"_addr","type":"address"},{"name":"_value","type":"uint256"},{"name":"_unlock_time","type":"uint256"}],"outputs":[],"stateMutability":"nonpayable"},{"type":"function","name":"early_unlock","inputs":[],"outputs":[{"name":"","type":"bool"}],"stateMutability":"view"},{"type":"function","name":"epoch","inputs":[],"outputs":[{"name":"","type":"uint256"}],"stateMutability":"view"},{"type":"function","name":"future_admin","inputs":[],"outputs":[{"name":"","type":"address"}],"stateMutability":"view"},{"type":"function","name":"future_smart_wallet_checker","inputs":[],"outputs":[{"name":"","type":"address"}],"stateMutability":"view"},{"type":"function","name":"get_last_user_slope","inputs":[{"name":"addr","type":"address"}],"outputs":[{"name":"","type":"int128"}],"stateMutability":"view"},{"type":"function","name":"increase_amount","inputs":[{"name":"_value","type":"uint256"}],"outputs":[],"stateMutability":"nonpayable"},{"type":"function","name":"increase_unlock_time","inputs":[{"name":"_unlock_time","type":"uint256"}],"outputs":[],"stateMutability":"nonpayable"},{"type":"function","name":"initialize","inputs":[{"name":"_token_addr","type":"address"},{"name":"_name","type":"string"},{"name":"_symbol","type":"string"},{"name":"_admin_addr","type":"address"},{"name":"_admin_unlock_all","type":"address"},{"name":"_admin_early_unlock","type":"address"},{"name":"_max_time","type":"uint256"},{"name":"_balToken","type":"address"},{"name":"_auraToken","type":"address"},{"name":"_balMinter","type":"address"},{"name":"_rewardReceiver","type":"address"},{"name":"_rewardReceiverChangeable","type":"bool"},{"name":"_rewardDistributor","type":"address"}],"outputs":[],"stateMutability":"nonpayable"},{"type":"function","name":"is_initialized","inputs":[],"outputs":[{"name":"","type":"bool"}],"stateMutability":"view"},{"type":"function","name":"locked","inputs":[{"name":"arg0","type":"address"}],"outputs":[{"name":"","type":"tuple","components":[{"name":"amount","type":"int128"},{"name":"end","type":"uint256"}]}],"stateMutability":"view"},{"type":"function","name":"locked__end","inputs":[{"name":"_addr","type":"address"}],"outputs":[{"name":"","type":"uint256"}],"stateMutability":"view"},{"type":"function","name":"name","inputs":[],"outputs":[{"name":"","type":"string"}],"stateMutability":"view"},{"type":"function","name":"penalty_k","inputs":[],"outputs":[{"name":"","type":"uint256"}],"stateMutability":"view"},{"type":"function","name":"penalty_treasury","inputs":[],"outputs":[{"name":"","type":"address"}],"stateMutability":"view"},{"type":"function","name":"penalty_upd_ts","inputs":[],"outputs":[{"name":"","type":"uint256"}],"stateMutability":"view"},{"type":"function","name":"point_history","inputs":[{"name":"arg0","type":"uint256"}],"outputs":[{"name":"","type":"tuple","components":[{"name":"bias","type":"int128"},{"name":"slope","type":"int128"},{"name":"ts","type":"uint256"},{"name":"blk","type":"uint256"}]}],"stateMutability":"view"},{"type":"function","name":"prev_penalty_k","inputs":[],"outputs":[{"name":"","type":"uint256"}],"stateMutability":"view"},{"type":"function","name":"rewardDistributor","inputs":[],"outputs":[{"name":"","type":"address"}],"stateMutability":"view"},{"type":"function","name":"rewardReceiver","inputs":[],"outputs":[{"name":"","type":"address"}],"stateMutability":"view"},{"type":"function","name":"rewardReceiverChangeable","inputs":[],"outputs":[{"name":"","type":"bool"}],"stateMutability":"view"},{"type":"function","name":"set_all_unlock","inputs":[],"outputs":[],"stateMutability":"nonpayable"},{"type":"function","name":"set_early_unlock","inputs":[{"name":"_early_unlock","type":"bool"}],"outputs":[],"stateMutability":"nonpayable"},{"type":"function","name":"set_early_unlock_penalty_speed","inputs":[{"name":"_penalty_k","type":"uint256"}],"outputs":[],"stateMutability":"nonpayable"},{"type":"function","name":"set_penalty_treasury","inputs":[{"name":"_penalty_treasury","type":"address"}],"outputs":[],"stateMutability":"nonpayable"},{"type":"function","name":"slope_changes","inputs":[{"name":"arg0","type":"uint256"}],"outputs":[{"name":"","type":"int128"}],"stateMutability":"view"},{"type":"function","name":"smart_wallet_checker","inputs":[],"outputs":[{"name":"","type":"address"}],"stateMutability":"view"},{"type":"function","name":"supply","inputs":[],"outputs":[{"name":"","type":"uint256"}],"stateMutability":"view"},{"type":"function","name":"symbol","inputs":[],"outputs":[{"name":"","type":"string"}],"stateMutability":"view"},{"type":"function","name":"token","inputs":[],"outputs":[{"name":"","type":"address"}],"stateMutability":"view"},{"type":"function","name":"totalSupply","inputs":[],"outputs":[{"name":"","type":"uint256"}],"stateMutability":"view"},{"type":"function","name":"totalSupply","inputs":[{"name":"t","type":"uint256"}],"outputs":[{"name":"","type":"uint256"}],"stateMutability":"view"},{"type":"function","name":"totalSupplyAt","inputs":[{"name":"_block","type":"uint256"}],"outputs":[{"name":"","type":"uint256"}],"stateMutability":"view"},{"type":"function","name":"user_point_epoch","inputs":[{"name":"arg0","type":"address"}],"outputs":[{"name":"","type":"uint256"}],"stateMutability":"view"},{"type":"function","name":"user_point_history","inputs":[{"name":"arg0","type":"address"},{"name":"arg1","type":"uint256"}],"outputs":[{"name":"","type":"tuple","components":[{"name":"bias","type":"int128"},{"name":"slope","type":"int128"},{"name":"ts","type":"uint256"},{"name":"blk","type":"uint256"}]}],"stateMutability":"view"},{"type":"function","name":"user_point_history__ts","inputs":[{"name":"_addr","type":"address"},{"name":"_idx","type":"uint256"}],"outputs":[{"name":"","type":"uint256"}],"stateMutability":"view"},{"type":"function","name":"withdraw","inputs":[],"outputs":[],"stateMutability":"nonpayable"},{"type":"function","name":"withdraw_early","inputs":[],"outputs":[],"stateMutability":"nonpayable"},{"type":"event","name":"ApplyOwnership","inputs":[{"name":"admin","type":"address","indexed":false}],"anonymous":false},{"type":"event","name":"CommitOwnership","inputs":[{"name":"admin","type":"address","indexed":false}],"anonymous":false},{"type":"event","name":"Deposit","inputs":[{"name":"provider","type":"address","indexed":true},{"name":"value","type":"uint256","indexed":false},{"name":"locktime","type":"uint256","indexed":true},{"name":"type","type":"int128","indexed":false},{"name":"ts","type":"uint256","indexed":false}],"anonymous":false},{"type":"event","name":"EarlyUnlock","inputs":[{"name":"status","type":"bool","indexed":false}],"anonymous":false},{"type":"event","name":"PenaltySpeed","inputs":[{"name":"penalty_k","type":"uint256","indexed":false}],"anonymous":false},{"type":"event","name":"PenaltyTreasury","inputs":[{"name":"penalty_treasury","type":"address","indexed":false}],"anonymous":false},{"type":"event","name":"RewardReceiver","inputs":[{"name":"newReceiver","type":"address","indexed":false}],"anonymous":false},{"type":"event","name":"Supply","inputs":[{"name":"prevSupply","type":"uint256","indexed":false},{"name":"supply","type":"uint256","indexed":false}],"anonymous":false},{"type":"event","name":"TotalUnlock","inputs":[{"name":"status","type":"bool","indexed":false}],"anonymous":false},{"type":"event","name":"Withdraw","inputs":[{"name":"provider","type":"address","indexed":true},{"name":"value","type":"uint256","indexed":false},{"name":"ts","type":"uint256","indexed":false}],"anonymous":false},{"type":"event","name":"WithdrawEarly","inputs":[{"name":"provider","type":"address","indexed":true},{"name":"penalty","type":"uint256","indexed":false},{"name":"time_left","type":"uint256","indexed":false}],"anonymous":false}],"bytecode":{"object":"0x61434961001161000039614349610000f36003361161000c57613478565b60003560e01c346143375763fd5ee098811861049f576101e43610614337576004358060a01c6143375760405260243560040160408135116143375780358060605260208201818160803750505060443560040160208135116143375780358060c05260208201803560e0525050506064358060a01c61433757610100526084358060a01c614337576101205260a4358060a01c614337576101405260e4358060a01c6143375761016052610104358060a01c6143375761018052610124358060a01c614337576101a052610144358060a01c614337576101c052610164358060011c614337576101e052610184358060a01c61433757610200526c050c783eb9b5c84000000000155415610181576009610220527f6f6e6c79206f6e636500000000000000000000000000000000000000000000006102405261022050610220518061024001601f826000031636823750506308c379a06101e052602061020052601f19601f6102205101166044016101fcfd5b60016c050c783eb9b5c84000000000155561010051610200576006610220527f21656d70747900000000000000000000000000000000000000000000000000006102405261022050610220518061024001601f826000031636823750506308c379a06101e052602061020052601f19601f6102205101166044016101fcfd5b610100516c050c783eb9b5c840000000001155600a6c050c783eb9b5c840000000001755600a6c050c783eb9b5c840000000001855426c050c783eb9b5c840000000001955610100516c050c783eb9b5c840000000001a5560405160025543600f5542600e5560405163313ce567610240526020610240600461025c845afa61028e573d600060003e3d6000fd5b60203d10614337576102409050516102205260066102205110156102b35760006102bc565b60ff6102205111155b610326576009610240527f21646563696d616c7300000000000000000000000000000000000000000000006102605261024050610240518061026001601f826000031636823750506308c379a061020052602061022052601f19601f61024051011660440161021cfd5b60605180600355600081601f0160051c6002811161433757801561035e57905b8060051b608001518160040155600101818118610346575b50505060c0518060065560e051600755506102205160085562093a8060c435101561038a576000610395565b63095f6a0060c43511155b6103ff576008610240527f216d61786c6f636b0000000000000000000000000000000000000000000000006102605261024050610240518061026001601f826000031636823750506308c379a061020052602061022052601f19601f61024051011660440161021cfd5b60c435600155610120516c050c783eb9b5c840000000001255610140516c050c783eb9b5c840000000001355610160516c050c783eb9b5c840000000001c55610180516c050c783eb9b5c840000000001d556101a0516c050c783eb9b5c840000000001b556101c0516c050c783eb9b5c840000000001e556101e0516c050c783eb9b5c840000000001f55610200516c050c783eb9b5c840000000002055005b63fc0c546a81186104be57600436106143375760025460405260206040f35b6306fdde0381186105435760043610614337576020806040528060400160035480825260208201600082601f0160051c6002811161433757801561051557905b80600401548160051b8401526001018181186104fe575b505050508051806020830101601f82600003163682375050601f19601f825160200101169050810190506040f35b6395d89b41811861059b5760043610614337576020806040528060400160065480825260208201600754815250508051806020830101601f82600003163682375050601f19601f825160200101169050810190506040f35b63313ce56781186105ba57600436106143375760085460405260206040f35b636b441a4081186106305760243610614337576004358060a01c614337576040526c050c783eb9b5c8400000000011543318614337576040516c050c783eb9b5c8400000000014557f2f56810a6bf40af059b96d3aea4db54081f378029a518390491093a7b67032e960405160605260206060a1005b636a1c05ae81186106b25760043610614337576c050c783eb9b5c8400000000011543318614337576c050c783eb9b5c84000000000145460405260405115614337576040516c050c783eb9b5c8400000000011557febee2d5739011062cb4f14113f3b36bf0ffe3da5c0568f64189d1012a118910560405160605260206060a1005b6357f901e281186106fc5760243610614337576004358060a01c614337576040526c050c783eb9b5c8400000000011543318614337576040516c050c783eb9b5c840000000000f55005b638e5b490f81186107445760043610614337576c050c783eb9b5c8400000000011543318614337576c050c783eb9b5c840000000000f546c050c783eb9b5c840000000001055005b6355a33235811861088c5760243610614337576004358060011c614337576040526c050c783eb9b5c8400000000013543318156107d85760066060527f2161646d696e000000000000000000000000000000000000000000000000000060805260605060605180608001601f826000031636823750506308c379a06020526020604052601f19601f6060510116604401603cfd5b6c050c783eb9b5c8400000000016546040511861084c5760076060527f616c72656164790000000000000000000000000000000000000000000000000060805260605060605180608001601f826000031636823750506308c379a06020526020604052601f19601f6060510116604401603cfd5b6040516c050c783eb9b5c8400000000016557f66515f71c349ef0ad8c6981cedaa58746200512e6e12754c5ac5cc701d5cf41860405160605260206060a1005b63655317ae8118610a675760243610614337576c050c783eb9b5c8400000000013543318156109125760066040527f2161646d696e000000000000000000000000000000000000000000000000000060605260405060405180606001601f826000031636823750506308c379a06000526020602052601f19601f6040510116604401601cfd5b6032600435111561097a5760026040527f216b00000000000000000000000000000000000000000000000000000000000060605260405060405180606001601f826000031636823750506308c379a06000526020602052601f19601f6040510116604401601cfd5b6c050c783eb9b5c840000000001954603c810181811061433757905042116109f95760056040527f6561726c7900000000000000000000000000000000000000000000000000000060605260405060405180606001601f826000031636823750506308c379a06000526020602052601f19601f6040510116604401601cfd5b6c050c783eb9b5c8400000000017546c050c783eb9b5c8400000000018556004356c050c783eb9b5c840000000001755426c050c783eb9b5c8400000000019557f9c04360e3c3de1eeca25bbd4a21cdc22c4c192f4b91f91d2a0c59dcd042f8ba860043560405260206040a1005b63af3097af8118610b9f5760243610614337576004358060a01c614337576040526c050c783eb9b5c840000000001354331815610afb5760066060527f2161646d696e000000000000000000000000000000000000000000000000000060805260605060605180608001601f826000031636823750506308c379a06020526020604052601f19601f6060510116604401603cfd5b604051610b5f5760056060527f217a65726f00000000000000000000000000000000000000000000000000000060805260605060605180608001601f826000031636823750506308c379a06020526020604052601f19601f6060510116604401603cfd5b6040516c050c783eb9b5c840000000001a557ff51c492eafc918620c2d49b196e6a4e0cac71709d348224a8e7fc231ee973e5960405160605260206060a1005b6366e01ca98118610c635760043610614337576c050c783eb9b5c840000000001254331815610c255760066040527f2161646d696e000000000000000000000000000000000000000000000000000060605260405060405180606001601f826000031636823750506308c379a06000526020602052601f19601f6040510116604401601cfd5b60016c050c783eb9b5c8400000000021557f7ca88488f569b55d1fb073429f75839e505182c1f6d26e5caed22e9828df430c600160405260206040a1005b637c74a1748118610ce55760243610614337576004358060a01c614337576040526c050c783eb9b5c840000000000d6040516020526000526040600020546060526c050c783eb9b5c840000000000c6040516020526000526040600020606051633b9ac9ff81116143375760021b810190506001810190505460805260206080f35b63da020a188118610d475760443610614337576004358060a01c614337576040526c050c783eb9b5c840000000000c6040516020526000526040600020602435633b9ac9ff81116143375760021b810190506002810190505460605260206060f35b63adc635898118610d885760243610614337576004358060a01c61433757604052600a60405160205260005260406000206001810190505460605260206060f35b63c2c4c5c18118610dab57600436106143375760a036604037610da9613576565b005b633a46273e8118610f575760443610614337576004358060a01c614337576105e052600054600214614337576002600055600a6105e05160205260005260406000208054610600526001810154610620525060243515614337576001610600511215610e77576016610640527f4e6f206578697374696e67206c6f636b20666f756e64000000000000000000006106605261064050610640518061066001601f826000031636823750506308c379a061060052602061062052601f19601f61064051011660440161061cfd5b426106205111610f0c576024610640527f43616e6e6f742061646420746f2065787069726564206c6f636b2e2057697468610660527f64726177000000000000000000000000000000000000000000000000000000006106805261064050610640518061066001601f826000031636823750506308c379a061060052602061062052601f19601f61064051011660440161061cfd5b6105e0516103e05260243561040052600061042052600a6105e051602052600052604060002080546104405260018101546104605250600061048052610f50613c89565b6003600055005b637aa6be8281186111a25760643610614337576004358060a01c614337576105e05260005460021461433757600260005533604052610f9461347e565b60443562093a808104905062093a8081028162093a8082041861433757905061060052600a6105e0516020526000526040600020805461062052600181015461064052506024351561433757610620511561104f576019610660527f5769746864726177206f6c6420746f6b656e73206669727374000000000000006106805261066050610660518061068001601f826000031636823750506308c379a061062052602061064052601f19601f61066051011660440161063cfd5b4261060051116110e4576026610660527f43616e206f6e6c79206c6f636b20756e74696c2074696d6520696e2074686520610680527f66757475726500000000000000000000000000000000000000000000000000006106a05261066050610660518061068001601f826000031636823750506308c379a061062052602061064052601f19601f61066051011660440161063cfd5b426001548082018281106143375790509050610600511115611166576014610660527f566f74696e67206c6f636b20746f6f206c6f6e670000000000000000000000006106805261066050610660518061068001601f826000031636823750506308c379a061062052602061064052601f19601f61066051011660440161063cfd5b6105e0516103e0526024356104005261060051610420526106205161044052610640516104605260016104805261119b613c89565b6003600055005b6365fc387381186113d8576044361061433757600054600214614337576002600055336040526111d061347e565b60243562093a808104905062093a8081028162093a808204186143375790506105e052600a3360205260005260406000208054610600526001810154610620525060043515614337576106005115611288576019610640527f5769746864726177206f6c6420746f6b656e73206669727374000000000000006106605261064050610640518061066001601f826000031636823750506308c379a061060052602061062052601f19601f61064051011660440161061cfd5b426105e0511161131d576026610640527f43616e206f6e6c79206c6f636b20756e74696c2074696d6520696e2074686520610660527f66757475726500000000000000000000000000000000000000000000000000006106805261064050610640518061066001601f826000031636823750506308c379a061060052602061062052601f19601f61064051011660440161061cfd5b4260015480820182811061433757905090506105e051111561139f576014610640527f566f74696e67206c6f636b20746f6f206c6f6e670000000000000000000000006106605261064050610640518061066001601f826000031636823750506308c379a061060052602061062052601f19601f61064051011660440161061cfd5b336103e052600435610400526105e05161042052610600516104405261062051610460526001610480526113d1613c89565b6003600055005b634957677c811861156a5760243610614337576000546002146143375760026000553360405261140661347e565b600a33602052600052604060002080546105e05260018101546106005250600435156143375760016105e051121561149e576016610620527f4e6f206578697374696e67206c6f636b20666f756e64000000000000000000006106405261062050610620518061064001601f826000031636823750506308c379a06105e052602061060052601f19601f6106205101166044016105fcfd5b426106005111611533576024610620527f43616e6e6f742061646420746f2065787069726564206c6f636b2e2057697468610640527f64726177000000000000000000000000000000000000000000000000000000006106605261062050610620518061064001601f826000031636823750506308c379a06105e052602061060052601f19601f6106205101166044016105fcfd5b336103e052600435610400526000610420526105e051610440526106005161046052600261048052611563613c89565b6003600055005b63eff7a61281186117e85760243610614337576000546002146143375760026000553360405261159861347e565b600a33602052600052604060002080546105e0526001810154610600525060043562093a808104905062093a8081028162093a808204186143375790506106205242610600511161164957600c610640527f4c6f636b206578706972656400000000000000000000000000000000000000006106605261064050610640518061066001601f826000031636823750506308c379a061060052602061062052601f19601f61064051011660440161061cfd5b60016105e05112156116bb576011610640527f4e6f7468696e67206973206c6f636b65640000000000000000000000000000006106605261064050610640518061066001601f826000031636823750506308c379a061060052602061062052601f19601f61064051011660440161061cfd5b61060051610620511161172e57601f610640527f43616e206f6e6c7920696e637265617365206c6f636b206475726174696f6e006106605261064050610640518061066001601f826000031636823750506308c379a061060052602061062052601f19601f61064051011660440161061cfd5b4260015480820182811061433757905090506106205111156117b0576014610640527f566f74696e67206c6f636b20746f6f206c6f6e670000000000000000000000006106605261064050610640518061066001601f826000031636823750506308c379a061060052602061062052601f19601f61064051011660440161061cfd5b336103e05260006104005261062051610420526105e0516104405261060051610460526003610480526117e1613c89565b6003600055005b633ccfd60b8118611a3d576004361061433757600054600214614337576002600055600a33602052600052604060002080546103e0526001810154610400525061040051421015611847576c050c783eb9b5c84000000000215461184a565b60015b6118b4576017610420527f6c6f636b2021657870697265206f722021756e6c6f636b0000000000000000006104405261042050610420518061044001601f826000031636823750506308c379a06103e052602061040052601f19601f6104205101166044016103fcfd5b6103e0516000811261433757610420526103e05161044052610400516104605260006104005260006103e052600a3360205260005260406000206103e05181556104005160018201555060095461048052610480516104205180820382811161433757905090506009553360405261044051606052610460516080526103e05160a0526104005160c052611946613576565b60025463a9059cbb6104a052336104c052610420516104e05260206104a060446104bc6000855af161197d573d600060003e3d6000fd5b3d61199457803b15614337576001610500526119ad565b60203d10614337576104a0518060011c61433757610500525b6105009050511561433757337ff279e6a1f5e320cca91135676d9cb6e44ca8a08c0b88342bcdb1144f6511b568610420516104a052426104c05260406104a0a27f5e2aa66efd74cce82b21852e317e5490d9ecc9e6bb953ae24d90851258cc2f5c610480516104a052610480516104205180820382811161433757905090506104c05260406104a0a16003600055005b638239f0648118611edc57600436106143375760005460021461433757600260005560016c050c783eb9b5c8400000000016541815611adc57600d6103e0527f216561726c7920756e6c6f636b00000000000000000000000000000000000000610400526103e0506103e0518061040001601f826000031636823750506308c379a06103a05260206103c052601f19601f6103e05101166044016103bcfd5b600a33602052600052604060002080546103e05260018101546104005250610400514210611b6a57600c610420527f6c6f636b206578706972656400000000000000000000000000000000000000006104405261042050610420518061044001601f826000031636823750506308c379a06103e052602061040052601f19601f6104205101166044016103fcfd5b6103e05160008112614337576104205261040051428082038281116143375790509050610440526000610460526c050c783eb9b5c840000000001954603c81018181106143375790504211611bd1576c050c783eb9b5c84000000000185461046052611be5565b6c050c783eb9b5c840000000001754610460525b61044051670de0b6b3a7640000810281670de0b6b3a7640000820418614337579050600154801561433757808204905090506104605180820281158383830414171561433757905090506104805261042051610480518082028115838383041417156143375790509050670de0b6b3a764000081049050600a810490506104a052610420516104a0511115611c7d57610420516104a0525b610420516104a05180820382811161433757905090506104c0526103e0516104e052610400516105005260006104005260006103e052600a3360205260005260406000206103e0518155610400516001820155506009546105205261052051610420518082038281116143375790509050600955336040526104e051606052610500516080526103e05160a0526104005160c052611d19613576565b6104a05115611da35760025463a9059cbb610540526c050c783eb9b5c840000000001a54610560526104a051610580526020610540604461055c6000855af1611d67573d600060003e3d6000fd5b3d611d7e57803b156143375760016105a052611d97565b60203d1061433757610540518060011c614337576105a0525b6105a090505115614337575b6104c05115611e1f5760025463a9059cbb6105405233610560526104c051610580526020610540604461055c6000855af1611de3573d600060003e3d6000fd5b3d611dfa57803b156143375760016105a052611e13565b60203d1061433757610540518060011c614337576105a0525b6105a090505115614337575b337ff279e6a1f5e320cca91135676d9cb6e44ca8a08c0b88342bcdb1144f6511b568610420516105405242610560526040610540a27f5e2aa66efd74cce82b21852e317e5490d9ecc9e6bb953ae24d90851258cc2f5c610520516105405261052051610420518082038281116143375790509050610560526040610540a1337ff11a1a5a36ad286d4f77c166e8d87e5bfe87d1e74f9c46654ef21bd811c6784f6104a0516105405261044051610560526040610540a26003600055005b6370a082318118611ef95760243610614337574261014052611f13565b62fdd58e81186120a2576044361061433757602435610140525b6004358060a01c6143375761012052600061016052426101405118611f59576c050c783eb9b5c840000000000d6101205160205260005260406000205461016052611f9c565b61012051604052610140516060526c050c783eb9b5c840000000000d61012051602052600052604060002054608052611f93610180614101565b61018051610160525b61016051611fb85760006101805260206101806120a0566120a0565b6c050c783eb9b5c840000000000c61012051602052600052604060002061016051633b9ac9ff81116143375760021b8101905080546101805260018101546101a05260028101546101c05260038101546101e05250610180516101a051610140516101c051808203828111614337579050905080607f1c6143375780820280600f0b8118614337579050905080820380600f0b81186143375790509050610180527fffffffffffffffffffffffffffffffffffffffffffffffffffffffffffffffff610180511361208a576000610180525b6101805160008112614337576102005260206102005bf35b634ee2cd7e811861237d5760443610614337576004358060a01c6143375761012052436024351161433757610120516040526024356060526c050c783eb9b5c840000000000d61012051602052600052604060002054608052612106610160614039565b61016051610140526c050c783eb9b5c840000000000c61012051602052600052604060002061014051633b9ac9ff81116143375760021b8101905080546101605260018101546101805260028101546101a05260038101546101c05250600b546101e0526024356040526101e051606052612182610220613ed9565b6102205161020052610200516c01431e0fae6d7217ca9fffffff81116143375760021b600c01805461022052600181015461024052600281015461026052600381015461028052506040366102a0376101e051610200511061221157436102805180820382811161433757905090506102a052426102605180820382811161433757905090506102c052612293565b61020051600181018181106143375790506c01431e0fae6d7217ca9fffffff81116143375760021b600c0180546102e05260018101546103005260028101546103205260038101546103405250610340516102805180820382811161433757905090506102a052610320516102605180820382811161433757905090506102c0525b610260516102e0526102a051156122f9576102e0516102c05160243561028051808203828111614337579050905080820281158383830414171561433757905090506102a0518015614337578082049050905080820182811061433757905090506102e0525b61016051610180516102e0516101a051808203828111614337579050905080607f1c6143375780820280600f0b8118614337579050905080820380600f0b8118614337579050905061016052600061016051121561236557600061030052602061030061237b5661237b565b6101605160008112614337576103005260206103005bf35b6318160ddd811861239a576004361061433757426101c0526123b5565b63bd85b03981186124845760243610614337576004356101c0525b60006101e052426101c051186123d157600b546101e0526123f2565b6101c051604052600b546060526123e9610200613f89565b610200516101e0525b6101e05161240e57600061020052602061020061248256612482565b6101e0516c01431e0fae6d7217ca9fffffff81116143375760021b600c018054610200526001810154610220526002810154610240526003810154610260525060206102005160405261022051606052610240516080526102605160a0526101c05160c05261247e6102806141c9565b6102805bf35b63981b24d08118612691576024361061433757436004351161433757600b546101c0526004356040526101c0516060526124bf610200613ed9565b610200516101e0526101e0516c01431e0fae6d7217ca9fffffff81116143375760021b600c01805461020052600181015461022052600281015461024052600381015461026052506000610280526101c0516101e051106125895743610260511461264a5760043561026051808203828111614337579050905042610240518082038281116143375790509050808202811583838304141715614337579050905043610260518082038281116143375790509050801561433757808204905090506102805261264a565b6101e051600181018181106143375790506c01431e0fae6d7217ca9fffffff81116143375760021b600c0180546102a05260018101546102c05260028101546102e0526003810154610300525061030051610260511461264a576004356102605180820382811161433757905090506102e05161024051808203828111614337579050905080820281158383830414171561433757905090506103005161026051808203828111614337579050905080156143375780820490509050610280525b60206102005160405261022051606052610240516080526102605160a0526102405161028051808201828110614337579050905060c05261268c6102a06141c9565b6102a0f35b63db93cc7a81186128cc5760043610614337576000546002146143375760026000556c050c783eb9b5c840000000001b54636a627842604052600254606052602060406024605c6000855af16126ec573d600060003e3d6000fd5b60203d1061433757604050506c050c783eb9b5c840000000001c546370a0823160605230608052602060606024607c845afa61272d573d600060003e3d6000fd5b60203d10614337576060905051604052604051156128c5576c050c783eb9b5c8400000000020546c050c783eb9b5c840000000001e5418612842576c050c783eb9b5c840000000001c5463095ea7b36060526c050c783eb9b5c84000000000205460805260405160a052602060606044607c6000855af16127b3573d600060003e3d6000fd5b3d6127c957803b1561433757600160c0526127e0565b60203d10614337576060518060011c6143375760c0525b60c090505115614337576c050c783eb9b5c84000000000205463338b5dea6060526c050c783eb9b5c840000000001c5460805260405160a052803b1561433757600060606044607c6000855af161283c573d600060003e3d6000fd5b506128c5565b6c050c783eb9b5c840000000001c5463a9059cbb6060526c050c783eb9b5c840000000001e5460805260405160a052602060606044607c6000855af161288d573d600060003e3d6000fd5b3d6128a357803b1561433757600160c0526128ba565b60203d10614337576060518060011c6143375760c0525b60c090505115614337575b6003600055005b6301242c898118612d9257600436106143375760005460021461433757600260005560025460405260016060526c050c783eb9b5c840000000001c546370a0823160a0523060c052602060a0602460bc845afa61292e573d600060003e3d6000fd5b60203d106143375760a09050516080526c050c783eb9b5c840000000001d546370a0823160c0523060e052602060c0602460dc845afa612973573d600060003e3d6000fd5b60203d106143375760c090505160a052604051637050ccd960c0523060e05260605161010052803b1561433757600060c0604460dc6000855af16129bc573d600060003e3d6000fd5b506c050c783eb9b5c840000000001c546370a0823160c0523060e052602060c0602460dc845afa6129f2573d600060003e3d6000fd5b60203d106143375760c090505160805180820382811161433757905090506080526c050c783eb9b5c840000000001d546370a0823160c0523060e052602060c0602460dc845afa612a48573d600060003e3d6000fd5b60203d106143375760c090505160a051808203828111614337579050905060a05260805115612bfa576c050c783eb9b5c8400000000020546c050c783eb9b5c840000000001e5418612b73576c050c783eb9b5c840000000001c5463095ea7b360c0526c050c783eb9b5c84000000000205460e05260805161010052602060c0604460dc6000855af1612ae0573d600060003e3d6000fd5b3d612af757803b1561433757600161012052612b0f565b60203d106143375760c0518060011c61433757610120525b61012090505115614337576c050c783eb9b5c84000000000205463338b5dea60c0526c050c783eb9b5c840000000001c5460e05260805161010052803b1561433757600060c0604460dc6000855af1612b6d573d600060003e3d6000fd5b50612bfa565b6c050c783eb9b5c840000000001c5463a9059cbb60c0526c050c783eb9b5c840000000001e5460e05260805161010052602060c0604460dc6000855af1612bbf573d600060003e3d6000fd5b3d612bd657803b1561433757600161012052612bee565b60203d106143375760c0518060011c61433757610120525b61012090505115614337575b60a05115612d8b576c050c783eb9b5c8400000000020546c050c783eb9b5c840000000001e5418612d04576c050c783eb9b5c840000000001d5463095ea7b360c0526c050c783eb9b5c84000000000205460e05260a05161010052602060c0604460dc6000855af1612c71573d600060003e3d6000fd5b3d612c8857803b1561433757600161012052612ca0565b60203d106143375760c0518060011c61433757610120525b61012090505115614337576c050c783eb9b5c84000000000205463338b5dea60c0526c050c783eb9b5c840000000001d5460e05260a05161010052803b1561433757600060c0604460dc6000855af1612cfe573d600060003e3d6000fd5b50612d8b565b6c050c783eb9b5c840000000001d5463a9059cbb60c0526c050c783eb9b5c840000000001e5460e05260a05161010052602060c0604460dc6000855af1612d50573d600060003e3d6000fd5b3d612d6757803b1561433757600161012052612d7f565b60203d106143375760c0518060011c61433757610120525b61012090505115614337575b6003600055005b63cb8e090d8118612f3a5760243610614337576004358060a01c614337576040526c050c783eb9b5c840000000001154331815612e265760066060527f2161646d696e000000000000000000000000000000000000000000000000000060805260605060605180608001601f826000031636823750506308c379a06020526020604052601f19601f6060510116604401603cfd5b6c050c783eb9b5c840000000001f54612e9657600a6060527f21617661696c61626c650000000000000000000000000000000000000000000060805260605060605180608001601f826000031636823750506308c379a06020526020604052601f19601f6060510116604401603cfd5b604051612efa5760066060527f21656d707479000000000000000000000000000000000000000000000000000060805260605060605180608001601f826000031636823750506308c379a06020526020604052601f19601f6060510116604401603cfd5b6040516c050c783eb9b5c840000000001e557f454ccf21cdac2e344d64173597f5922657c25c5b1e6c3f733791637513d2063760405160605260206060a1005b63ee00ef3a8118612f5957600436106143375760015460405260206040f35b6382bfefc88118612f7857600436106143375760025460405260206040f35b63047fc9aa8118612f9757600436106143375760095460405260206040f35b63cbf9fe5f8118612fdc5760243610614337576004358060a01c61433757604052600a6040516020526000526040600020805460605260018101546080525060406060f35b63900cf0cf8118612ffb576004361061433757600b5460405260206040f35b63d1febfb9811861304f5760243610614337576004356c01431e0fae6d7217ca9fffffff81116143375760021b600c01805460405260018101546060526002810154608052600381015460a0525060806040f35b6328d09d4781186130c55760443610614337576004358060a01c614337576040526c050c783eb9b5c840000000000c6040516020526000526040600020602435633b9ac9ff81116143375760021b8101905080546060526001810154608052600281015460a052600381015460c0525060806060f35b63010ae757811861310c5760243610614337576004358060a01c614337576040526c050c783eb9b5c840000000000d60405160205260005260406000205460605260206060f35b637119748481186131455760243610614337576c050c783eb9b5c840000000000e60043560205260005260406000205460405260206040f35b638ff36fd181186131705760043610614337576c050c783eb9b5c840000000000f5460405260206040f35b637175d4f7811861319b5760043610614337576c050c783eb9b5c84000000000105460405260206040f35b63f851a44081186131c65760043610614337576c050c783eb9b5c84000000000115460405260206040f35b631426142581186131f15760043610614337576c050c783eb9b5c84000000000125460405260206040f35b6322cf35f5811861321c5760043610614337576c050c783eb9b5c84000000000135460405260206040f35b6317f7182a81186132475760043610614337576c050c783eb9b5c84000000000145460405260206040f35b639a01873c81186132725760043610614337576c050c783eb9b5c84000000000155460405260206040f35b63f6846727811861329d5760043610614337576c050c783eb9b5c84000000000165460405260206040f35b63cd8c79aa81186132c85760043610614337576c050c783eb9b5c84000000000175460405260206040f35b63094cda2381186132f35760043610614337576c050c783eb9b5c84000000000185460405260206040f35b63205ad408811861331e5760043610614337576c050c783eb9b5c84000000000195460405260206040f35b635836ec3a81186133495760043610614337576c050c783eb9b5c840000000001a5460405260206040f35b6373f43d6d81186133745760043610614337576c050c783eb9b5c840000000001b5460405260206040f35b6338d54645811861339f5760043610614337576c050c783eb9b5c840000000001c5460405260206040f35b639cc9ccb681186133ca5760043610614337576c050c783eb9b5c840000000001d5460405260206040f35b631dac30b081186133f55760043610614337576c050c783eb9b5c840000000001e5460405260206040f35b63b027651a81186134205760043610614337576c050c783eb9b5c840000000001f5460405260206040f35b63acc2166a811861344b5760043610614337576c050c783eb9b5c84000000000205460405260206040f35b63b3d8f7e781186134765760043610614337576c050c783eb9b5c84000000000215460405260206040f35b505b60006000fd5b3260405114613574576c050c783eb9b5c840000000001054606052606051156134f35760605163c23697a860805260405160a052602060806024609c6000855af16134ce573d600060003e3d6000fd5b60203d10614337576080518060011c6143375760c05260c0905051156134f357613574565b60256080527f536d61727420636f6e7472616374206465706f7369746f7273206e6f7420616c60a0527f6c6f77656400000000000000000000000000000000000000000000000000000060c0526080506080518060a001601f826000031636823750506308c379a06040526020606052601f19601f6080510116604401605cfd5b565b6101403660e037600b5461022052604051156136e257426080511161359c5760006135a4565b600160605112155b156136055760605160015480607f1c6143375780156143375780820580600f0b81186143375790509050610100526101005160805142808203828111614337579050905080607f1c6143375780820280600f0b8118614337579050905060e0525b4260c0511161361557600061361d565b600160a05112155b1561367f5760a05160015480607f1c6143375780156143375780820580600f0b81186143375790509050610180526101805160c05142808203828111614337579050905080607f1c6143375780820280600f0b81186143375790509050610160525b6c050c783eb9b5c840000000000e6080516020526000526040600020546101e05260c051156136e25760805160c051186136c0576101e051610200526136e2565b6c050c783eb9b5c840000000000e60c051602052600052604060002054610200525b604036610240374261028052436102a052610220511561373d57610220516c01431e0fae6d7217ca9fffffff81116143375760021b600c0180546102405260018101546102605260028101546102805260038101546102a052505b610280516102c052610240516102e052610260516103005261028051610320526102a05161034052600061036052610280514211156137cc57436102a0518082038281116143375790509050670de0b6b3a7640000810281670de0b6b3a76400008204186143375790504261028051808203828111614337579050905080156143375780820490509050610360525b6102c05162093a808104905062093a8081028162093a8082041861433757905061038052600060ff905b806103a0526103805162093a8081018181106143375790506103805260006103c052426103805111613849576c050c783eb9b5c840000000000e610380516020526000526040600020546103c05261384f565b42610380525b6102405161026051610380516102c051808203828111614337579050905080607f1c6143375780820280600f0b8118614337579050905080820380600f0b8118614337579050905061024052610260516103c05180820180600f0b81186143375790509050610260527fffffffffffffffffffffffffffffffffffffffffffffffffffffffffffffffff61024051136138e9576000610240525b7fffffffffffffffffffffffffffffffffffffffffffffffffffffffffffffffff610260511361391a576000610260525b610380516102c05261038051610280526103405161036051610380516103205180820382811161433757905090508082028115838383041417156143375790509050670de0b6b3a76400008104905080820182811061433757905090506102a0526102205160018101818110614337579050610220524261038051186139a857436102a0526139f4566139e9565b610220516c01431e0fae6d7217ca9fffffff81116143375760021b600c016102405181556102605160018201556102805160028201556102a0516003820155505b6001018181186137f6575b505061022051600b5560405115613aca5761026051610180516101005180820380600f0b8118614337579050905080820180600f0b8118614337579050905061026052610240516101605160e05180820380600f0b8118614337579050905080820180600f0b81186143375790509050610240527fffffffffffffffffffffffffffffffffffffffffffffffffffffffffffffffff6102605113613a99576000610260525b7fffffffffffffffffffffffffffffffffffffffffffffffffffffffffffffffff6102405113613aca576000610240525b610220516c01431e0fae6d7217ca9fffffff81116143375760021b600c016102405181556102605160018201556102805160028201556102a05160038201555060405115613c8757426080511115613b84576101e0516101005180820180600f0b811861433757905090506101e05260805160c05118613b62576101e0516101805180820380600f0b811861433757905090506101e0525b6101e0516c050c783eb9b5c840000000000e6080516020526000526040600020555b4260c0511115613bd95760805160c0511115613bd957610200516101805180820380600f0b8118614337579050905061020052610200516c050c783eb9b5c840000000000e60c0516020526000526040600020555b6c050c783eb9b5c840000000000d604051602052600052604060002054600181018181106143375790506103a0526103a0516c050c783eb9b5c840000000000d604051602052600052604060002055426101a052436101c0526c050c783eb9b5c840000000000c60405160205260005260406000206103a051633b9ac9ff81116143375760021b810190506101605181556101805160018201556101a05160028201556101c0516003820155505b565b6c050c783eb9b5c84000000000215415613d035760156104a0527f616c6c20756e6c6f636b65642c6e6f2073656e736500000000000000000000006104c0526104a0506104a051806104c001601f826000031636823750506308c379a061046052602061048052601f19601f6104a051011660440161047cfd5b610440516104a052610460516104c0526009546104e0526104e0516104005180820182811061433757905090506009556104a051610500526104c051610520526104a0516104005180607f1c6143375780820180600f0b811861433757905090506104a0526104205115613d7a57610420516104c0525b600a6103e05160205260005260406000206104a05181556104c0516001820155506103e05160405261050051606052610520516080526104a05160a0526104c05160c052613dc6613576565b6104005115613e4a576002546323b872dd610540526103e051610560523061058052610400516105a0526020610540606461055c6000855af1613e0e573d600060003e3d6000fd5b3d613e2557803b156143375760016105c052613e3e565b60203d1061433757610540518060011c614337576105c0525b6105c090505115614337575b6104c0516103e0517f4566dfc29f6f11d13a418c26a02bef7c28bae749d4de47e4e6a7cddea6730d596104005161054052610480516105605242610580526060610540a37f5e2aa66efd74cce82b21852e317e5490d9ecc9e6bb953ae24d90851258cc2f5c6104e051610540526104e051610400518082018281106143375790509050610560526040610540a1565b600060805260605160a05260006080905b8060c05260a05160805110613efe57613f7f565b60805160a0518082018281106143375790509050600181018181106143375790508060011c905060e05260405160e0516c01431e0fae6d7217ca9fffffff81116143375760021b600c01600381019050541115613f6d5760e0516001810381811161433757905060a052613f74565b60e0516080525b600101818118613eea575b5050608051815250565b600060805260605160a05260006080905b8060c05260a05160805110613fae5761402f565b60805160a0518082018281106143375790509050600181018181106143375790508060011c905060e05260405160e0516c01431e0fae6d7217ca9fffffff81116143375760021b600c0160028101905054111561401d5760e0516001810381811161433757905060a052614024565b60e0516080525b600101818118613f9a575b5050608051815250565b600060a05260805160c05260006080905b8060e05260c05160a0511061405e576140f7565b60a05160c0518082018281106143375790509050600181018181106143375790508060011c9050610100526060516c050c783eb9b5c840000000000c604051602052600052604060002061010051633b9ac9ff81116143375760021b810190506003810190505411156140e457610100516001810381811161433757905060c0526140ec565b6101005160a0525b60010181811861404a575b505060a051815250565b600060a05260805160c05260006080905b8060e05260c05160a05110614126576141bf565b60a05160c0518082018281106143375790509050600181018181106143375790508060011c9050610100526060516c050c783eb9b5c840000000000c604051602052600052604060002061010051633b9ac9ff81116143375760021b810190506002810190505411156141ac57610100516001810381811161433757905060c0526141b4565b6101005160a0525b600101818118614112575b505060a051815250565b60405160e052606051610100526080516101205260a051610140526101205162093a808104905062093a8081028162093a8082041861433757905061016052600060ff905b80610180526101605162093a8081018181106143375790506101605260006101a05260c0516101605111614263576c050c783eb9b5c840000000000e610160516020526000526040600020546101a05261426b565b60c051610160525b60e051610100516101605161012051808203828111614337579050905080607f1c6143375780820280600f0b8118614337579050905080820380600f0b8118614337579050905060e05260c05161016051186142c6576142f6565b610100516101a05180820180600f0b8118614337579050905061010052610160516101205260010181811861420e575b50507fffffffffffffffffffffffffffffffffffffffffffffffffffffffffffffffff60e0511361432757600060e0525b60e0516000811261433757815250565b600080fda165767970657283000307000b","linkReferences":{}},"methodIdentifiers":{},"id":0}