{"abi":[{"type":"function","name":"getUserClaimableReward","inputs":[{"name":"distributor","type":"address","internalType":"contract IRewardDistributor"},{"name":"user","type":"address","internalType":"address"},{"name":"token","type":"address","internalType":"contract IERC20"}],"outputs":[{"name":"","type":"tuple","internalType":"struct LensReward.ClaimableRewards","components":[{"name":"token","type":"address","internalType":"address"},{"name":"claimableAmount","type":"uint256","internalType":"uint256"}]}],"stateMutability":"nonpayable"},{"type":"function","name":"getUserClaimableRewardsAll","inputs":[{"name":"distributor","type":"address","internalType":"contract IRewardDistributor"},{"name":"user","type":"address","internalType":"address"},{"name":"tokens","type":"address[]","internalType":"contract IERC20[]"}],"outputs":[{"name":"","type":"tuple[]","internalType":"struct LensReward.ClaimableRewards[]","components":[{"name":"token","type":"address","internalType":"address"},{"name":"claimableAmount","type":"uint256","internalType":"uint256"}]}],"stateMutability":"nonpayable"}],"bytecode":{"object":"0x6080604052348015600f57600080fd5b5061052c8061001f6000396000f3fe608060405234801561001057600080fd5b50600436106100365760003560e01c80635753bfca1461003b57806360491ff414610064575b600080fd5b61004e610049366004610306565b610084565b60405161005b9190610351565b60405180910390f35b610077610072366004610373565b610221565b60405161005b919061040b565b60408051808201909152600080825260208201526040516370a0823160e01b81526001600160a01b038481166004830152600091908416906370a0823190602401602060405180830381865afa1580156100e2573d6000803e3d6000fd5b505050506040513d601f19601f82011682018060405250810190610106919061046c565b60405163ca31879d60e01b81526001600160a01b03868116600483015285811660248301529192509086169063ca31879d906044016020604051808303816000875af115801561015a573d6000803e3d6000fd5b505050506040513d601f19601f8201168201806040525081019061017e919061046c565b506040516370a0823160e01b81526001600160a01b038581166004830152600091908516906370a0823190602401602060405180830381865afa1580156101c9573d6000803e3d6000fd5b505050506040513d601f19601f820116820180604052508101906101ed919061046c565b90506040518060400160405280856001600160a01b0316815260200183836102159190610485565b90529695505050505050565b60608160008167ffffffffffffffff81111561023f5761023f6104a6565b60405190808252806020026020018201604052801561028457816020015b604080518082019091526000808252602082015281526020019060019003908161025d5790505b50905060005b828110156102e3576102be88888888858181106102a9576102a96104bc565b905060200201602081019061004991906104d2565b8282815181106102d0576102d06104bc565b602090810291909101015260010161028a565b509695505050505050565b6001600160a01b038116811461030357600080fd5b50565b60008060006060848603121561031b57600080fd5b8335610326816102ee565b92506020840135610336816102ee565b91506040840135610346816102ee565b809150509250925092565b81516001600160a01b0316815260208083015190820152604081015b92915050565b6000806000806060858703121561038957600080fd5b8435610394816102ee565b935060208501356103a4816102ee565b9250604085013567ffffffffffffffff8111156103c057600080fd5b8501601f810187136103d157600080fd5b803567ffffffffffffffff8111156103e857600080fd5b8760208260051b84010111156103fd57600080fd5b949793965060200194505050565b602080825282518282018190526000918401906040840190835b818110156104615761044b83855180516001600160a01b03168252602090810151910152565b6020939093019260409290920191600101610425565b509095945050505050565b60006020828403121561047e57600080fd5b5051919050565b8181038181111561036d57634e487b7160e01b600052601160045260246000fd5b634e487b7160e01b600052604160045260246000fd5b634e487b7160e01b600052603260045260246000fd5b6000602082840312156104e457600080fd5b81356104ef816102ee565b939250505056fea264697066735822122097018792d8eb56965ee69a3b7af58c2c899c8402e3ee6bdf0b642bb5ae9ea24b64736f6c634300081a0033","linkReferences":{}},"methodIdentifiers":{"getUserClaimableReward(address,address,address)":"5753bfca","getUserClaimableRewardsAll(address,address,address[])":"60491ff4"},"id":0}