{"abi":[{"type":"function","name":"deployBlueprint","inputs":[{"name":"fileName","type":"string","internalType":"string"}],"outputs":[{"name":"","type":"address","internalType":"address"}],"stateMutability":"nonpayable"},{"type":"function","name":"deployContract","inputs":[{"name":"fileName","type":"string","internalType":"string"},{"name":"args","type":"bytes","internalType":"bytes"}],"outputs":[{"name":"","type":"address","internalType":"address"}],"stateMutability":"nonpayable"},{"type":"function","name":"deployContract","inputs":[{"name":"fileName","type":"string","internalType":"string"}],"outputs":[{"name":"","type":"address","internalType":"address"}],"stateMutability":"nonpayable"}],"bytecode":{"object":"0x6080604052600080546001600160a01b031916737109709ecfa91a80626ff3989d68f67f5b1dd12d179055348015603557600080fd5b50610990806100456000396000f3fe608060405234801561001057600080fd5b50600436106100415760003560e01c8063124861cc1461004657806357ae71d414610075578063c32723ed14610088575b600080fd5b61005961005436600461061b565b61009b565b6040516001600160a01b03909116815260200160405180910390f35b610059610083366004610650565b6102b8565b61005961009636600461061b565b6103f5565b60408051600280825260608201909252600091829190816020015b60608152602001906001900390816100b6579050509050604051806040016040528060058152602001643b3cb832b960d91b815250816000815181106100fe576100fe6106f0565b60200260200101819052508260405160200161011a919061072a565b6040516020818303038152906040528160018151811061013c5761013c6106f0565b602090810291909101015260008054604051638916046760e01b81526001600160a01b039091169063891604679061017890859060040161076f565b6000604051808303816000875af1158015610197573d6000803e3d6000fd5b505050506040513d6000823e601f3d908101601f191682016040526101bf91908101906107ef565b905060008151116102275760405162461bcd60e51b815260206004820152602760248201527f496e6974636f646573206c656e677468206d75737420626520677265617465726044820152660207468616e20360cc1b60648201526084015b60405180910390fd5b60008160405160200161023a9190610866565b60405160208183030381529060405290506000815160f01b9050600081836040516020016102699291906108a0565b604051602081830303815290604052905060008151602083016000f090506001600160a01b0381166102ad5760405162461bcd60e51b815260040161021e906108eb565b979650505050505050565b60408051600280825260608201909252600091829190816020015b60608152602001906001900390816102d3579050509050604051806040016040528060058152602001643b3cb832b960d91b8152508160008151811061031b5761031b6106f0565b602002602001018190525084604051602001610337919061072a565b60405160208183030381529060405281600181518110610359576103596106f0565b602090810291909101015260008054604051638916046760e01b81526001600160a01b039091169063891604679061039590859060040161076f565b6000604051808303816000875af11580156103b4573d6000803e3d6000fd5b505050506040513d6000823e601f3d908101601f191682016040526103dc91908101906107ef565b9050600081868660405160200161026993929190610932565b60408051600280825260608201909252600091829190816020015b6060815260200190600190039081610410579050509050604051806040016040528060058152602001643b3cb832b960d91b81525081600081518110610458576104586106f0565b602002602001018190525082604051602001610474919061072a565b60405160208183030381529060405281600181518110610496576104966106f0565b602090810291909101015260008054604051638916046760e01b81526001600160a01b03909116906389160467906104d290859060040161076f565b6000604051808303816000875af11580156104f1573d6000803e3d6000fd5b505050506040513d6000823e601f3d908101601f1916820160405261051991908101906107ef565b905060008151602083016000f090506001600160a01b03811661054e5760405162461bcd60e51b815260040161021e906108eb565b949350505050565b634e487b7160e01b600052604160045260246000fd5b604051601f8201601f1916810167ffffffffffffffff8111828210171561059557610595610556565b604052919050565b600067ffffffffffffffff8211156105b7576105b7610556565b50601f01601f191660200190565b600082601f8301126105d657600080fd5b81356105e96105e48261059d565b61056c565b8181528460208386010111156105fe57600080fd5b816020850160208301376000918101602001919091529392505050565b60006020828403121561062d57600080fd5b813567ffffffffffffffff81111561064457600080fd5b61054e848285016105c5565b60008060006040848603121561066557600080fd5b833567ffffffffffffffff81111561067c57600080fd5b610688868287016105c5565b935050602084013567ffffffffffffffff8111156106a557600080fd5b8401601f810186136106b657600080fd5b803567ffffffffffffffff8111156106cd57600080fd5b8660208284010111156106df57600080fd5b939660209190910195509293505050565b634e487b7160e01b600052603260045260246000fd5b60005b83811015610721578181015183820152602001610709565b50506000910152565b6f76797065725f636f6e7472616374732f60801b815260008251610755816010850160208701610706565b622e767960e81b6010939091019283015250601301919050565b6000602082016020835280845180835260408501915060408160051b86010192506020860160005b828110156107e357603f19878603018452815180518087526107c0816020890160208501610706565b601f01601f19169590950160209081019550938401939190910190600101610797565b50929695505050505050565b60006020828403121561080157600080fd5b815167ffffffffffffffff81111561081857600080fd5b8201601f8101841361082957600080fd5b80516108376105e48261059d565b81815285602083850101111561084c57600080fd5b61085d826020830160208601610706565b95945050505050565b607f60f91b8152607160f81b60018201526000600282018190528251610893816003850160208701610706565b9190910160030192915050565b606160f81b81526001600160f01b031983166001820152663d81600a3d39f360c81b600382015281516000906108dd81600a850160208701610706565b91909101600a019392505050565b60208082526027908201527f56797065724465706c6f79657220636f756c64206e6f74206465706c6f7920636040820152661bdb9d1c9858dd60ca1b606082015260800190565b60008451610944818460208901610706565b820183858237600093019283525090939250505056fea2646970667358221220f9261b3ff1fca92cbccffcecf2c0fd60add66b07def3eeca6e1f174aecf1636364736f6c634300081a0033","linkReferences":{}},"methodIdentifiers":{"deployBlueprint(string)":"124861cc","deployContract(string)":"c32723ed","deployContract(string,bytes)":"57ae71d4"},"id":71}