{"abi":[{"type":"constructor","inputs":[{"name":"_admin","type":"address","internalType":"address"}],"stateMutability":"nonpayable"},{"type":"function","name":"admin","inputs":[],"outputs":[{"name":"","type":"address","internalType":"address"}],"stateMutability":"view"},{"type":"function","name":"approveWallet","inputs":[{"name":"_wallet","type":"address","internalType":"address"}],"outputs":[],"stateMutability":"nonpayable"},{"type":"function","name":"approveWalletList","inputs":[{"name":"_wallets","type":"address[]","internalType":"address[]"}],"outputs":[],"stateMutability":"nonpayable"},{"type":"function","name":"check","inputs":[{"name":"_wallet","type":"address","internalType":"address"}],"outputs":[{"name":"","type":"bool","internalType":"bool"}],"stateMutability":"view"},{"type":"function","name":"checker","inputs":[],"outputs":[{"name":"","type":"address","internalType":"address"}],"stateMutability":"view"},{"type":"function","name":"isAllowAll","inputs":[],"outputs":[{"name":"","type":"bool","internalType":"bool"}],"stateMutability":"view"},{"type":"function","name":"revokeWallet","inputs":[{"name":"_wallet","type":"address","internalType":"address"}],"outputs":[],"stateMutability":"nonpayable"},{"type":"function","name":"revokeWalletList","inputs":[{"name":"_wallets","type":"address[]","internalType":"address[]"}],"outputs":[],"stateMutability":"nonpayable"},{"type":"function","name":"setAllowAll","inputs":[{"name":"_isAllowAll","type":"bool","internalType":"bool"}],"outputs":[],"stateMutability":"nonpayable"},{"type":"function","name":"setChecker","inputs":[{"name":"_checker","type":"address","internalType":"address"}],"outputs":[],"stateMutability":"nonpayable"},{"type":"function","name":"wallets","inputs":[{"name":"","type":"address","internalType":"address"}],"outputs":[{"name":"","type":"bool","internalType":"bool"}],"stateMutability":"view"},{"type":"event","name":"ApproveWallet","inputs":[{"name":"","type":"address","indexed":false,"internalType":"address"}],"anonymous":false},{"type":"event","name":"NewChecker","inputs":[{"name":"","type":"address","indexed":false,"internalType":"address"}],"anonymous":false},{"type":"event","name":"RevokeWallet","inputs":[{"name":"","type":"address","indexed":false,"internalType":"address"}],"anonymous":false},{"type":"event","name":"SetAllowAll","inputs":[{"name":"","type":"bool","indexed":false,"internalType":"bool"}],"anonymous":false}],"bytecode":{"object":"0x60a06040526001805460ff60a01b19169055348015601c57600080fd5b506040516107e93803806107e98339810160408190526039916049565b6001600160a01b03166080526077565b600060208284031215605a57600080fd5b81516001600160a01b0381168114607057600080fd5b9392505050565b6080516107346100b5600039600081816101b1015281816101d50152818161030101528181610396015281816103e7015261054901526107346000f3fe608060405234801561001057600080fd5b50600436106100a95760003560e01c8063808a9d4011610071578063808a9d401461012557806389b08f1114610138578063c23697a81461015b578063cf5303cf1461016e578063cf880f4c14610199578063f851a440146101ac57600080fd5b80630fcb0ae5146100ae5780631b833791146100c35780632c6766c6146100d6578063396ad9d3146100ff5780634d7d9c0114610112575b600080fd5b6100c16100bc3660046105dd565b6101d3565b005b6100c16100d1366004610606565b61027d565b6001546100ea90600160a01b900460ff1681565b60405190151581526020015b60405180910390f35b6100c161010d366004610606565b6102c1565b6100c161012036600461068e565b6102ff565b6100c16101333660046105dd565b610394565b6100ea6101463660046105dd565b60006020819052908152604090205460ff1681565b6100ea6101693660046105dd565b610473565b600154610181906001600160a01b031681565b6040516001600160a01b0390911681526020016100f6565b6100c16101a73660046105dd565b610547565b6101817f000000000000000000000000000000000000000000000000000000000000000081565b7f00000000000000000000000000000000000000000000000000000000000000006001600160a01b031633146102245760405162461bcd60e51b815260040161021b906106ab565b60405180910390fd5b6001600160a01b03811660008181526020818152604091829020805460ff1916600117905590519182527fc1e7aae3f3125e58cfc69ab2a872a655dbb9427614aa85b29bb5abeaca4d6a9291015b60405180910390a150565b8060005b818110156102bb576102b384848381811061029e5761029e6106cb565b905060200201602081019061013391906105dd565b600101610281565b50505050565b8060005b818110156102bb576102f78484838181106102e2576102e26106cb565b90506020020160208101906100bc91906105dd565b6001016102c5565b7f00000000000000000000000000000000000000000000000000000000000000006001600160a01b031633146103475760405162461bcd60e51b815260040161021b906106ab565b60018054821515600160a01b0260ff60a01b199091161790556040517fd6b910c3c867dfdca6ffe654abf208c60c6b831d36ddc04b3c5f43c2982caa379061027290831515815260200190565b7f00000000000000000000000000000000000000000000000000000000000000006001600160a01b031633146103dc5760405162461bcd60e51b815260040161021b906106ab565b336001600160a01b037f000000000000000000000000000000000000000000000000000000000000000016146104245760405162461bcd60e51b815260040161021b906106ab565b6001600160a01b03811660008181526020818152604091829020805460ff1916905590519182527f1b676c3cc753786cb95aff57280fd7406f1da74e2a8b9755fdd395aded3e16dd9101610272565b600154600090600160a01b900460ff161561049057506001919050565b6001600160a01b03821660009081526020819052604090205460ff1680156104b85792915050565b6001546001600160a01b03161561053e57600154604051631846d2f560e31b81526001600160a01b0385811660048301529091169063c23697a890602401602060405180830381865afa158015610513573d6000803e3d6000fd5b505050506040513d601f19601f8201168201806040525081019061053791906106e1565b9392505050565b50600092915050565b7f00000000000000000000000000000000000000000000000000000000000000006001600160a01b0316331461058f5760405162461bcd60e51b815260040161021b906106ab565b600180546001600160a01b0319166001600160a01b0383169081179091556040519081527fbbb218c618aff8fc737012ba779aad87c1cf7a60b501bd2f72bb570517f02ca390602001610272565b6000602082840312156105ef57600080fd5b81356001600160a01b038116811461053757600080fd5b6000806020838503121561061957600080fd5b823567ffffffffffffffff81111561063057600080fd5b8301601f8101851361064157600080fd5b803567ffffffffffffffff81111561065857600080fd5b8560208260051b840101111561066d57600080fd5b6020919091019590945092505050565b801515811461068b57600080fd5b50565b6000602082840312156106a057600080fd5b81356105378161067d565b60208082526006908201526510b0b236b4b760d11b604082015260600190565b634e487b7160e01b600052603260045260246000fd5b6000602082840312156106f357600080fd5b81516105378161067d56fea2646970667358221220d20c3958da1a930035543c6d2d1a3e622b74369ddbe64b8e885ab81a53d59c7a64736f6c634300081a0033","linkReferences":{}},"methodIdentifiers":{"admin()":"f851a440","approveWallet(address)":"0fcb0ae5","approveWalletList(address[])":"396ad9d3","check(address)":"c23697a8","checker()":"cf5303cf","isAllowAll()":"2c6766c6","revokeWallet(address)":"808a9d40","revokeWalletList(address[])":"1b833791","setAllowAll(bool)":"4d7d9c01","setChecker(address)":"cf880f4c","wallets(address)":"89b08f11"},"id":24}